:100000000C944F010C9480010C9480010C9480019D
:100010000C9480010C9480010C9480010C9480015C
:100020000C9480010C94B4070C94B4070C94B4079E
:100030000C9480010C942C090C9480010C94800188
:100040000C9480010C94A60B0C9480010C948001FC
:100050000C9480010C9480010C9480010C94E208B3
:100060000C9480010C949B0A0C94710A0C948001EE
:100070000C9480010C9480010C9480010C948001FC
:100080000C9480010C9480010C9480010C948001EC
:100090000C9480010C9480010C9480010C94BE0798
:1000A0000C9480010C9480010C9480010C948001CC
:1000B0000C9480010C9480010C9480010C94C50A6E
:1000C0000C9480010C9480010C9480010C94470ADC
:1000D0000C941D0A0C9480010C94F3090C94C9092A
:1000E0000C9480010C9429020C948B020C949C10AB
:1000F0000C9499060C94FC010C947C020C94A902BB
:100100000C94D3010C94D1010C94B1020C943606DA
:100110000C949B020C94B7020C9476020C948F05FD
:100120000C9480020C94F5010C94BB020C94B60262
:100130000C9484020C94D0010C9488020C94AD02AF
:100140000C949F020C9491020C946C050C94A302E5
:100150000C94E9050C94B1060C9498060C94950245
:100160000C94D2010C949D050C944E0C0C947B05C0
:100170000C94E2010C9426050000200023002600C8
:1001800029002C002F0032000001000003010601AD
:1001900009010200002100240027002A002D003060
:1001A00000330001010000040107010A01000022E0
:1001B00000250028002B002E003100340002010031
:1001C00000050108010B01050505050705080808DC
:1001D00008020202020A0A080804040404010101D8
:1001E00001010101010303030303030303040707E0
:1001F000070C0C0C0C0C0C0C0C020202020606067E
:1002000006060606060B0B0B0B0B0B0B0B01021065
:100210002020080810204010204080020102010820
:1002200004020101020408102040808040201008D0
:100230000402018004020180402010080402010829
:100240000402010102040810204080010204081089
:1002500020408000000A0B02090C0D0E0807030461
:10026000010000000000000000000000000000008D
:10027000000000000000000000000000000000126C
:10028000111000000000000000000000000000004D
:10029000000000000000000000004E0C9C10112423
:1002A0001FBECFEFD1E2DEBFCDBF00E00CBF12E03A
:1002B000A0E0B2E0E8E7F6E200E00BBF02C0079082
:1002C0000D92A838B107D9F727E0A8E8B2E001C03D
:1002D0001D92A736B207E1F711E0CEE4D1E000E0CD
:1002E00006C021970109802FFE010E940C11CD3418
:1002F000D10780E00807A9F70E94440E0C942A1346
:100300000C940000FC01A089B18982E08C93A48543
:10031000B5851C92A685B7858FEC8C93108EA48929
:10032000B58986E08C93A289B3898C9180618C9386
:10033000A289B3898C9188608C93A289B3898C91AE
:1003400080688C930288F389E02D80818F7D808383
:1003500008952091F602260F3327331F21323105ED
:10036000ECF420914303FC0190E080E0243069F03C
:1003700082E00895A091F6022191AC014C525D4FAC
:10038000A40FB52FB11D2C930196861798F3809179
:10039000F602680F6093F60280E0089581E0089508
:1003A000089508950895E091D2028091D102E8174E
:1003B00030F4F0E0EF54FD4F808190E008958FEF2E
:1003C0009FEF08959091D2028091D1022FEF3FEFDD
:1003D000981748F4E92FF0E0EF54FD4F208130E00A
:1003E0009F5F9093D202C90108958091D1029091AC
:1003F000D202891B990B0895CF92DF92EF92FF9260
:100400000F931F93CF93DF937C01CB018A0120913F
:100410004903222389F0EB016B01C40ED51ECC15D4
:10042000DD0569F06991D701ED91FC910190F081B2
:10043000E02DC7011995F3CF642F0E94A901C801CF
:10044000DF91CF911F910F91FF90EF90DF90CF90B0
:100450000895CF93DF931F92CDB7DEB769832091C4
:1004600049032223F9F020916C03203258F021E057
:1004700030E0FC013383228390E080E00F90DF9135
:10048000CF91089580914A03E82FF0E0E55BFC4F9F
:10049000998190838F5F80934A0380936C0381E0FE
:1004A00090E0ECCF61E0CE0101960E94A901F7CF68
:1004B0008150823108F05AC0E82FF0E08827EC59CB
:1004C000FD4F8F4F0C940C118402880276027C023F
:1004D0008002B6028B02910295029B029F02A30248
:1004E000A902AD02B602B102B702BB028091800040
:1004F0008F77809380000895809180008F7DF9CF61
:1005000080918000877FF5CF84B58F7784BD089573
:1005100084B58F7DFBCF8091B0008F778093B00042
:1005200008958091B0008F7DF9CF809190008F77F2
:10053000809390000895809190008F7DF9CF8091F5
:100540009000877FF5CF8091A0008F778093A000E7
:1005500008958091A0008F7DF9CF8091A000877FC2
:10056000F5CF809120018F778093200108958091AD
:1005700020018F7DF9CF80912001877FF5CF1F93D8
:10058000CF93DF93282F30E0F901ED5AFD4F84918E
:10059000F901E35FFD4FD491F901E953FE4FC49196
:1005A000CC23A9F0162F81110E945802EC2FF0E005
:1005B000EE0FFF1FE355FE4FA591B4918FB7F8944E
:1005C000EC91111108C0D095DE23DC938FBFDF9131
:1005D000CF911F910895DE2BF8CF1092430381E055
:1005E0008093420310921D0361E084E10E94BF02E8
:1005F00061E085E10E94BF02E9EBF0E080818E7F3F
:10060000808380818D7F808388E48093B80085E437
:100610008093BC000895CF93DF9391E09093D30231
:100620008823B9F0C091B800D091BA008091BC0085
:100630008A7B8093BC0060E084E10E94BF0260E09E
:1006400085E10E94BF020E94ED02D093BA00C093E0
:10065000B800DF91CF910895CF93DF9390E0FC0134
:10066000E35FFD4F249189539E4FFC0184918823C1
:10067000D1F090E0880F991FFC01ED56FE4FA59137
:10068000B491FC01E355FE4FC591D49161110EC0A8
:100690009FB7F8948C91E22FE0958E238C9328815C
:1006A000E223E8839FBFDF91CF9108958FB7F8943D
:1006B000EC91E22BEC938FBFF6CF1F93CF93DF9398
:1006C000EC01162F88818C3008F046C061E0812F44
:1006D0000E942C03888195E0899FF0011124E95D37
:1006E000F94F1F736081607C612B608313821482D9
:1006F0002CE0622F0E940011829FB001112430E093
:1007000020E095E0AB01420F531F949FF001959FAD
:10071000F00D1124E95DF94F408146FD13C02F5FB4
:100720003F4F2C30310571F781110CC010928000C1
:1007300082E080938100109285001092840086BB35
:1007400080936F00E88185E0E89FF0011124E95D66
:10075000F94F8081806480838881DF91CF911F91E0
:1007600008953FB7F8948091AD029091AE02A091A8
:10077000AF02B091B00226B5A89B05C02F3F19F07B
:100780000196A11DB11D3FBFBA2FA92F982F882711
:10079000BC01CD01620F711D811D911D42E0660FEC
:1007A000771F881F991F4A95D1F70895CF92DF923E
:1007B000EF92FF920F931F93CF93DF93D0916C032F
:1007C00081E0D13208F09CC0C0916B030E94B1035C
:1007D0006B017C018091430381116CC082E08093A6
:1007E000430381E0809342038FEF80934103109293
:1007F0004003D0933F03ABE4B3E0EFE1F3E080E0EC
:10080000D8138DC010921E0380911E03CC0FC82BED
:10081000C0931E0380911D03813009F084C01092A3
:100820001D030E94B1036B017C0180911E03809324
:10083000BB008091450390914603A0914703B0917E
:100840004803892B8A2B8B2BA1F00E94B1030091C6
:1008500045031091460320914703309148036C19DA
:100860007D098E099F09061717072807390708F41D
:1008700042C08091BC0083FDD8CF85EC8093BC0042
:100880000E94B1036B017C0180914303823009F423
:100890004CC0809141038F3F09F469C080914103AE
:1008A000803209F466C080914103803309F463C04B
:1008B00084E026C08091450390914603A0914703B0
:1008C000B0914803892B8A2B8B2B09F483CF0E948C
:1008D000B1030091450310914603209147033091E5
:1008E00048036C197D098E099F0906171707280709
:1008F000390708F06FCF809144030E940B0385E015
:1009000010924A0310926C0310924903DF91CF9129
:100910001F910F91FF90EF90DF90CF9008959D91E0
:1009200091938F5F6DCF85EEA9CF80914503909114
:100930004603A0914703B0914803892B8A2B8B2B48
:1009400009F4A2CF0E94B103009145031091460320
:1009500020914703309148036C197D098E099F0946
:10096000061717072807390708F08ECFC4CF80E095
:10097000C7CF82E0C5CF83E0C3CF0F931F93CF9340
:10098000DF93162F072FCCE2D7E0AA85BB859C8585
:1009900021E02093490390936B0310924A03109235
:1009A0006C03ED91FC9111970190F081E02D682F7F
:1009B000CD0119958A859B85DC01ED91FC91019013
:1009C000F081E02D602F19958A859B85DC01ED91E2
:1009D000FC910190F081E02D612F1995DF91CF916D
:1009E0001F910F910C94D6038F929F92AF92BF925A
:1009F000CF92DF92EF92FF924B015C010E94B10314
:100A00006B017C010E94B1036C197D098E099F095D
:100A1000683E734081059105A8F321E0821A910890
:100A2000A108B10888EEC80E83E0D81EE11CF11CB5
:100A300081149104A104B10429F7FF90EF90DF9095
:100A4000CF90BF90AF909F908F900895AF92BF923C
:100A5000CF92DF92EF92FF920F931F93CF93DF938A
:100A60006C017B018B01040F151FEB015E01AE18B9
:100A7000BF08C017D10759F06991D601ED91FC91DB
:100A80000190F081E02DC6011995892B79F7C501F8
:100A9000DF91CF911F910F91FF90EF90DF90CF905A
:100AA000BF90AF900895FC01A089B1898C91A6896F
:100AB000B78982FD0FC09C91818D8F5F8F73228DCE
:100AC000821749F0A18DAE0FBF2FB11D5D969C938B
:100AD000818F08958C910895FC01538D448D252FAD
:100AE00030E0842F90E0821B930B541710F0CF96C8
:100AF000089501970895FC01918D828D981761F0FA
:100B0000A28DAE0FBF2FB11D5D968C91928D9F5F10
:100B10009F73928F90E008958FEF9FEF0895FC01EF
:100B2000918D828D981731F0828DE80FF11D858DA2
:100B300090E008958FEF9FEF0895FC01918D228D35
:100B4000892F90E0805C9F4F821B91098F739927BA
:100B5000089589E793E00E949D0521E0892B09F41F
:100B600020E0822F089586E194E00E949D0521E017
:100B7000892B09F420E0822F089583EB94E00E94F2
:100B80009D0521E0892B09F420E0822F0895FC01C6
:100B9000A48DA80FB92FB11DA35ABF4F2C91848DDE
:100BA00090E001968F739927848FA689B7892C933B
:100BB000A089B1898C91837080648C93938D848D8E
:100BC000981306C00288F389E02D80818F7D808391
:100BD0000895EF92FF920F931F93CF93DF93EC0151
:100BE00081E0888F9B8D8C8D98131AC0E889F989D4
:100BF000808185FF15C09FB7F894EE89FF896083D7
:100C0000E889F98980818370806480839FBF81E057
:100C100090E0DF91CF911F910F91FF90EF90089599
:100C2000F62E0B8D10E00F5F1F4F0F731127E02E74
:100C30008C8D8E110CC00FB607FCFACFE889F989AC
:100C4000808185FFF5CFCE010E94C705F1CFEB8DE6
:100C5000EC0FFD2FF11DE35AFF4FF0829FB7F89480
:100C60000B8FEA89FB8980818062CFCFCF93DF939E
:100C7000EC01888D8823B9F0AA89BB89E889F989B4
:100C80008C9185FD03C0808186FD0DC00FB607FCE9
:100C9000F7CF8C9185FFF2CF808185FFEDCFCE011C
:100CA0000E94C705E9CFDF91CF910895F0E0E0E021
:100CB000199480E090E0892B29F00E94BD058111F4
:100CC0000E94000080E090E0892B49F080E090E0F5
:100CD000892B29F00E94000081110E9400000E94CF
:100CE000B30581110E94560680E090E0892B29F01F
:100CF0000E94A90581110C94000008958EBD00008A
:100D00000DB407FEFDCF8EB50895FC01248131E0BE
:100D10003093490320936B0310924A0310926C03A3
:100D20008485682B8DE693E00E9429020C94D603FB
:100D3000089590E080E008950F931F93CF938C0166
:100D4000C62F64600E9485066C2F6B7FC8010E94CD
:100D5000850683EC90E00197F1F7CF911F910F91F9
:100D600008950F931F93CF93DF938C01C62FD62F37
:100D7000D07FD1606D2F0E9485066D2FC8010E9423
:100D80009C0680E1C89FE0011124C1606C2FC8015E
:100D90000E9485066C2FC8010E949C0681E090E0AD
:100DA000DF91CF911F910F910895CF93DF93FC01B5
:100DB00001900020E9F73197AF01481B590BBC01A6
:100DC00083EB94E00E942605EC0142E050E06FE3E3
:100DD00072E083EB94E00E9426058C0F9D1FDF914B
:100DE000CF910895CF92DF92EF92FF92CF93DF934E
:100DF00090915707891720F090915807981750F451
:100E000082E492E0DF91CF91FF90EF90DF90CF905E
:100E10000C94D506E0915D07EC3008F051C0282F06
:100E200030E0CE2FD0E095E0E99FF0011124E95D9C
:100E3000F94F938178E8C72ED12CC91AD10897FDB4
:100E4000D394CC0CDD1CCC0CDD1C283C31050CF003
:100E50003EC00D2C000CEE08FF08948128E532E01E
:100E6000291B310997FD3395220F331F220F331FA2
:100E7000032E000C440B550B2C193D094E095F093C
:100E8000A82FB0E00E94C41024EB30E040E050E016
:100E90000E94A510C20ED31EE41EF51E8FB7F89453
:100EA00095E09C9FF0019D9FF00D1124E95DF94FA5
:100EB00096E0C91AD108CC0CDD1CD282C1828FBF4A
:100EC000DF91CF91FF90EF90DF90CF9008952C1598
:100ED0003D0524F3848148E5C42E42E0D42EC81A8F
:100EE000D10887FDD394CC0CDD1CCC0CDD1C2C155B
:100EF0003D05A4F66901D2CF85ED8093BC008091B9
:100F0000450390914603A0914703B091480307968B
:100F1000A11DB11D23E0B695A795979587952A95B4
:100F2000D1F72091BC0024FD03C010924303089523
:100F300040914503509146036091470370914803E7
:100F4000452B462B472B69F30097A105B10541F0CE
:100F500025E32A95F1F700000197A109B109E1CF36
:100F6000809144030C940B031F920F920FB60F92C3
:100F700011240F900FBE0F901F9018951F920F9283
:100F80000FB60F9211240BB60F922F933F934F93EE
:100F90005F936F937F938F939F93AF93BF93EF93E1
:100FA000FF938091B900887F803609F44DC008F026
:100FB00040C0883209F4A9C028F5803109F49DC0E9
:100FC000C8F4882309F4FBC0883009F496C0FF9167
:100FD000EF91BF91AF919F918F917F916F915F91B1
:100FE0004F913F912F910F900BBE0F900FBE0F901E
:100FF0001F901895883109F488C0803241F780939A
:10100000410314C0803409F49DC040F48033B9F327
:101010008833E9F68093410385ECB0C0803509F44C
:1010200085C0883509F496C0883489F60E947C070B
:10103000CECF883909F48CC038F5883729F050F4C0
:10104000883611F0803719F683E0809343031092BD
:101050001A0357C0883809F47BC0803919F08038EA
:1010600009F0B5CF80911A03803208F071C0E09189
:101070001A0381E08E0F80931A038091BB00F0E089
:10108000E650FD4F80833DC0803B39F0E0F4803A6C
:1010900009F479C0883A09F09ACF84E08093430339
:1010A0001092F7021092F602E091F402F091F5022C
:1010B00019958091F60281110FC081E08093F602AC
:1010C0001092D40209C0803C09F4A6CF883C09F4F0
:1010D000A3CF883B09F07BCFE091F70281E08E0F30
:1010E0008093F702F0E0EC52FD4F80818093BB00CB
:1010F0009091F7028091F60229C080911E0380939F
:10110000BB0085EC8093BC0062CF9091400380913E
:101110003F03981758F5E091400381E08E0F8093CC
:101120004003F0E0E15EFC4F8081E9CFE0914003B5
:1011300081E08E0F809340038091BB00F0E0E15E80
:10114000FC4F80839091400380913F039817C8F231
:1011500085E8D8CFE091400381E08E0F8093400373
:101160008091BB00F0E0E15EFC4F80838091420300
:1011700081115CCF81E080931D0384EA8093BC00E1
:101180001092430324CF85EC8093BC00109243035C
:1011900080911A03803230F4E0911A03F0E0E650B7
:1011A000FD4F108260911A0370E0E091F802F09117
:1011B000F9028AEF92E0199510921A0308CF109263
:1011C000410334CF1F920F920FB60F9211242F9329
:1011D0003F938F939F93AF93BF938091A902909178
:1011E000AA02A091AB02B091AC023091A80223E018
:1011F000230F2D3758F50196A11DB11D2093A8028C
:101200008093A9029093AA02A093AB02B093AC0280
:101210008091AD029091AE02A091AF02B091B00268
:101220000196A11DB11D8093AD029093AE02A093D3
:10123000AF02B093B002BF91AF919F918F913F9158
:101240002F910F900FBE0F901F90189526E8230F37
:101250000296A11DB11DD2CF1F920F920FB60F9211
:1012600011240BB60F922F933F934F935F936F937D
:101270007F938F939F93AF93BF93EF93FF9380914F
:10128000A3029091A402A091A502B091A602892B7D
:101290008A2B8B2BD1F19091A2028091000089279B
:1012A000809300008091A3029091A402A091A502D6
:1012B000B091A602181619061A061B069CF4809116
:1012C000A3029091A402A091A502B091A602019759
:1012D000A109B1098093A3029093A402A093A5024F
:1012E000B093A602FF91EF91BF91AF919F918F9123
:1012F0007F916F915F914F913F912F910F900BBE16
:101300000F900FBE0F901F90189580910002E2E998
:10131000F1E0E4919FEF90930002E230E9F040F4B5
:10132000EE2389F0E13091F060E00E94BF02DACF55
:10133000E43049F110F1E530B9F7909173009D7FE9
:1013400090937300F1CF10926E00EECF90916F00EA
:101350009D7F90936F00E8CF909170009D7F909358
:10136000700091E09093B0009091B100987F9460EC
:101370009093B1001092B300D7CF909171009D7FF0
:1013800090937100D1CF909172009D7F90937200E5
:10139000CBCF1F920F920FB60F9211240BB60F9264
:1013A0002F933F934F935F936F937F938F939F936D
:1013B000AF93BF93EF93FF9389E793E00E94C70534
:1013C000FF91EF91BF91AF919F918F917F916F911D
:1013D0005F914F913F912F910F900BBE0F900FBED9
:1013E0000F901F9018951F920F920FB60F92112415
:1013F0000BB60F922F933F934F935F936F937F930F
:101400008F939F93AF93BF93EF93FF9389E793E0FD
:101410000E945305FF91EF91BF91AF919F918F91E2
:101420007F916F915F914F913F912F910F900BBEE4
:101430000F900FBE0F901F9018951F920F920FB62E
:101440000F9211240BB60F922F933F934F935F93FC
:101450006F937F938F939F93AF93BF93EF93FF937C
:1014600086E194E00E94C705FF91EF91BF91AF9193
:101470009F918F917F916F915F914F913F912F91AC
:101480000F900BBE0F900FBE0F901F9018951F92DC
:101490000F920FB60F9211240BB60F922F933F931A
:1014A0004F935F936F937F938F939F93AF93BF936C
:1014B000EF93FF9386E194E00E945305FF91EF9133
:1014C000BF91AF919F918F917F916F915F914F915C
:1014D0003F912F910F900BBE0F900FBE0F901F905A
:1014E00018951F920F920FB60F9211240BB60F9200
:1014F0002F933F934F935F936F937F938F939F931C
:10150000AF93BF93EF93FF9383EB94E00E94C705E3
:10151000FF91EF91BF91AF919F918F917F916F91CB
:101520005F914F913F912F910F900BBE0F900FBE87
:101530000F901F9018951F920F920FB60F921124C3
:101540000BB60F922F933F934F935F936F937F93BD
:101550008F939F93AF93BF93EF93FF9383EB94E0AD
:101560000E945305FF91EF91BF91AF919F918F9191
:101570007F916F915F914F913F912F910F900BBE93
:101580000F900FBE0F901F9018951F920F920FB6DD
:101590000F9211240BB60F922F933F934F935F93AB
:1015A0006F937F938F939F93AF93BF93CF93DF936B
:1015B000EF93FF932091560530E0F901ED5AFD4F6E
:1015C0008491F901E35FFD4FD491F901E953FE4F96
:1015D000C491CC2379F081110E945802EC2FF0E0E5
:1015E000EE0FFF1FE858FE4FA591B491EC91ED234B
:1015F00081E009F480E020915A0530915B052F5F6E
:101600003F4F30935B0520935A05909159059536CD
:1016100018F096E09093550590915505943009F493
:1016200066C0B8F49230F1F0933009F444C0909160
:101630005805992309F46BC081117EC0809157052C
:10164000882309F463C08091570561E00E94BF02BE
:101650005EC0953009F457C0963049F791E09093F9
:1016600026064FC08111E3CF20915A0530915B05CA
:101670002436310528F410925B0510925A05D7CF15
:101680001092260610925905E091590591E09E0F9F
:1016900090935905F0E020915A0530915B05EE0FCB
:1016A000FF1FEB5AFA4F3087278310925B05109289
:1016B0005A0593E019C0813009F0B9CFE09159057E
:1016C00091E09E0F90935905F0E020915A053091DA
:1016D0005B05EE0FFF1FEB5AFA4F308727831092FE
:1016E0005B0510925A0594E090935505A0CF88238E
:1016F00059F220915A0530915B052536310508F4E1
:1017000096CF95E0F1CF811192CFB5CF2F9AFF916F
:10171000EF91DF91CF91BF91AF919F918F917F9189
:101720006F915F914F913F912F910F900BBE0F9052
:101730000FBE0F901F90189580915705882321F0B8
:101740008091570560E082CF2F98E1CF1F920F92D2
:101750000FB60F9211240BB60F922F933F934F9316
:101760005F936F937F938F939F93AF93BF93CF9329
:10177000DF93EF93FF938091A102C0916306D0E0C5
:1017800087FF23C010928500109284008091A102EF
:101790008F5F8093A1028091A102082E000C990B0B
:1017A0008C179D0724F48091A1028C3074F18091F4
:1017B00084009091850084349C4908F465C0809130
:1017C000840090918500049661C08091A102082E4A
:1017D000000C990B8C179D07CCF63091A10225E0E7
:1017E0003203F0011124E95DF94F808186FFCECFED
:1017F0003091A1023203F0011124E95DF94F80819B
:1018000060E08F730E94BF02C1CF809184009091ED
:1018100085003091A10225E03203F0011124E95D39
:10182000F94F41815281840F951F909389008093D5
:1018300088003091A1023203F0011124E95DF94FD3
:10184000808186FF0CC03091A1023203F001112487
:10185000E95DF94F808161E08F730E94BF02FF91C3
:10186000EF91DF91CF91BF91AF919F918F917F9138
:101870006F915F914F913F912F910F900BBE0F9001
:101880000FBE0F901F90189580E49CE990938900FB
:10189000809388008FEF8093A102E1CF10927003B4
:1018A00010926F0388EE93E0A0E0B0E080937103A4
:1018B00090937203A0937303B093740323E132E017
:1018C00030936E0320936D0310927C0310927B0380
:1018D00080937D0390937E03A0937F03B093800356
:1018E00025E232E030937A032093790345E351E017
:1018F000509386034093850344E351E0509388035B
:101900004093870340E351E050938A034093890357
:1019100041E351E050938C0340938B0342E351E049
:1019200050938E0340938D0346E351E05093900310
:1019300040938F031092920310929303109294039A
:1019400010929503109219041092180480931A04AF
:1019500090931B04A0931C04B0931D0430931704B0
:101960002093160445ED50E0509323044093220445
:1019700044ED50E0509325044093240440ED50E0A2
:10198000509327044093260441ED50E050932904DE
:101990004093280442ED50E050932B0440932A04D6
:1019A00046ED50E050932D0440932C0410922F04E8
:1019B0001092300410923104109232041092B60446
:1019C0001092B5048093B7049093B804A093B9041F
:1019D000B093BA043093B4042093B30485EC90E040
:1019E0009093C0048093BF0484EC90E09093C20471
:1019F0008093C10480EC90E09093C4048093C3046E
:101A000081EC90E09093C6048093C50482EC90E052
:101A10009093C8048093C70486EC90E09093CA0426
:101A20008093C9041092CC041092CD041092CE047D
:101A30001092CF04109250058BEE90E090935405D5
:101A40008093530581E090E0909352058093510577
:101A50008091070290910802A0910902B0910A02B8
:101A600080934D0790934E07A0934F07B093500774
:101A700080910B0290910C02A0910D02B0910E0288
:101A80008093510790935207A0935307B093540744
:101A900084E08093550787E080935607109257079C
:101AA00084EB8093580786E18093590788E18093FF
:101AB0005A0787E180935B0789E180935C07E09197
:101AC0006306EC3008F4A9C08FEF80935D07E091C6
:101AD0006306EC3008F4B2C08FEF80935E078CE0B1
:101AE00080932C0784E280932D0786E080932E0755
:101AF00085E080932F078FE1809330078EE18093FC
:101B0000310783E28093320782E28093330785E4D2
:101B10008093340784E48093350780E4809338070A
:101B200010923D0710923E0710923F071092400717
:101B300010924107109242071092430710924407F7
:101B4000EEE6F6E08FEF9FEFDC0112821382148243
:101B50001582168217821086118683879487A5873F
:101B6000B6878787908BA18BB28B128611821082E9
:101B7000739627E0EC32F20741F78DE090E00E9487
:101B80001411FC011382128287E392E09183808317
:101B9000118687E2848384E1828784E083871486C8
:101BA000F0936B06E0936A0610926C0610926D0635
:101BB00085E28093560510925805109265061092A2
:101BC00064061092670610926606109269061092DB
:101BD000680661E070E090E080E00E9439120097B2
:101BE000F1F1909365068093640610926706109257
:101BF00066062091680630916906232B11F4FC01DA
:101C00001082109269061092680661E472E0809179
:101C10006406909165060C94231381E08E0F8093E7
:101C20006306E0935D0725E0E29FF0011124E95D82
:101C3000F94F88EB9BE09283818349CF81E08E0F3F
:101C400080936306E0935E0785E0E89FF00111242E
:101C5000E95DF94F88EB9BE09283818340CF8091CF
:101C6000640690916506009711F00E94B0111092E1
:101C7000650610926406109269061092680610922A
:101C80006706109266060895789484B5826084BDD4
:101C900084B5816084BD85B5826085BD85B5816070
:101CA00085BD80916E00816080936E0010928100EE
:101CB00080918100826080938100809181008160A9
:101CC000809381008091800081608093800080916A
:101CD000B10084608093B1008091B00081608093F6
:101CE000B00080919100826080939100809191007A
:101CF000816080939100809190008160809390003A
:101D00008091A10082608093A1008091A1008160F8
:101D10008093A1008091A00081608093A0008091B9
:101D20002101826080932101809121018160809353
:101D300021018091200181608093200180917A00AF
:101D4000846080937A0080917A00826080937A0028
:101D500080917A00816080937A0080917A00806817
:101D600080937A001092C10083EB94E00E9482017C
:101D700061E080912D070E942C0360E080912D0787
:101D80000E94BF0260E080912C070E942C038DE628
:101D900093E090933707809336071092D202109207
:101DA000D10210924A0310926C030E94ED0280ED62
:101DB00091E09093F5028093F40281ED91E090938D
:101DC000F9028093F80280E090E1A0E0B0E0809317
:101DD000390790933A07A0933B07B0933C078AE0FA
:101DE00090E0A0E0B0E080933D0790933E07A09381
:101DF0003F07B093400780E090E0A0E0B0E480931C
:101E0000410790934207A0934307B093440760E0D3
:101E100070E185E00E94BD046FE979E380E00E94F3
:101E2000BD040EE217E0CCE2D7E09CEFA92E91E0D2
:101E3000B92E22E4822E22E0922E3BECE32E37E0F4
:101E4000F32E4BE8C42EDD24D394F80192818191C6
:101E50008F01898F9A8F61E00E942C0361E08A8D47
:101E60000E942C03F801958183818D8F9E8F61E004
:101E70000E942C0360E08E8D0E942C0361E08D8D0A
:101E80000E94BF027FB6F8948091A702811125C0FD
:101E9000F5018491F4019491E82FF0E0EE0FFF1F1B
:101EA000ED56FE4FA591B4918C91982321F461E0F9
:101EB00085E30E94BF0261E085E30E942C038CB59C
:101EC00080618CBD8CB580648CBD61E084E30E9430
:101ED0002C0361E083E30E942C038091A7028F5FB3
:101EE0008093A7027FBEC7010197F1F760E08D8D57
:101EF0000E94BF0288E80E947E0683E00E947E0660
:101F000061E08D8D0E94BF02C7010197F1F760E08B
:101F10008D8D0E94BF0288E90E947E0680E00E94AB
:101F20007E0680E00E947E0680E00E947E0680E0C1
:101F30000E947E0661E08D8D0E94BF02C60101975E
:101F4000F1F760E08D8D0E94BF0280EE0E947E0658
:101F500061E08D8D0E94BF022296F7E0C033DF075B
:101F600009F073CFC1E5D7E005E517E060E089919E
:101F70000E942C030C171D07C9F76091550770E0EC
:101F80008DE597E00E945D0390915B078091590772
:101F900080935F079093600760E00E942C0361E0EC
:101FA000809160070E942C0360E0809160070E948E
:101FB000BF026091560770E08EE597E00E945D03D6
:101FC00090915C0780915A07809361079093620714
:101FD00060E00E942C0361E0809162070E942C0364
:101FE00060E0809162070E94BF02F8941092200185
:101FF00089E08093210180E293E09093290180930E
:102000002801109225011092240182E08093730030
:10201000789480935505109259058091560560E09B
:102020000E942C0361E083E00E942C0361E085E0C4
:102030000E942C0361E086E00E942C0361E08EE2A6
:102040000E942C0361E080E30E942C0361E08AE29D
:102050000E942C0361E08CE20E942C0360E083E488
:102060000E942C0360E088E20E942C0360E086E27C
:102070000E942C0360E087E20E942C0360E08FE363
:102080000E942C036091550770E08DE597E00E9457
:102090005D038BE40E94F20686E194E00E948201D7
:1020A0008FE592E00E94D506E0915D07C5E0CE9FE6
:1020B000F0011124E95DF94F80818F7B808368E90D
:1020C0007AE380E090E00E94F4046091550770E0AC
:1020D0008DE597E00E945D038FEA0E94F20668EEAC
:1020E00073E080E090E00E94F4048BE40E94F2062A
:1020F00060ED77E080E090E00E94F404E0915D07FD
:10210000CE9FF0011124E95DF94F80818F7B8083A0
:1021100060ED77E080E090E00E94F404E0915D07DC
:10212000CE9FF0011124E95DF94F80818F7B808380
:1021300090E080E00E942A138091640690916506E9
:10214000009711F00C94B0110895052E97FB1EF422
:1021500000940E94BC1057FD07D00E94CF1007FCCE
:1021600003D04EF40C94BC105095409530952195B9
:102170003F4F4F4F5F4F08959095809570956195B3
:102180007F4F8F4F9F4F08950E94F110A59F900D94
:10219000B49F900DA49F800D911D11240895A1E27C
:1021A0001A2EAA1BBB1BFD010DC0AA1FBB1FEE1FD1
:1021B000FF1FA217B307E407F50720F0A21BB30B1C
:1021C000E40BF50B661F771F881F991F1A9469F798
:1021D00060957095809590959B01AC01BD01CF01F4
:1021E0000895A29FB001B39FC001A39F700D811DF0
:1021F0001124911DB29F700D811D1124911D089510
:10220000991B79E004C0991F961708F0961B881F48
:102210007A95C9F780950895EE0FFF1F881F8BBF31
:102220000790F691E02D19940F931F93CF93DF93AE
:102230008230910510F482E090E0E0916507F09122
:10224000660730E020E0B0E0A0E0309799F4211577
:10225000310509F44AC0281B390B24303105D8F563
:102260008A819B816115710589F1FB0193838283CA
:10227000FE0111C040815181028113814817590725
:10228000E0F04817590799F4109761F012960C93F3
:10229000129713961C933296CF01DF91CF911F9125
:1022A0000F9108950093650710936607F4CF2115E9
:1022B000310551F04217530738F0A901DB019A01AB
:1022C000BD01DF01F801C1CFEF01F9CF909366079F
:1022D00080936507CDCFFE01E20FF31F81939193A9
:1022E0002250310939832883D7CF20916307309159
:1022F0006407232B41F420910302309104023093B0
:102300006407209363072091010230910202211596
:10231000310541F42DB73EB74091050250910602B8
:10232000241B350BE0916307F0916407E217F30774
:10233000A0F42E1B3F0B2817390778F0AC014E5F35
:102340005F4F2417350748F04E0F5F1F5093640707
:1023500040936307819391939FCFF0E0E0E09CCF9F
:10236000CF93DF930097E9F0FC013297138212823A
:10237000A0916507B0916607ED0130E020E010976D
:10238000A1F420813181820F931F20916307309146
:1023900064072817390709F061C0F0936407E093D8
:1023A0006307DF91CF910895EA01CE17DF07E8F5C3
:1023B0004A815B819E0141155105B1F7E901FB831B
:1023C000EA8349915991C40FD51FEC17FD0761F4B9
:1023D000808191810296840F951FE90199838883FA
:1023E000828193819B838A83F0E0E0E012968D9155
:1023F0009C9113970097B9F52D913C911197CD01C0
:102400000296820F931F209163073091640728176B
:10241000390739F6309751F5109266071092650723
:10242000B0936407A0936307BCCFD383C28340817A
:102430005181840F951FC817D90761F44E5F5F4F14
:1024400088819981480F591F518340838A819B81DC
:10245000938382832115310509F0B0CFF09366078D
:10246000E09365079ECFFD01DC01C0CF138212828D
:10247000D7CF4F925F926F927F928F929F92AF923F
:10248000BF92CF92DF92EF92FF920F931F93CF9361
:10249000DF938C01009799F4CB01DF91CF911F91CD
:1024A0000F91FF90EF90DF90CF90BF90AF909F90F3
:1024B0008F907F906F905F904F900C941411FC015F
:1024C000E60FF71F9C0122503109E217F30708F4C9
:1024D000AEC0D901CD91DC911197C617D70720F175
:1024E000C530D10578F0CE0104978617970750F0D4
:1024F000C61BD70B2297C193D1936D937C93CF01C9
:102500000E94B011C801DF91CF911F910F91FF90F0
:10251000EF90DF90CF90BF90AF909F908F907F9083
:102520006F905F904F9008955B01AC1ABD0A4C010B
:102530008C0E9D1EA0916507B0916607512C412C11
:10254000F12CE12C109731F580916307909164078D
:102550008815990509F05CC04616570608F058C062
:102560008091010290910202009741F48DB79EB7CD
:102570004091050250910602841B950BE817F9075C
:1025800008F055C0F0936407E0936307F901718385
:102590006083B8CF8D919C91119712966C90129791
:1025A00013967C901397A815B90559F56C0142E074
:1025B000C40ED11CCA14DB0420F1AC014A195B091A
:1025C000DA011296159780F06282738251834083FC
:1025D000D9016D937C93E114F10471F0D701139646
:1025E000FC93EE9312978ECF22968C0F9D1FF901CC
:1025F00091838083F301EFCFF0936607E093650743
:1026000081CF4816590608F42C017D01D3019ACFD9
:10261000CB010E9414117C01009749F0AE01B80172
:102620000E941A13C8010E94B01187016BCF10E0FD
:1026300000E068CFFB01DC0102C001900D92415027
:102640005040D8F70895FB01DC0101900D92002065
:10265000E1F7089511E0CEE4D1E000E006C0802F5C
:10266000FE010E940C112196011DCF34D10780E09C
:082670000807A9F7F894FFCF59
:10267800FF000067078000363738391B1D1A1C0019
:102688000000002902FC019906D201F501E201D3FC
:102698000100000000E90526056C0536069D057B4E
:1026A800058F0500000000B1062605990698060D5D
:1026B8000A00536572766F20616E676C65206973D6
:1026C800206F7574206F662072616E6765210054F3
:1026D8006573742064752049442D313220737572F6
:1026E80020554152543220285258322F4469676984
:0826F80074616C2031372900E8
:00000001FF
