:100000000C940F060C9440060C9440060C94400689
:100010000C9440060C9440060C9440060C94400648
:100020000C9440060C94BD1A0C94BD1A0C94BD1A85
:100030000C9440060C94351C0C9440060C9440061D
:100040000C9440060C948E1E0C9440060C944006B2
:100050000C9440060C9440060C9440060C94EB1B48
:100060000C9440060C94A41D0C947A1D0C9440062C
:100070000C9440060C9440060C9440060C944006E8
:100080000C9440060C9440060C9440060C944006D8
:100090000C9440060C9440060C9440060C94C71A2D
:1000A0000C9440060C9440060C9440060C944006B8
:1000B0000C9440060C9440060C9440060C94CE1D03
:1000C0000C9440060C9440060C9440060C94501D71
:1000D0000C94261D0C9440060C94FC1C0C94D21C11
:1000E0000C9440060C94D2150C944F0F0C947D0781
:1000F0000C9462070C9481150C9415070C949606C9
:100100000C94D9250C94830B0C94730A0C947715DA
:100110000C94A3070C94CE060C94B9150C94A70765
:100120000C94F0150C948B070C94BE060C940416DA
:100130000C94C80A0C94DC0A0C946C070C949D1562
:100140000C94500F0C9436140C9477070C94E8061A
:100150000C9468070C945C120C9475180C94870727
:100160000C9407140C9495070C9495150C94EA0ABA
:100170000C94DC150C944E0D0C9417140C94700711
:100180000C94A5150C94AF150C942F140C94361FD9
:100190000C9461150C9433130C9481070C94A207F2
:1001A0000C94F10B0C9474070C94360B0C9495067C
:1001B0000C94B90A0C948B150C94E6150C947215DA
:1001C0000C949D070C9499070C9443170C94C31539
:1001D0000C9423140C94AB0E0C94BB120C948A1147
:1001E0000C94E1060C948F070C94BF060C944417F2
:1001F0000C94FA150C94501300000000003E5B4F65
:100200005B3E3E6B4F6B3E1C3E7C3E1C183C7E3C76
:10021000181C577D571C1C5E7F5E1C00183C180084
:10022000FFE7C3E7FF0018241800FFE7DBE7FF3014
:10023000483A060E2629792926407F050507407F82
:1002400005253F5A3CE73C5A7F3E1C1C08081C1CF5
:100250003E7F14227F22145F5F005F5F06097F01EB
:100260007F006689956A606060606094A2FFA294D6
:1002700008047E040810207E201008082A1C0808A4
:100280001C2A08081E101010100C1E0C1E0C3038F2
:100290003E3830060E3E0E06000000000000005FF3
:1002A00000000007000700147F147F14242A7F2A0F
:1002B00012231308646236495620500008070300D1
:1002C000001C2241000041221C002A1C7F1C2A081D
:1002D000083E080800807030000808080808000080
:1002E00060600020100804023E5149453E00427FF4
:1002F000400072494949462141494D331814127F43
:100300001027454545393C4A4949314121110907E2
:100310003649494936464949291E00001400000063
:100320004034000000081422411414141414004135
:1003300022140802015909063E415D594E7C1211F2
:10034000127C7F494949363E414141227F4141412A
:100350003E7F494949417F090909013E41415173A5
:100360007F0808087F00417F41002040413F017F16
:10037000081422417F404040407F021C027F7F04DE
:1003800008107F3E4141413E7F090909063E415127
:10039000215E7F09192946264949493203017F0117
:1003A000033F4040403F1F2040201F3F4038403F18
:1003B000631408146303047804036159494D43002E
:1003C0007F4141410204081020004141417F040265
:1003D00001020440404040400003070800205454FC
:1003E00078407F28444438384444442838444428DA
:1003F0007F385454541800087E090218A4A49C782D
:100400007F0804047800447D40002040403D007F88
:100410001028440000417F40007C047804787C0868
:100420000404783844444438FC182424181824243C
:1004300018FC7C08040408485454542404043F4421
:10044000243C4040207C1C2040201C3C4030403C50
:1004500044281028444C9090907C4464544C4400B0
:100460000836410000007700000041360800020114
:100470000204023C2623263C1EA1A161123A404000
:10048000207A38545455592155557941225454787D
:1004900042215554784020545579400C1E52721216
:1004A000395555555939545454593955545458009F
:1004B00000457C410002457D420001457C407D12A3
:1004C00011127DF0282528F07C5455450020545405
:1004D0007C547C0A097F4932494949323A444444B0
:1004E0003A324A4848303A4141217A3A42402078EB
:1004F000009DA0A07D3D4242423D3D4040403D3CEC
:1005000024FF2424487E4943662B2FFC2F2BFF0910
:1005100029F620C0887E0903205454794100004404
:100520007D413048484A32384040227A007A0A0AEF
:10053000727D0D19317D2629292F28262929292662
:1005400030484D4020380808080808080808382FA7
:1005500010C8ACBA2F102834FA00007B0000081431
:100560002A142222142A14085500550055AA55AA07
:1005700055AAFF55FF55FF000000FF00101010FFA7
:1005800000141414FF001010FF00FF1010F010F002
:10059000141414FC001414F700FF0000FF00FF14F3
:1005A00014F404FC141417101F10101F101F14143F
:1005B000141F00101010F0000000001F1010101089
:1005C0001F10101010F010000000FF10101010107D
:1005D00010101010FF10000000FF140000FF00FFBB
:1005E00000001F10170000FC04F414141710171457
:1005F00014F404F40000FF00F71414141414141479
:10060000F700F7141414171410101F101F141414EB
:10061000F4141010F010F000001F101F0000001F55
:1006200014000000FC140000F010F01010FF10FF88
:10063000141414FF141010101F00000000F010FF1D
:10064000FFFFFFFFF0F0F0F0F0FFFFFF0000000001
:1006500000FFFF0F0F0F0F0F3844443844FC4A4A85
:100660004A347E02020606027E027E02635549413A
:10067000633844443C04407E201E2006027E020271
:1006800099A5E7A5991C2A492A1C4C7201724C3085
:100690004A4D4D303048784830BC625A463D3E495C
:1006A0004949007E0101017E2A2A2A2A2A44445F00
:1006B000444440514A444040444A51400000FF01F4
:1006C00003E080FF000008086B6B08361236243602
:1006D000060F090F06000018180000001010003067
:1006E00040FF0101001F01011E00191D1712003CEF
:1006F0003C3C3C000000000002000000007E0000C6
:10070000000000007E0000000000000007FFF00075
:1007100000000007FFE00000000000001FFFFC00D9
:100720000000003FFFF80000000000007FFFFF0016
:10073000000000FFFFFE000000000000FFFFFF8040
:10074000000001FFFFFF800000000003FF81FFE0C9
:10075000000007FF81FFC00000000007FF007FF0DE
:1007600000000FFE007FE0000000000FFC003FF8DB
:1007700000001FFC003FF0000000001FF8001FFCFD
:1007800000003FF0001FF8000000003FF0000FFEE7
:1007900000007FF0000FFC000000007FF00007FF6A
:1007A0000000FFE0000FFE00000000FFE00003FF7C
:1007B0008001FFC00007FF00000001FFC00003FF31
:1007C000C003FF800003FF80000001FFC00001FFA5
:1007D000E007FF800003FFC0000003FF800000FF70
:1007E000F00FFF000001FFC0000007FF800000FFC6
:1007F000F00FFF000001FFE000000FFF0000007F8E
:10080000F81FFE000000FFF000000FFF0000007F57
:10081000F81FFE000000FFF000001FFF0000007F37
:10082000FC3FFE0000007FF800001FFE0000003FBC
:10083000FE7FFC0000007FF800003FFE0000003F4C
:10084000FE7FFC0000007FFC00003FFE0000001F58
:10085000FFFFF80000003FFE00007FFC0000001FCB
:10086000FFFFF80000003FFE00007FFC0000001FBB
:10087000FFFFF80000003FFE0000FFFC0000000F3B
:10088000FFFFF00000001FFF0000FFF80000000F56
:10089000FFFFF00000001FFF0001FFF80000000F45
:1008A000FFFFF00000001FFF8001FFF80000000FB5
:1008B000FFFFF00000001FFF8001FFF000000007B5
:1008C000FFFFE00000000FFF8003FFF000000007C3
:1008D000FFFFE00000000FFFC003FFF00000000773
:1008E000FFFFE00000000FFFC003FFF00000000763
:1008F000FFFFE00000000FFFE007FFF0000000072F
:10090000FFFFC000000007FFE007FFE0000000035A
:10091000FFFFC000000007FFE007FFE0000000034A
:10092000FFFFC000000007FFF00FFFE00000000322
:10093000FFFFC000000007FFF00FFFE00000000312
:10094000FFFFC000000007FFF00FFFE00000000302
:10095000FFFF8000000003FFF00FFFC00000000158
:10096000FFFF8000000003FFF81FFFC00000000130
:10097000FFFF8000000003FFF81FFFC00000000120
:10098000FFFF8000000003FFF81FFFC00000000110
:10099000FFFF8000000003FFF81FFFC00000000100
:1009A000FFFF8000000003FFF83FFFC000000001D0
:1009B000FFFF8000000003FFFC3FFFC000000001BC
:1009C000FFFF8000000001FFFC3FFF8000000001EE
:1009D000FFFF8000000001FFFC3FFF8000000001DE
:1009E000FFFF0000000001FFFC3FFF80000000004F
:1009F000FFFF0000000001FFFC3FFF80000000003F
:100A0000FFFF0000000001FFFE7FFF8000000000EC
:100A1000FFFF0000000001FFFE7FFF8000000000DC
:100A2000FFFF0000000001FFFE7FFF8000000000CC
:100A3000FFFF0000000001FFFE7FFF8000000000BC
:100A4000FFFF0000000001FFFE7FFF8000000000AC
:100A5000FFFF0000000001FFFE7FFF80000000009C
:100A6000FFFF0000000001FFFE7FFF80000000008C
:100A7000FFFF0000000001FFFE7FFF80000000007C
:100A8000FFFF0000000001FFFE7FFF80000000006C
:100A9000FFFF0000000001FFFE7FFF80000000005C
:100AA000FFFF0000000001FFFE7FFF80000000004C
:100AB00000000000000000FFFE7FFF80000000003B
:100AC00000000000000000FFFE7FFF80000000002B
:100AD00000000000000000FFFE7FFF80000000001B
:100AE00000000000000000FFFF7FFF80000000000A
:100AF00000000000000000FFFF000020002300268F
:100B00000029002C002F0032000001000003010624
:100B100001090100000A0B02090C0D0E080703046D
:100B200001000000000000000000000000000000C4
:100B300000000000000000000000000000000012A3
:100B40001110000000000000000000000000000084
:100B50000000000000000000000000210024002729
:100B6000002A002D003000330001010000040107BD
:100B7000010A010102102020080810204010204026
:100B80008002010201080402010102040810204051
:100B9000808040201008040201800402018040206F
:100BA0001008040201080402010102040810204098
:100BB0008001020408102040800000220025002847
:100BC000002B002E00310034000201000005010856
:100BD000010B0105050505070508080808020202C2
:100BE000020A0A08080404040401010101010101C8
:100BF000010303030303030303040707070C0C0C9F
:100C00000C0C0C0C0C020202020606060606060676
:100C1000060B0B0B0B0B0B0B0B00361FD9251124EE
:100C20001FBECFEFD1E2DEBFCDBF00E00CBF17E0AB
:100C3000A0E0B2E0E4E9F4E500E00BBF02C00790F9
:100C40000D92A834B107D9F72CE0A8E4B7E001C0B1
:100C50001D92A735B207E1F716E0CEE0D6E000E03E
:100C600006C021970109802FFE010E946D27CD301B
:100C7000D10780E00807A9F70E946A210C94382A5E
:100C80000C940000E9E7F9E0A089B18982E08C9337
:100C9000A485B5851C92A685B7858FEC8C93108EA4
:100CA000A489B58986E08C93A289B3898C918061EF
:100CB0008C93A289B3898C9188608C93A289B38923
:100CC0008C9180688C930288F389E02D80818F7DE0
:100CD0008083089528E030E040E8E091490CF091ED
:100CE0004A0C50819091500C909595239083E091FF
:100CF000470CF091480C90914F0C582F542389F0D9
:100D00005081952B9083E091490CF0914A0C908191
:100D10005091500C952B9083469521503109E9F65E
:100D20000895508190959523EDCF089508952091D1
:100D3000DC07260F3327331F21323105ECF42091D5
:100D40000008FC0190E080E0243069F082E0089522
:100D5000A091DC072191AC014454584FA40FB52F4A
:100D6000B11D2C930196861798F38091DC07680FCC
:100D70006093DC0780E0089581E008950895E09194
:100D80002E0880912D08E81730F4F0E0EA56F84F6D
:100D9000808190E008958FEF9FEF089590912E0845
:100DA00080912D082FEF3FEF981748F4E92FF0E0DE
:100DB000EA56F84F208130E09F5F90932E08C901DA
:100DC000089580912D0890912E08891B990B089504
:100DD000CF92DF92EF92FF920F931F93CF93DF9307
:100DE0007C01CB018A0120913208222389F0EB019A
:100DF0006B01C40ED51ECC15DD0569F06991D701D4
:100E0000ED91FC910190F081E02DC7011995F3CF90
:100E1000642F0E949706C801DF91CF911F910F9117
:100E2000FF90EF90DF90CF900895CF93DF931F92C4
:100E3000CDB7DEB76983209132082223F9F02091E3
:100E40002F08203258F021E030E0FC013383228368
:100E500090E080E00F90DF91CF910895809130086D
:100E6000E82FF0E0EA58F84F998190838F5F8093E4
:100E7000300880932F0881E090E0ECCF61E0CE0154
:100E800001960E949706F7CF8150823108F05AC030
:100E9000E82FF0E08827E05BF84F8F4F0C946D2728
:100EA00070077407620768076C07A20777077D075A
:100EB000810787078B078F0795079907A2079D076B
:100EC000A307A707809180008F7780938000089503
:100ED000809180008F7DF9CF80918000877FF5CF52
:100EE00084B58F7784BD089584B58F7DFBCF8091C5
:100EF000B0008F778093B00008958091B0008F7D0F
:100F0000F9CF809190008F77809390000895809121
:100F100090008F7DF9CF80919000877FF5CF8091F1
:100F2000A0008F778093A00008958091A0008F7D0E
:100F3000F9CF8091A000877FF5CF809120018F7736
:100F4000809320010895809120018F7DF9CF8091B9
:100F50002001877FF5CFCF93DF93282F30E0F90171
:100F6000ED5EF44F8491F901ED58F44FD491F901FD
:100F7000ED52F44FC491CC23A1F081110E9444079B
:100F8000EC2FF0E0EE0FFF1FE750F54FA591B49165
:100F9000EC91ED2381E090E009F480E0DF91CF91C6
:100FA000089580E090E0FACF1F93CF93DF93282F2E
:100FB00030E0F901ED5EF44F8491F901ED58F44F02
:100FC000D491F901ED52F44FC491CC23A9F0162F1E
:100FD00081110E944407EC2FF0E0EE0FFF1FE75451
:100FE000F44FA591B4918FB7F894EC91111108C00A
:100FF000D095DE23DC938FBFDF91CF911F910895B1
:10100000DE2BF8CF1092000881E080930208109246
:10101000010861E084E10E94D40761E085E10E945B
:10102000D407E9EBF0E080818E7F808380818D7F23
:10103000808388E48093B80085E48093BC000895A1
:10104000CF93DF9391E09093BB078823B9F0C091D1
:10105000B800D091BA008091BC008A7B8093BC001C
:1010600060E084E10E94D40760E085E10E94D4073B
:101070000E940208D093BA00C093B800DF91CF91CC
:101080000895CF93DF9390E0FC01ED58F44F249145
:101090008D52944FFC0184918823D1F090E0880F09
:1010A000991FFC01E75AF44FA591B491FC01E75454
:1010B000F44FC591D49161110EC09FB7F8948C91F3
:1010C000E22FE0958E238C932881E223E8839FBF53
:1010D000DF91CF9108958FB7F894EC91E22BEC93C8
:1010E0008FBFF6CF1F93CF93DF93EC01162F88812C
:1010F0008C3008F046C061E0812F0E944108888151
:1011000095E0899FF0011124E851F54F1F7360812C
:10111000607C612B6083138214822CE0622F0E941A
:101120006127829FB001112430E020E095E0AB01FF
:10113000420F531F949FF001959FF00D1124E85129
:10114000F54F408146FD13C02F5F3F4F2C303105D6
:1011500071F781110CC01092800082E080938100B1
:10116000109285001092840086BB80936F00E88106
:1011700085E0E89FF0011124E851F54F80818064FB
:1011800080838881DF91CF911F910895CF93CFB74E
:10119000F89480912608811127C0E8E0FCE0849152
:1011A000E8EAFBE09491E82FF0E0EE0FFF1FE75A2A
:1011B000F44FA591B491EC91E92321F461E085E32A
:1011C0000E94D40761E085E30E9441088CB58061EC
:1011D0008CBD8CB580648CBD61E084E30E944108C5
:1011E00061E083E30E944108809126088F5F80932D
:1011F0002608CFBFCF9108953FB7F894809172072A
:1012000090917307A0917407B091750726B5A89BBC
:1012100005C02F3F19F00196A11DB11D3FBFBA2F88
:10122000A92F982F8827BC01CD01620F711D811D48
:10123000911D42E0660F771F881F991F4A95D1F7CD
:101240000895CF92DF92EF92FF920F931F93CF9367
:10125000DF93D0912F0881E0D13208F09CC0C0917B
:1012600031080E94FC086B017C018091000881110B
:101270006CC082E08093000881E0809302088FEFC9
:101280008093FF0710922408D0932308A6E7B7E0C5
:10129000E3E0F8E080E0D8138DC01092250880913B
:1012A0002508CC0FC82BC0932508809101088130F8
:1012B00009F084C0109201080E94FC086B017C01B7
:1012C000809125088093BB008091B7079091B80763
:1012D000A091B907B091BA07892B8A2B8B2BA1F06B
:1012E0000E94FC080091B7071091B8072091B90738
:1012F0003091BA076C197D098E099F0906171707E7
:101300002807390708F442C08091BC0083FDD8CF7C
:1013100085EC8093BC000E94FC086B017C018091ED
:101320000008823009F44CC08091FF078F3F09F418
:1013300069C08091FF07803209F466C08091FF0781
:10134000803309F463C084E026C08091B707909190
:10135000B807A091B907B091BA07892B8A2B8B2BBC
:1013600009F483CF0E94FC080091B7071091B807D9
:101370002091B9073091BA076C197D098E099F0930
:10138000061717072807390708F06FCF8091B607AF
:101390000E94200885E01092300810922F081092C9
:1013A0003208DF91CF911F910F91FF90EF90DF9066
:1013B000CF9008959D9191938F5F6DCF85EEA9CFCA
:1013C0008091B7079091B807A091B907B091BA077B
:1013D000892B8A2B8B2B09F4A2CF0E94FC08009149
:1013E000B7071091B8072091B9073091BA076C1967
:1013F0007D098E099F09061717072807390708F086
:101400008ECFC4CF80E0C7CF82E0C5CF83E0C3CF0B
:101410000F931F93CF93DF93162F072FCDEEDBE0B3
:10142000AA85BB859C8521E02093320890933108E2
:101430001092300810922F08ED91FC9111970190B5
:10144000F081E02D682FCD0119958A859B85DC01FF
:10145000ED91FC910190F081E02D602F19958A8526
:101460009B85DC01ED91FC910190F081E02D612FD5
:1014700019958A859B85DF91CF911F910F910C94CF
:1014800021098F929F92AF92BF92CF92DF92EF92FB
:10149000FF924B015C010E94FC086B017C010E94E1
:1014A000FC086C197D098E099F09683E734081050F
:1014B0009105A8F321E0821A9108A108B10888EEED
:1014C000C80E83E0D81EE11CF11C81149104A10414
:1014D000B10429F7FF90EF90DF90CF90BF90AF90CD
:1014E0009F908F900895AF92BF92CF92DF92EF922C
:1014F000FF920F931F93CF93DF936C017B018B01BE
:10150000040F151FEB015E01AE18BF08C017D1070D
:1015100059F06991D601ED91FC910190F081E02D97
:10152000C6011995892B79F7C501DF91CF911F91DC
:101530000F91FF90EF90DF90CF90BF90AF90089504
:10154000FC01A089B1898C91A689B78982FD0FC061
:101550009C91818D8F5F8F73228D821749F0A18DB1
:10156000AE0FBF2FB11D5D969C93818F08958C9116
:101570000895FC01538D448D252F30E0842F90E099
:10158000821B930B541710F0CF960895019708957E
:10159000FC01918D828D981761F0A28DAE0FBF2F47
:1015A000B11D5D968C91928D9F5F9F73928F90E09D
:1015B00008958FEF9FEF0895FC01918D828D98170C
:1015C00031F0828DE80FF11D858D90E008958FEF49
:1015D0009FEF0895FC01918D228D892F90E0805C12
:1015E0009F4F821B91098F73992708958FE398E08D
:1015F0000E94EA0A21E0892B09F420E0822F089555
:101600008CED98E00E94EA0A21E0892B09F420E0A1
:10161000822F089589E799E00E94EA0A21E0892B48
:1016200009F420E0822F0895FC01A48DA80FB92FA2
:10163000B11DA35ABF4F2C91848D90E001968F73FA
:101640009927848FA689B7892C93A089B1898C9119
:10165000837080648C93938D848D981306C0028868
:10166000F389E02D80818F7D80830895EF92FF9232
:101670000F931F93CF93DF93EC0181E0888F9B8DB5
:101680008C8D98131AC0E889F989808185FF15C06F
:101690009FB7F894EE89FF896083E889F989808192
:1016A0008370806480839FBF81E090E0DF91CF9161
:1016B0001F910F91FF90EF900895F62E0B8D10E083
:1016C0000F5F1F4F0F731127E02E8C8D8E110CC0F2
:1016D0000FB607FCFACFE889F989808185FFF5CF3D
:1016E000CE010E94140BF1CFEB8DEC0FFD2FF11DFD
:1016F000E35AFF4FF0829FB7F8940B8FEA89FB897A
:1017000080818062CFCFCF93DF93EC01888D8823D7
:10171000B9F0AA89BB89E889F9898C9185FD03C054
:10172000808186FD0DC00FB607FCF7CF8C9185FF39
:10173000F2CF808185FFEDCFCE010E94140BE9CF5F
:10174000DF91CF910895F0E0E0E0199480E090E01F
:10175000892B29F00E940A0B81110E94000080E071
:1017600090E0892B49F080E090E0892B29F00E94DD
:10177000000081110E9400000E94000B81110E9454
:10178000A30B80E090E0892B29F00E94F60A8111DA
:101790000C940000089581110CC0611105C0442310
:1017A000A1F087E090E00895442391F085E090E077
:1017B0000895611105C0442371F083E090E008951D
:1017C000442361F081E090E0089588E090E008957E
:1017D00086E090E0089584E090E0089582E090E053
:1017E00008950F931F93CF93DF93EC018E8982307E
:1017F00009F453C0833009F4ACC0813009F05CC0F7
:10180000EC81FD81E41BF50BAF01421B530B77FD0F
:101810003FC08E819F8168177907D4F557FF04C0B8
:10182000240F351F50E040E08C819D81FA01E20FCA
:10183000F31F8E179F071CF49C01241B350B1216F7
:10184000130634F5FB0177FD3796A3E0F595E79590
:10185000AA95E1F7F695FE2FEE27F795E795E40FA9
:10186000F51FEF5FFD4F6770772781E090E001C0C3
:10187000880F6A95EAF7482F0130110509F472C004
:1018800008F47CC02E0F3F1F0230110509F483C0FD
:10189000DF91CF911F910F910895AC81BD81CD0152
:1018A000861B970BBC0161507109EE81FF81E41B1F
:1018B000F50BAF01421B530B77FDEACF8C819D8165
:1018C000681779072CF757FF04C0240F351F50E025
:1018D00040E08E819F81FA01E20FF31F8E179F0770
:1018E0001CF49C01241B350B121613068CF6922F48
:1018F000A42FA695A695A69580E8A89FD0011124AF
:10190000A60FB71FAF5FBD4F477009F457C058E02F
:10191000541B452F652F70E0FB01E95EF94F808174
:10192000251708F0B0C0621B71092FEF30E002C02C
:10193000359527956A95E2F7822301301105A9F1C3
:1019400008F464C00230110509F0A2CF2C9182275F
:101950002EC0AE81BF81CD01861B970BBC016150AB
:10196000710955CF2E0F3F1FE217F30709F490CFEF
:101970008191DF011197842B8C93F6CF80952E0FE8
:101980003F1FE217F30709F483CF9191DF0111970D
:1019900098239C93F6CFE217F30709F479CF81914E
:1019A000DF01119784278C93F6CF2C91822B8C9397
:1019B000941708F46DCF941BA058BF4F983008F4CB
:1019C00047C00230110531F5FD01892F2081209596
:1019D0002083E058FF4F88508830C0F728EF290F48
:1019E00026952695269530E02F5F3F4F3695322F6E
:1019F000222737952795A20FB31F977009F448CF78
:101A0000E92FF0E0E15FF94F808132C080952C91A1
:101A10008223CDCF81E00130110509F080E081956E
:101A2000FD01292F8083E058FF4F28502830D0F740
:101A300028EF290F26952695269530E02F5F3F4FFA
:101A40003695322F222737952795A20FB31F97700F
:101A5000992309F41DCFE92FF0E0E15FF94F808170
:101A60000130110541F058F00230110509F010CF96
:101A70009C91892702C09C91892B8C9309CF8095DA
:101A80009C918923FACF0130110509F48ECF08F417
:101A9000BDCF0230110509F459CF8DCF0F931F939D
:101AA000CF93DF93EC018E89823009F45EC08330DE
:101AB00009F4B5C0813009F067C0AC81BD81CD01AA
:101AC000841B950BAC014150510957FD49C08C81D5
:101AD0009D81481759070CF043C077FF04C0260FBB
:101AE000371F70E060E08E819F81FB01E20FF31FE2
:101AF0008E179F071CF49C01261B370B121613062A
:101B00007CF5922FA62FA695A695A69580E8A89F6E
:101B1000D0011124A40FB51FAF5FBD4F677009F44A
:101B20008FC048E0461B642F70E0FB01E95EF94F6F
:101B30008081241708F002C1621B71092FEF30E089
:101B400002C0359527956A95E2F782230130110589
:101B500009F46DC008F49CC00230110509F4F8C006
:101B6000DF91CF911F910F910895EC81FD81E61BCC
:101B7000F70BAE81BF81CD01841B950BAC014150A9
:101B80005109BF01621B730B57FDEACF8E819F8104
:101B9000481759072CF777FF04C0260F371F70E04E
:101BA00060E08C819D81FB01E20FF31F8E179F0780
:101BB0001CF49C01261B370B121613068CF6FA0137
:101BC00057FD379693E0F595E7959A95E1F7F695E9
:101BD000FE2FEE27F795E795E60FF71FEF5FFD4F16
:101BE0004770552781E090E001C0880F4A95EAF7D9
:101BF000482F0130110509F488C008F492C02E0F57
:101C00003F1F0230110509F0ABCFE217F30709F4CB
:101C1000A7CF8191DF01119784278C93F6CFEE81B6
:101C2000FF81E61BF70BBF01621B730B4ECF2C919C
:101C3000822B8C93941708F493CF941BA058BF4F1A
:101C4000983008F447C00230110531F5FD01892FA5
:101C5000208120952083E058FF4F88508830C0F7BE
:101C600028EF290F26952695269530E02F5F3F4FC8
:101C70003695322F222737952795A20FB31F9770DD
:101C800009F46ECFE92FF0E0E15FF94F808132C0B7
:101C900080952C918223CDCF81E00130110509F090
:101CA00080E08195FD01292F8083E058FF4F285067
:101CB0002830D0F728EF290F26952695269530E075
:101CC0002F5F3F4F3695322F222737952795A20F4A
:101CD000B31F9770992309F443CFE92FF0E0E15F38
:101CE000F94F80810130110541F058F002301105A3
:101CF00009F036CF9C91892702C09C91892B8C9347
:101D00002FCF80959C918923FACF2E0F3F1FE2178A
:101D1000F30709F425CF8191DF011197842B8C9370
:101D2000F6CF80952E0F3F1F2E173F0709F418CFCF
:101D30009191DF01119798239C93F6CF0130110503
:101D400009F475CF08F4A4CF0230110509F075CF5E
:101D50002C9182276ECFDC0177FD67C018968D919C
:101D60009C911997681779070CF05FC057FD5DC00B
:101D70001A968D919C911B97481759070CF055C0E6
:101D800056968C9156978230B9F0833041F181306C
:101D900049F414968D919C91841B950BAB01BC0169
:101DA000615071092130310521F108F43FC0223022
:101DB000310509F458C008951496ED91FC911597DA
:101DC000E61BF70BBF016150710916968D919C912E
:101DD000FC01E41BF50BAF0141505109E3CF16960E
:101DE0008D919C91861B970BBA01AC014150510912
:101DF000D9CFFA0157FD3796A3E0F595E795AA9557
:101E0000E1F7F695FE2FEE27F795E795E60FF71F1A
:101E1000EF5FFD4F4770552721E030E001C0220FF2
:101E20004A95EAF78081822B80830895FA0157FD55
:101E3000379623E0F595E7952A95E1F7F695FE2F7D
:101E4000EE27F795E795E60FF71FEF5FFD4F477019
:101E5000552781E090E001C0880F4A95EAF7809508
:101E600090818923E1CFFA0157FD379683E0F595FC
:101E7000E7958A95E1F7F695FE2FEE27F795E7951A
:101E8000E60FF71FEF5FFD4F4770552721E030E069
:101E900001C0220F4A95EAF780818227C5CF0895B5
:101EA000FC016370668B8481958126813781613066
:101EB00039F0633029F0918780873387228708952E
:101EC000318720879387828708952F923F924F9280
:101ED0005F926F927F928F929F92AF92BF92CF92BA
:101EE000DF92EF92FF920F931F93CF93DF93CDB7C3
:101EF000DEB76A970FB6F894DEBF0FBECDBF9A8FDC
:101F0000898F7A8369834A01D22E18870F8337011C
:101F1000BC2CDC0159962D913C915A972115310525
:101F200009F015C118968D919C911997681779073A
:101F30000CF0D7C11A968D919C91481759070CF057
:101F4000D0C14C2C512CB6E0CB9E600D711D1124DC
:101F50007C876B87161617060CF0C3C1EA2DF0E0DC
:101F6000FA87E98793E0EE0FFF1F9A95E1F7F88B68
:101F7000EF87CF01840F951F181619060CF0B1C119
:101F8000A98DBA8D58968C91811104C0BFEABD15F8
:101F900008F4D394A98DBA8DED91FC911197028428
:101FA000F385E02DCD011995B5E0DB9EC00111242C
:101FB000E981FA81FC83EB83312C212C9C01285090
:101FC0003E4F388F2F8B4A2D50E05E8B4D8BEF8923
:101FD000F88DE20DF31D44919E828D82D12CC12C8F
:101FE00069817A81620D731D7A8B698B842F90E0F1
:101FF0009C8B8B8BE98DFA8DA081B18140FF82C0D3
:10200000F1E0BF126FC0AF126DC01C96ED91FC9154
:102010002F813885A4014C0D5D1D69897A89898DD0
:102020009A8D1995EB89FC89F595E7954E2F5FEF11
:10203000C51AD50A6D817E818D899E89680F791FA9
:102040007E836D8398E0C916D10481F6AFEF2A1A1A
:102050003A0AEB81FC81E40DF51DFC83EB83F5E08E
:102060002F16310409F0B3CF2F8138852615370597
:10207000B9F0A98DBA8DED91FC91B1E0BB1257C0BA
:10208000AB1255C069817A816B5F7F4F0088F189FF
:10209000E02D830128E030E0A401898D9A8D199507
:1020A000A98DBA8DED91FC9111970688F789E02DE5
:1020B000CD016A960FB6F894DEBF0FBECDBFDF919B
:1020C000CF911F910F91FF90EF90DF90CF90BF9035
:1020D000AF909F908F907F906F905F904F903F90C8
:1020E0002F9019941E96ED91FC91EF80F88409854C
:1020F0001A8592014D815E816B817C81898D9A8DDB
:10210000199590CF2F8138852615370509F48ACF88
:1021100031E0B31207C0A31205C01C96ED91FC91EB
:10212000930178CF1E96ED91FC917301E0CF6B8502
:102130007C85641975090684F785E02D73010F8588
:1021400018899201A401898D9A8D1995A9CFF90159
:1021500034969491329745915491D91AB7E0DB9E09
:10216000400D511D1124F901259134913C8B2B8B8D
:10217000FA0125903490FA01329674903196349198
:10218000398B329664903196449041E04C1518F0AA
:102190004A1508F07FC0662D062C000C770B7C8357
:1021A0006B83842D042C000C990B9E838D83A98D49
:1021B000BA8DED91FC9111970284F385E02DCD014C
:1021C0001995512CD12CC12CEA2DF0E0FA87E98722
:1021D0002B2D30E03C872B87A401440D511D47FC7B
:1021E0005A95588F4F8B69817A81660D711D67FCF6
:1021F0007A957E876D877989C71608F051CF2C2D87
:1022000030E04D815E81420F531FA985BA854A9FF8
:10221000C0014B9F900D5A9F900D1124FC01E80DB9
:10222000F91DF88BEF87852D612C4F89588D420F52
:10223000531F5E8B4D8B671408F050C044244394A9
:10224000480E877041F4C1010196EB89FC89E20DCB
:10225000F31DD4901C01D7FE19C0A98DBA8DED9144
:10226000FC91662D70E0B1E0BB1219C0AB1217C033
:102270002D853E85620F731F0484F585E02D2F8127
:1022800038854D895E89898D9A8D1995DD0C639409
:10229000842DD1CF1E821D821C821B8288CF4B8150
:1022A0005C81640F751FAB85BC856A9FC0016B9F05
:1022B000900D7A9F900D112469817A81680F791FA2
:1022C0000684F785E02DEF80F88409851A859D0145
:1022D0004F855889898D9A8D1995D8CF570CC394FD
:1022E0008ACF6A960FB6F894DEBF0FBECDBFDF91DE
:1022F000CF911F910F91FF90EF90DF90CF90BF9003
:10230000AF909F908F907F906F905F904F903F9095
:102310002F9008958F929F92AF92CF92EF92FF925B
:102320000F931F93CF93DF93EC01262F898D9A8D06
:10233000009709F051C06A30D1F41D861C868D8942
:1023400048E0849F900111248E859F85820F931F02
:102350009F878E8781E090E0DF91CF911F910F9151
:10236000FF90EF90CF90AF909F908F9008956D3039
:1023700089F3CC88AD888F898823C1F08C859D85B1
:1023800036E0C39E800D911D11244885598548175C
:10239000590764F44E855F851D861C8638E0A39E30
:1023A000C0011124840F951F9F878E87EA88FB88C0
:1023B000088919894E855F856C857D85CE010E94CF
:1023C000650F2C898C859D8546E0249F800D911D8D
:1023D00011249D878C87BECF6A3069F41D861C86C8
:1023E000FC013896E4912D898E859F85E29F800DB2
:1023F000911D1124ADCF6D3009F4ACCFFC013496A2
:102400003491631708F4A6CF3296E491E61708F4E6
:10241000A1CFFC01329685909490462F431B342F18
:1024200047E0349F800C911C1124F40132963491C2
:102430003196E4913323A9F1EE2399F1CC88F4018C
:102440003596E491AD884F89442301F10E2E000C9E
:10245000FF0BE30FF11DCE9EA001CF9E500D112466
:102460006C857D85460F571F6885798564177507CC
:102470006CF44E855F851D861C86FC013896E491C0
:10248000AE9E400D511D11245F874E87EA88FB8860
:10249000088919894E855F856C857D85CE010E94EE
:1024A000650FF4013496E4912C898C859D85E29F1B
:1024B000800D911D11248DCF6F927F928F929F92EC
:1024C000AF92BF92CF92DF92EF92FF920F931F9342
:1024D000CF93DF93EC016B015A0139014801E88188
:1024E000F9810284F385E02D1995E881F98102884C
:1024F000F389E02D87019301A501B601CE0119955D
:10250000A501480D591D41505109E881F981028802
:10251000F389E02D9301B601CE011995E881F98187
:102520000088F189E02D9401A501B601CE0119952D
:10253000C60CD71CB60161507109E881F981008889
:10254000F189E02D9401A501CE011995E881F98169
:102550000688F789E02DCE01DF91CF911F910F9171
:10256000FF90EF90DF90CF90BF90AF909F908F90B3
:102570007F906F9019946F927F928F929F92AF92FB
:10258000BF92CF92DF92EF92FF920F931F93CF9360
:10259000DF935C01EB016A01490138018701DC012D
:1025A000ED91FC916217730719F5641675062CF00E
:1025B000962D872D3A01C92ED82E96012619370956
:1025C0002F5F3F4F048CF58DE02DA301BE01C501A7
:1025D0001995DF91CF911F910F91FF90EF90DF90B0
:1025E000CF90BF90AF909F908F907F906F90089505
:1025F0004615570591F42617370724F0892D4B010E
:10260000C22FD82F9E01281939092F5F3F4F068C02
:10261000F78DE02DA601B401DACF0284F385E02D19
:102620001995D501ED91FC910488F589E02D830180
:102630009401A601BE01C5011995D501ED91FC914A
:102640000688F789E02DC501DF91CF911F910F9189
:10265000FF90EF90DF90CF90BF90AF909F908F90C2
:102660007F906F901994EF92FF920F931F93DC016C
:102670001A960D911C911B9718962D913C911997C4
:10268000ED91FC9100A0F1A1E02D7B0150E040E034
:1026900070E060E019951F910F91FF90EF90089501
:1026A0004F925F926F927F928F929F92AF92BF9262
:1026B000CF92DF92EF92FF920F931F93CF93DF930E
:1026C0006C012B015A0139014801DC01ED91FC91AB
:1026D0000284F385E02D1995E201640C751CD60186
:1026E000ED91FC91C615D7055CF40088F189E02DC9
:1026F00087019401A501BE01C60119952196EFCF6E
:102700000688F789E02DC601DF91CF911F910F91C7
:10271000FF90EF90DF90CF90BF90AF909F908F9001
:102720007F906F905F904F9019948F929F92AF928D
:10273000BF92CF92DF92EF92FF920F931F93CF93AE
:10274000DF93EC015B014A016901E881F9810284B0
:10275000F385E02D199595012C0D3D1D2150310972
:10276000E881F9810488F589E02D78018401A401CC
:10277000B501CE011995E881F9810688F789E02D28
:10278000CE01DF91CF911F910F91FF90EF90DF90DD
:10279000CF90BF90AF909F908F9019948F929F92FF
:1027A000AF92BF92CF92DF92EF92FF920F931F935F
:1027B000CF93DF93EC015B014A0169017801E88165
:1027C000F9810284F385E02D1995C80CD91C860186
:1027D00001501109E881F9810488F589E02D9501FE
:1027E000A401B501CE011995E881F9810688F78920
:1027F000E02DCE01DF91CF911F910F91FF90EF90CF
:10280000DF90CF90BF90AF909F908F901994EF92F0
:10281000FF920F931F93DC01ED91FC9100A0F1A1B9
:10282000E02D19951F910F91FF90EF9008950F9350
:102830001F93DC01ED91FC91068CF78DE02D19952D
:102840001F910F9108950F931F93DC01ED91FC915F
:10285000048CF58DE02D19951F910F910895DC01E1
:10286000ED91FC910084F185E02D19942F923F9217
:102870004F925F926F927F928F929F92AF92BF9290
:10288000CF92DF92EF92FF920F931F93CF93DF933C
:1028900000D000D0CDB7DEB73C016A013E832D8366
:1028A000FC82EB825801A41AB50AB7FE03C0B194AA
:1028B000A194B1088D809E80861A970A97FE03C066
:1028C0009194819491088A149B045CF0902F812F3D
:1028D0000D811E819D838E839C2D8D2D6B01692F13
:1028E000782F0C151D055CF09D818E817E836D8394
:1028F000692F782F902F812F8601C92ED82E16018F
:10290000201A310A2B012D813E81421A530A57FEAB
:1029100003C0519441945108710137FE03C03FEF49
:10292000E31AF30AF594E7948D819E818617970741
:102930005CF5A1E0B0E0BA83A983C016D1064CF1E2
:10294000D301ED91FC910484F585E02D2B813C8130
:10295000A8016D817E818A149B041CF04D815E81EB
:10296000B801C3011995E418F508F7FE0AC02D81D6
:102970003E8189819A81280F391F3E832D83E20C85
:10298000F31C0F5F1F4FD9CF2FEF3FEF3A832983FF
:10299000D4CF26960FB6F894DEBF0FBECDBFDF9121
:1029A000CF911F910F91FF90EF90DF90CF90BF904C
:1029B000AF909F908F907F906F905F904F903F90DF
:1029C0002F9008958F929F92AF92BF92CF92DF92F5
:1029D000EF92FF920F931F93CF93DF93EC016A0165
:1029E0007B0120E030E04FE753E4CB01B6010E94C9
:1029F00048264B015C0120E030E0A9010E94182824
:102A000018168CF5C501B4010E94E2278B01B9802C
:102A100020E030E0A901C701B6010E94182860E05B
:102A200018160CF061E08B2D0E94D4070F3F1105A2
:102A300009F0ECF41127C88161E08C2F0E94410855
:102A400001151105B9F460E08C2FDF91CF911F9132
:102A50000F91FF90EF90DF90CF90BF90AF909F903D
:102A60008F900C94D407C501B4019058CDCF0FEFCF
:102A700010E0E1CF0F3F110511F461E0E5CFEC2F3D
:102A8000F0E0ED5EF44FE491E150E23108F0BCC0BB
:102A9000F0E08827E15BFA4E8F4F0C946D276115AB
:102AA0007215771581158B15041695159D15A515AD
:102AB000AF15B915C315D215DC150416E615F015BA
:102AC000FA1584B5806884BD07BDDF91CF911F9151
:102AD0000F91FF90EF90DF90CF90BF90AF909F90BD
:102AE0008F90089584B5806284BD08BDEECF80913B
:102AF0008000806880938000109389000093880094
:102B0000E4CF8091800080628093800010938B00DE
:102B100000938A00DACF80918000886080938000E3
:102B200010938D0000938C00D0CF8091B00080680E
:102B30008093B0000093B300C8CF8091B000806252
:102B40008093B0000093B400C0CF80919000806863
:102B5000809390001093990000939800B6CF8091D5
:102B6000900080628093900010939B0000939A00E5
:102B7000ACCF8091900088608093900010939D006E
:102B800000939C00A2CF8091A00080688093A00059
:102B90008091A0008F7B8093A0001093A9000093E8
:102BA000A80093CF8091A00080628093A000109332
:102BB000AB000093AA0089CF8091A0008860809329
:102BC000A0001093AD000093AC007FCF8091200156
:102BD000806880932001109329010093280175CF0C
:102BE0008091200180628093200110932B0100933B
:102BF0002A016BCF8091200188608093200110937F
:102C00002D0100932C0161CF003811050CF035CF58
:102C10001ACF8EBD00000DB407FEFDCF8EB508950E
:102C2000CF93C82F8091410C8F3F99F1E0914B0CCD
:102C3000F0914C0C80819091510C892B8083E09114
:102C40004D0CF0914E0C90818091520C809589230F
:102C50008083E0914B0CF0914C0C90818091510C51
:102C60008095892380838091460C882371F08C2F76
:102C70000E940916E0914B0CF0914C0C80819091D0
:102C8000510C892B8083CF9108958C2F0E946A0666
:102C9000F1CF80913F0C91E09093320880933108FE
:102CA0001092300810922F0860E083E398E00E94B1
:102CB00015076C2F83E398E00E94150783E398E0E3
:102CC000CF910C9421098F929F92AF92BF92CF9295
:102CD000DF92EF92FF920F931F93CF93DF9380E0E9
:102CE0000E94101680E10E94101680E40E941016C7
:102CF0008091410C8F3F09F466C030EBF32ED0E099
:102D0000C0E08F2D0E94101682E00E94101680E114
:102D10000E94101610E000E0CE018F5F9D4F6C0105
:102D2000E0914B0CF0914C0C80819091510C892BCF
:102D30008083E0914D0CF0914E0C80819091520C6B
:102D4000892B8083E0914B0CF0914C0C9081809109
:102D5000510C8095892380835601A00EB11E20E17D
:102D6000E22EF50181915F019091460C992341F18A
:102D70000E940916EA94E110F4CFE0914B0CF09117
:102D80004C0C80819091510C892B8083005F1F4FE8
:102D90000038110529F6C058DF4FF394C115F4E04F
:102DA000DF0709F0AECFDF91CF911F910F91FF9018
:102DB000EF90DF90CF90BF90AF909F908F9008954D
:102DC0000E946A06D7CF9090B8008CE08093B8003C
:102DD00090EBF92ED0E0C0E0882483948F2D0E94E0
:102DE000101682E00E94101680E10E94101610E07A
:102DF00000E0CE018F5F9D4F5C0180913F0C80927F
:102E00003208809331081092300810922F0860E445
:102E100083E398E00E9415076501C00ED11E80E192
:102E2000E82EF60161916F0183E398E00E94150797
:102E3000EA94E110F6CF83E398E00E942109005F55
:102E40001F4F00381105C9F6C058DF4FF394C11564
:102E5000F4E0DF0719F69092B800A5CFFC012481B9
:102E600031E03093320820933108109230081092EC
:102E70002F088485682B83E398E00E94150783E37D
:102E800098E00C942109089590E080E0089582E094
:102E90008093400C8CE380933F0C8091410C8F3FDA
:102EA00009F4F7C061E08091430C0E94410861E0A1
:102EB0008091450C0E9441088091450C082E000C21
:102EC000990BFC01ED52F44FE491F0E0EE0FFF1F7F
:102ED000E754F44F2591349130934C0C20934B0CD4
:102EE000FC01ED58F44FE491E093510C8091430CB8
:102EF000082E000C990BFC01ED52F44FE491F0E028
:102F0000EE0FFF1FE754F44F2591349130934E0C90
:102F100020934D0CFC01ED58F44FE491E093520CDA
:102F20008091460C81113EC061E08091410C0E946D
:102F3000410861E08091420C0E9441088091420C5E
:102F4000082E000C990BFC01ED52F44FE491F0E0D7
:102F5000EE0FFF1FE754F44F2591349130934A0C44
:102F60002093490CFC01ED58F44FE491E093500C90
:102F70008091410C082E000C990BFC01ED52F44F8E
:102F8000E491F0E0EE0FFF1FE754F44F25913491E8
:102F90003093480C2093470CFC01ED58F44FE4911A
:102FA000E0934F0C8091460C882341F00E94C608A4
:102FB0008CB58C7F8CBD8DB581608DBD61E08091BD
:102FC000440C0E94410861E08091440C0E94D407A7
:102FD00061E070E080E090E00E94410A60E0809152
:102FE000440C0E94D4076AE070E080E090E00E9408
:102FF000410A61E08091440C0E94D4078EEA0E944D
:10300000101685ED0E94101680E80E94101688EABE
:103010000E9410168FE30E94101683ED0E94101676
:1030200080E00E94101680E40E9410168DE80E9435
:10303000101684E10E94101680E20E94101680E0B3
:103040000E94101681EA0E94101688EC0E94101649
:103050008AED0E94101682E10E94101681E80E94FB
:1030600010168FEC0E94101689ED0E94101681EF49
:103070000E9410168BED0E94101680E40E9410161C
:1030800084EA0E94101686EA0E9410168FEA0C94B9
:10309000101610922E0810922D08109230081092DF
:1030A0002F080E94020885E996E090932C088093EF
:1030B0002B0886E996E090932A08809329087ECF12
:1030C0000F931F93CF938C01C62F64600E942E171D
:1030D0006C2F6B7FC8010E942E1783EC90E0019744
:1030E000F1F7CF911F910F9108950F931F93CF93F5
:1030F000DF938C01C62FD62FD07FD1606D2F0E9419
:103100002E176D2FC8010E94601880E1C89FE00152
:103110001124C1606C2FC8010E942E176C2FC801AA
:103120000E94601881E090E0DF91CF911F910F9194
:103130000895FB0101900020E9F73197AF01461B8C
:10314000570BDC01ED91FC910280F381E02D199485
:103150008F929F92AF92BF920F931F93CF93DF9363
:10316000CDB7DEB7A1970FB6F894DEBF0FBECDBFC7
:1031700019A2423008F44AE08E010F5D1F4F842EE1
:10318000912CB12CA12CA50194010E943027E62F8F
:10319000B901CA01EA3004F5E05DD801EE938D0172
:1031A000232B242B252B79F790E080E0109729F032
:1031B000BD0189E799E00E949918A1960FB6F8948D
:1031C000DEBF0FBECDBFDF91CF911F910F91BF909A
:1031D000AF909F908F900895E95CDFCFCF92DF9200
:1031E000EF92FF92CF93DF936B017C016DE289E751
:1031F00099E00E94360BEC0166277727CB016C190A
:103200007D098E099F094AE00E94A8188C0F9D1F16
:10321000DF91CF91FF90EF90DF90CF900895BC01A8
:10322000990F880B990B97FD0C94EE184AE00C94BB
:10323000A818CF93DF93BC0189E799E00E94991801
:10324000EC016BE776E089E799E00E9499188C0F12
:103250009D1FDF91CF910895CF92DF92EF92FF9261
:10326000CF93DF939091180C891720F09091190C4F
:10327000981750F48EE796E0DF91CF91FF90EF9092
:10328000DF90CF900C941919E0911E0CEC3008F0EF
:1032900051C0282F30E0CE2FD0E095E0E99FF0011B
:1032A0001124E851F54F938178E8C72ED12CC91A23
:1032B000D10897FDD394CC0CDD1CCC0CDD1C283C34
:1032C00031050CF03EC00D2C000CEE08FF08948177
:1032D00028E532E0291B310997FD3395220F331F72
:1032E000220F331F032E000C440B550B2C193D09E4
:1032F0004E095F09A82FB0E00E94252724EB30E09B
:1033000040E050E00E940627C20ED31EE41EF51EC8
:103310008FB7F89495E09C9FF0019D9FF00D1124CC
:10332000E851F54F96E0C91AD108CC0CDD1CD282C9
:10333000C1828FBFDF91CF91FF90EF90DF90CF9050
:1033400008952C153D0524F3848148E5C42E42E000
:10335000D42EC81AD10887FDD394CC0CDD1CCC0C1C
:10336000DD1C2C153D05A4F66901D2CF0C949918EB
:10337000E1E0F2E080E094E0DF019C011D92215049
:103380003040E1F70895CF93DF93EC01833091054E
:1033900009F47DC094F48130910599F1029709F404
:1033A00058C068E873E180E090E00E94410A0E9402
:1033B000B819DF91CF910C9463168430910509F40C
:1033C00084C0059771F70E94B81982E08093380C89
:1033D0008093390C81E090E09093370C8093360C09
:1033E0009093350C8093340C1092310C1092300C69
:1033F0008DE190E09093330C8093320C6FEC76E08B
:103400001BC00E94B81981E08093380C8093390C5E
:10341000D093370CC093360CD093350CC093340C3A
:103420001092310C1092300C8DE190E09093330C9F
:103430008093320C6BE976E084E29CE00E94B6193E
:103440000E94631668EE73E080E090E00E94410AFB
:10345000A8CF0E94B81982E08093380C8093390C71
:1034600081E090E09093370C8093360C9093350C6C
:103470008093340C1092310C1092300C8DE190E05E
:103480009093330C8093320C6CEA76E0D5CF0E9497
:10349000B81982E08093380C8093390C81E090E079
:1034A0009093370C8093360C9093350C8093340CAA
:1034B0001092310C1092300C8DE190E09093330C0F
:1034C0008093320C66EB76E0B7CF0E94B81982E0A9
:1034D0008093380C8093390C81E090E09093370C06
:1034E0008093360C9093350C8093340C1092310CF1
:1034F0001092300C8DE190E09093330C8093320C5D
:1035000063EC76E099CF85ED8093BC008091B7079E
:103510009091B807A091B907B091BA070796A11D7D
:10352000B11D23E0B695A795979587952A95D1F774
:103530002091BC0024FD03C0109200080895409122
:10354000B7075091B8076091B9077091BA07452B3A
:10355000462B472B69F30097A105B10541F025E300
:103560002A95F1F700000197A109B109E1CF8091F7
:10357000B6070C9420080E94232A1F920F920FB6C0
:103580000F9211240F900FBE0F901F9018951F924D
:103590000F920FB60F9211240BB60F922F933F93F9
:1035A0004F935F936F937F938F939F93AF93BF934B
:1035B000EF93FF938091B900887F803609F44DC066
:1035C00008F040C0883209F4A9C028F5803109F418
:1035D0009DC0C8F4882309F4FBC0883009F496C064
:1035E000FF91EF91BF91AF919F918F917F916F91DB
:1035F0005F914F913F912F910F900BBE0F900FBE97
:103600000F901F901895883109F488C0803241F7D7
:103610008093FF0714C0803409F49DC040F48033C8
:10362000B9F38833E9F68093FF0785ECB0C08035A5
:1036300009F485C0883509F496C0883489F60E945B
:10364000831ACECF883909F48CC038F5883729F031
:1036500050F4883611F0803719F683E08093000823
:103660001092FE0757C0883809F47BC0803919F0E2
:10367000803809F0B5CF8091FE07803208F071C024
:10368000E091FE0781E08E0F8093FE078091BB00E2
:10369000F0E0E252F84F80833DC0803B39F0E0F427
:1036A000803A09F479C0883A09F09ACF84E080938F
:1036B00000081092DD071092DC07E0912B08F091D2
:1036C0002C0819958091DC0781110FC081E080934F
:1036D000DC071092BC0709C0803C09F4A6CF883CE7
:1036E00009F4A3CF883B09F07BCFE091DD0781E0AF
:1036F0008E0F8093DD07F0E0E454F84F80818093D3
:10370000BB009091DD078091DC0729C080912508DE
:103710008093BB0085EC8093BC0062CF909124081D
:1037200080912308981758F5E091240881E08E0FC6
:1037300080932408F0E0ED5FF74F8081E9CFE091BE
:10374000240881E08E0F809324088091BB00F0E074
:10375000ED5FF74F8083909124088091230898179C
:10376000C8F285E8D8CFE091240881E08E0F8093DD
:1037700024088091BB00F0E0ED5FF74F80838091DB
:10378000020881115CCF81E08093010884EA809374
:10379000BC001092000824CF85EC8093BC001092EE
:1037A00000088091FE07803230F4E091FE07F0E0DF
:1037B000E252F84F10826091FE0770E0E091290814
:1037C000F0912A088EED97E019951092FE0708CF28
:1037D0001092FF0734CF1F920F920FB60F92112451
:1037E0002F933F938F939F93AF93BF9380916E07D7
:1037F00090916F07A0917007B091710730916D079C
:1038000023E0230F2D3758F50196A11DB11D2093FC
:103810006D0780936E0790936F07A0937007B09326
:1038200071078091720790917307A0917407B0910E
:1038300075070196A11DB11D8093720790937307C0
:10384000A0937407B0937507BF91AF919F918F912B
:103850003F912F910F900FBE0F901F90189526E863
:10386000230F0296A11DB11DD2CF1F920F920FB64A
:103870000F9211240BB60F922F933F934F935F93A8
:103880006F937F938F939F93AF93BF93EF93FF9328
:103890008091630790916407A0916507B0916607D6
:1038A000892B8A2B8B2BD1F190916207809100009C
:1038B0008927809300008091630790916407A0910D
:1038C0006507B0916607181619061A061B069CF4C0
:1038D0008091630790916407A0916507B091660796
:1038E0000197A109B1098093630790936407A0939E
:1038F0006507B0936607FF91EF91BF91AF919F91DC
:103900008F917F916F915F914F913F912F910F9088
:103910000BBE0F900FBE0F901F9018958091000264
:10392000E8EFF6E0E4919FEF90930002E230E9F0D7
:1039300040F4EE2389F0E13091F060E00E94D4077A
:10394000DACFE43049F110F1E530B9F79091730026
:103950009D7F90937300F1CF10926E00EECF909107
:103960006F009D7F90936F00E8CF909170009D7FD6
:103970009093700091E09093B0009091B100987F87
:1039800094609093B1001092B300D7CF90917100E2
:103990009D7F90937100D1CF909172009D7F909305
:1039A0007200CBCF1F920F920FB60F9211240BB65D
:1039B0000F922F933F934F935F936F937F938F93C8
:1039C0009F93AF93BF93EF93FF938FE398E00E9491
:1039D000140BFF91EF91BF91AF919F918F917F91C8
:1039E0006F915F914F913F912F910F900BBE0F9070
:1039F0000FBE0F901F9018951F920F920FB60F9247
:103A000011240BB60F922F933F934F935F936F93B5
:103A10007F938F939F93AF93BF93EF93FF938FE326
:103A200098E00E94A00AFF91EF91BF91AF919F9102
:103A30008F917F916F915F914F913F912F910F9057
:103A40000BBE0F900FBE0F901F9018951F920F92F4
:103A50000FB60F9211240BB60F922F933F934F93F3
:103A60005F936F937F938F939F93AF93BF93EF93E6
:103A7000FF938CED98E00E94140BFF91EF91BF91A2
:103A8000AF919F918F917F916F915F914F913F91F6
:103A90002F910F900BBE0F900FBE0F901F90189597
:103AA0001F920F920FB60F9211240BB60F922F9305
:103AB0003F934F935F936F937F938F939F93AF93B6
:103AC000BF93EF93FF938CED98E00E94A00AFF91C3
:103AD000EF91BF91AF919F918F917F916F915F9186
:103AE0004F913F912F910F900BBE0F900FBE0F90F3
:103AF0001F9018951F920F920FB60F9211240BB6BC
:103B00000F922F933F934F935F936F937F938F9376
:103B10009F93AF93BF93EF93FF9389E799E00E9440
:103B2000140BFF91EF91BF91AF919F918F917F9176
:103B30006F915F914F913F912F910F900BBE0F901E
:103B40000FBE0F901F9018951F920F920FB60F92F5
:103B500011240BB60F922F933F934F935F936F9364
:103B60007F938F939F93AF93BF93EF93FF9389E7D7
:103B700099E00E94A00AFF91EF91BF91AF919F91B0
:103B80008F917F916F915F914F913F912F910F9006
:103B90000BBE0F900FBE0F901F9018951F920F92A3
:103BA0000FB60F9211240BB60F922F933F934F93A2
:103BB0005F936F937F938F939F93AF93BF93EF9395
:103BC000FF938091170A0E94AB0720911B0A309146
:103BD0001C0A2F5F3F4F30931C0A20931B0A9091C1
:103BE0001A0A953618F096E09093160A9091160AE4
:103BF000943009F466C0B8F49230F1F0933009F4CF
:103C000044C09091190A992309F46BC081117CC0BA
:103C10008091180A882309F463C08091180A61E032
:103C20000E94D4075EC0953009F457C0963049F71A
:103C300091E09093E70A4FC08111E3CF20911B0AD6
:103C400030911C0A2436310528F410921C0A109277
:103C50001B0AD7CF1092E70A10921A0AE0911A0AAB
:103C600091E09E0F90931A0AF0E020911B0A309188
:103C70001C0AEE0FFF1FEA5EF54F30872783109274
:103C80001C0A10921B0A93E019C0813009F0B9CFC9
:103C9000E0911A0A91E09E0F90931A0AF0E02091A9
:103CA0001B0A30911C0AEE0FFF1FEA5EF54F3087AA
:103CB000278310921C0A10921B0A94E09093160A14
:103CC000A0CF882359F220911B0A30911C0A253677
:103CD000310508F496CF95E0F1CF811192CFB5CFA1
:103CE0002F9AFF91EF91BF91AF919F918F917F910B
:103CF0006F915F914F913F912F910F900BBE0F905D
:103D00000FBE0F901F9018958091180A882321F0FC
:103D10008091180A60E084CF2F98E3CF1F920F9212
:103D20000FB60F9211240BB60F922F933F934F9320
:103D30005F936F937F938F939F93AF93BF93CF9333
:103D4000DF93EF93FF9380916107C091240BD0E044
:103D500087FF23C010928500109284008091610734
:103D60008F5F8093610780916107082E000C990B8B
:103D70008C179D0724F4809161078C3074F1809139
:103D800084009091850084349C4908F465C080913A
:103D9000840090918500049661C080916107082E8F
:103DA000000C990B8C179D07CCF63091610725E02C
:103DB0003203F0011124E851F54F808186FFCECF08
:103DC000309161073203F0011124E851F54F8081F1
:103DD00060E08F730E94D407C1CF809184009091DE
:103DE00085003091610725E03203F0011124E8518C
:103DF000F54F41815281840F951F909389008093E4
:103E00008800309161073203F0011124E851F54F29
:103E1000808186FF0CC0309161073203F0011124CC
:103E2000E851F54F808161E08F730E94D407FF91C4
:103E3000EF91DF91CF91BF91AF919F918F917F9142
:103E40006F915F914F913F912F910F900BBE0F900B
:103E50000FBE0F901F90189580E49CE99093890005
:103E6000809388008FEF80936107E1CF109236082E
:103E70001092350888EE93E0A0E0B0E08093370818
:103E800090933808A0933908B0933A0823E236E0BB
:103E9000309334082093330810924208109241085E
:103EA0008093430890934408A0934508B093460834
:103EB00025E336E03093400820933F0845E351E086
:103EC00050934C0840934B0844E351E050934E0804
:103ED00040934D0840E351E05093500840934F0801
:103EE00041E351E0509352084093510842E351E0BE
:103EF000509354084093530846E351E050935608BA
:103F000040935508109258081092590810925A0878
:103F100010925B081092DF081092DE088093E00890
:103F20009093E108A093E208B093E3083093DD0892
:103F30002093DC0845ED50E05093E9084093E808F1
:103F400044ED50E05093EB084093EA0840ED50E018
:103F50005093ED084093EC0841ED50E05093EF088A
:103F60004093EE0842ED50E05093F1084093F00882
:103F700046ED50E05093F3084093F2081092F50894
:103F80001092F6081092F7081092F80810927C0927
:103F900010927B0980937D0990937E09A0937F09FD
:103FA000B093800930937A092093790985EC90E0E9
:103FB000909386098093850984EC90E0909388091A
:103FC0008093870980EC90E090938A098093890917
:103FD00081EC90E090938C0980938B0982EC90E0C7
:103FE00090938E0980938D0986EC90E090939009D0
:103FF00080938F091092920910929309109294095C
:10400000109295098091070690910806A0910906E3
:10401000B0910A0680930E0C90930F0CA093100C95
:10402000B093110C80910B0690910C06A0910D0697
:10403000B0910E068093120C9093130CA093140C65
:10404000B093150C84E08093160C87E08093170CD6
:104050001092180C84EB8093190C86E180931A0C53
:1040600088E180931B0C87E180931C0C89E180938D
:104070001D0CE091240BEC3008F4ABC08FEF809363
:104080001E0CE091240BEC3008F4B4C08FEF809349
:104090001F0C8CE08093ED0B84E28093EE0B86E0A6
:1040A0008093EF0B85E08093F00B8FE18093F10B11
:1040B0008EE18093F20B83E28093F30B82E2809394
:1040C000F40B85E48093F50B84E48093F60B80E495
:1040D0008093F90B1092FE0B1092FF0B1092000CC4
:1040E0001092010C1092020C1092030C1092040C0E
:1040F0001092050CEFE2FBE08FEF9FEFDC011282E4
:104100001382148215821682178210861186838785
:104110009487A587B6878787908BA18BB28B1286F1
:104120001182108273962BE0ED3EF20741F78DE08D
:1041300090E00E941D28FC011382128287E496E021
:1041400091838083118687E2848384E1828784E07F
:1041500083871486F0932C0BE0932B0B10922D0B7E
:1041600010922E0B85E28093170A1092190A109272
:10417000260B1092250B1092280B1092270B1092F1
:104180002A0B1092290B61E070E090E080E00E9421
:104190004229009709F43FC09093260B8093250B8A
:1041A0001092280B1092270B2091290B30912A0B8B
:1041B000232B11F4FC01108210922A0B1092290B70
:1041C00064E377E08091250B9091260B0E94312AC1
:1041D00036C081E08E0F8093240BE0931E0C25E007
:1041E000E29FF0011124E851F54F88EB9BE09283A8
:1041F000818347CF81E08E0F8093240BE0931F0CC7
:1042000085E0E89FF0011124E851F54F88EB9BE031
:10421000928381833ECF8091250B9091260B00974E
:1042200011F00E94B9281092260B1092250B1092C3
:104230002A0B1092290B1092280B1092270B109228
:10424000270C1092260C20E830E03093290C2093A4
:10425000280C80E490E090932B0C80932A0C3093F0
:104260002D0C20932C0C90932F0C80932E0C1092DD
:104270003A0C1092310C1092300C1092330C1092B8
:10428000320C81E08093390C8093380C2FEF3FEF94
:104290003093370C2093360C3093350C2093340C2C
:1042A00080933B0C10923C0C10923E0C10923D0CF3
:1042B00083E596E09093250C8093240C8FEF8093F8
:1042C000410C8093450C8093430C8093420C809367
:1042D000440C0895789484B5826084BD84B581606F
:1042E00084BD85B5826085BD85B5816085BD8091C1
:1042F0006E00816080936E00109281008091810039
:104300008260809381008091810081608093810030
:10431000809180008160809380008091B1008460F2
:104320008093B1008091B00081608093B000809153
:1043300091008260809391008091910081608093D0
:104340009100809190008160809390008091A10005
:1043500082608093A1008091A10081608093A10080
:104360008091A00081608093A000809121018260F3
:1043700080932101809121018160809321018091AE
:10438000200181608093200180917A008460809375
:104390007A0080917A00826080937A0080917A001E
:1043A000816080937A0080917A00806880937A009F
:1043B0001092C1000E94420661E08091EE0B0E94C3
:1043C000410860E08091EE0B0E94D40760E080918C
:1043D000ED0B0E94410883E398E09093F80B8093E3
:1043E000F70B10922E0810922D08109230081092A0
:1043F0002F080E94020885E996E090932C0880938C
:104400002B0886E996E090932A088093290880E09B
:1044100090E1A0E0B0E08093FA0B9093FB0BA093A7
:10442000FC0BB093FD0B8AE090E0A0E0B0E080933D
:10443000FE0B9093FF0BA093000CB093010C80E057
:1044400090E0A0E0B0E48093020C9093030CA09362
:10445000040CB093050C60E070E185E00E94080A4E
:104460006FE979E380E00E94080A7FEE872E7BE007
:10447000972ECDEEDBE0E1EFCE2EEBE0DE2EFBEC77
:10448000EF2EF7E0FF2EABE8AA2EBB24B394F40185
:10449000928181914F01898F9A8F61E00E9441083A
:1044A00061E08A8D0E944108F401958183818D8F9E
:1044B0009E8F61E00E94410860E08E8D0E9441085D
:1044C00061E08D8D0E94D4070E94C608C701019744
:1044D000F1F760E08D8D0E94D40788E80E940916EC
:1044E00083E00E94091661E08D8D0E94D407C70108
:1044F0000197F1F760E08D8D0E94D40788E90E9452
:10450000091680E00E94091680E00E94091680E0EA
:104510000E94091680E00E94091661E08D8D0E94BC
:10452000D407C5010197F1F760E08D8D0E94D40793
:1045300080EE0E94091661E08D8D0E94D4072296BC
:10454000CC16DD0609F0A3CFC2E1DCE060E0899182
:104550000E944108FCE0C631DF07C1F76091160CEC
:1045600070E08EE19CE00E94720890911C0C80919A
:104570001A0C8093200C9093210C60E00E9441085B
:1045800061E08091210C0E94410860E08091210C43
:104590000E94D4076091170C70E08FE19CE00E94AC
:1045A000720890911D0C80911B0C8093220C9093AB
:1045B000230C60E00E94410861E08091230C0E947E
:1045C000410860E08091230C0E94D407F894109277
:1045D000200189E08093210180E293E090932901FA
:1045E00080932801109225011092240182E080938B
:1045F000730078948093160A10921A0A8091170A11
:1046000060E00E9441080E9442060E9447170E94F3
:10461000B8190E94631661E083E00E94410861E0DE
:1046200085E00E94410861E086E00E94410860E068
:104630008EE20E94410860E080E30E94410860E051
:1046400081E30E94410860E088E20E94410860E046
:1046500086E20E94410860E087E20E94410860E033
:104660008FE30E94410860E08AE20E94410860E016
:104670008EE30E94410860E080E40E94410861E00E
:1046800089E20E94410860E089E20E94D4076091BB
:10469000160C70E08EE19CE00E94720882EB0E9492
:1046A0002C1968EC70E080E090E00E94410A8AEDED
:1046B00096E00E941919E0911E0C85E0E89FF00138
:1046C0001124E851F54F80818F7B80830E9447172A
:1046D0000E94B819D12CC12CB12CF12CE12CD0E0C6
:1046E000C0E0CE0187709927BB0C892B59F4FE01DD
:1046F00063E0F595E7956A95E1F7EC0DFD1DE75050
:10470000F94FB490B7FE08C021E030E0A701BE0128
:1047100084E29CE00E942F142196C038D10509F74D
:10472000EFEFEE1AFE0AF0E1CF0ED11C80E4E8169E
:10473000F104A9F60E946316812C912C50E8A52E55
:104740005EE3B52E7501640187E20E94AB07EC01C0
:1047500088E20E94AB073C0186E20E94AB079C0105
:1047600041E0CD2B09F440E061E0672809F460E006
:1047700081E0232B09F480E00E94CB0BEC014090F8
:104780006B0750906C076090690770906A078130E2
:10479000910509F037C1E1E04E16510409F064C0FB
:1047A000F1E06F16710409F05FC080916707909186
:1047B0006807EE24E394F12C6FEF7FEF029729F066
:1047C00061E070E0EE24EA94FE2C072E000C880BCA
:1047D000990B0E94E92520E030E040E85EE30E946A
:1047E0004826AB01BC0186E09CE00E94E214B701C0
:1047F000FF0C880B990B0E94E92520E030E040E88F
:104800005EE30E944826AB01BC01705888E09CE042
:104810000E94E21465E070E080E090E00E94410AAE
:1048200087E20E94AB076C0188E20E94AB077C0123
:1048300086E20E94AB079C0141E0CD2809F440E0EC
:1048400061E0EF2809F460E081E0232B09F480E0C7
:104850000E94CB0B0197F1F2812C912C20E8A22E23
:104860002EE3B22E750164017092680760926707AB
:1048700050926A0740926907D0936C07C0936B0708
:10488000B701A60186E09CE00E94E214B501A401F4
:10489000705888E09CE00E94E2148EE20E94AB0710
:1048A000EC01BC01990F880B990B97FFF2C00E9495
:1048B000EE18CD2B09F448CF40E050E0BA0186E075
:1048C0009CE00E94E21440E050E060E070E888E084
:1048D0009CE00E94E21464E670E080E090E00E94B8
:1048E000410A8AE20E94AB07019709F4D6C08CE224
:1048F0000E94AB07EC010197A1F764E670E080E04D
:1049000090E00E94410A219709F4FCC00E94B81966
:1049100063E077E089E799E00E94B61968EE73E0FA
:1049200080E090E00E94410A6FE177E089E799E03A
:104930000E94B61985E090E00E94C31984E6C82E53
:10494000D12CD0E0C0E092E4B92E80917B00886049
:1049500080937B00B0927C0080917A008064809389
:104960007A0080917A0086FDFCCF80917800E090FB
:104970007900FE2CE82EB7010F2C000C880B990B48
:10498000F7FC8EC04AE00E94A81863E377E089E74D
:1049900099E00E94B619CE15DF050CF4E70164E139
:1049A00070E080E090E00E94410A81E0C81AD108DE
:1049B00061F660E377E089E799E00E94B619CE01DD
:1049C0000E940F1960E377E089E799E00E94B61929
:1049D000C93CD1050CF467C0CE01895C91098436CD
:1049E000910508F489C0845691098436910508F42C
:1049F00086C0C159D140C037D24008F056C004E04B
:104A000010E053C082309105F9F420E030E040E03E
:104A10005FE3C501B4010E94E22587FF25CF2AE0AC
:104A200037ED43E25CE3C701B6010E9475276B01D5
:104A30007C012AE037ED43E25CE3C501B4010E944A
:104A400076274B015C0110CF83309105E9F420E01B
:104A500030E040E05FE3C701B6010E94E22587FF36
:104A600003CF2AE037ED43E25CE3C701B6010E94C1
:104A700076276B017C012AE037ED43E25CE3C50158
:104A8000B4010E947527DDCF0497059708F4E4CEA2
:104A9000EBCE4AE00E94A8180CCFC2E0D0E02DCFA8
:104AA0000E94EE1872CF01E010E060E377E089E742
:104AB00099E00E94B619C8010E940F1960E377E0DF
:104AC00089E799E00E94B61965E377E089E799E004
:104AD0000E94B619C8010E94C31960ED77E080E01A
:104AE00090E00E94410A64E670E080E090E00E945D
:104AF000410A0E94A60BEECD02E010E0D6CF03E003
:104B000010E0D3CF6091160C70E08EE19CE00E9423
:104B1000720862E370E080E090E00E94410A8BE45A
:104B20000E942C1963E477E089E799E00E94B619A6
:104B300062E370E080E090E00E94410A8CE20E9413
:104B4000AB07892B29F46AE070E080E090E0F4CFB5
:104B500082EB0E942C196CE271E080E090E00E94F0
:104B6000410A8BE40E942C198CE20E94AB07892B2E
:104B700039F46AE070E080E090E00E94410AF4CFEE
:104B800082EB0E942C196AEF70E080E090E00E94B6
:104B9000410AE0911E0C85E0E89FF0011124E851E4
:104BA000F54F80818F7B808368EE73E080E090E03A
:104BB00098CF8091250B9091260B009711F00C94C3
:104BC000B92808950E94242608F481E00895E89405
:104BD00009C097FB3EF490958095709561957F4F45
:104BE0008F4F9F4F9923A9F0F92F96E9BB279395F3
:104BF000F695879577956795B795F111F8CFFAF403
:104C0000BB0F11F460FF1BC06F5F7F4F8F4F9F4F33
:104C100016C0882311F096E911C0772321F09EE891
:104C2000872F762F05C0662371F096E8862F70E0F7
:104C300060E02AF09A95660F771F881FDAF7880FD1
:104C40009695879597F90895990F0008550FAA0B27
:104C5000E0E8FEEF16161706E807F907C0F012168F
:104C60001306E407F50798F0621B730B840B950B92
:104C700039F40A2661F0232B242B252B21F40895E7
:104C80000A2609F4A140A6958FEF811D811D089584
:104C90000E945B260C94CC260E94BE2638F00E940F
:104CA000C52620F0952311F00C94B5260C94BB2654
:104CB00011240C9400270E94DD2670F3959FC1F308
:104CC000950F50E0551F629FF001729FBB27F00DBA
:104CD000B11D639FAA27F00DB11DAA1F649F66270F
:104CE000B00DA11D661F829F2227B00DA11D621F5E
:104CF000739FB00DA11D621F839FA00D611D221F18
:104D0000749F3327A00D611D231F849F600D211DFB
:104D1000822F762F6A2F11249F5750409AF0F1F07E
:104D200088234AF0EE0FFF1FBB1F661F771F881FE7
:104D300091505040A9F79E3F510580F00C94B52644
:104D40000C9400275F3FE4F3983ED4F38695779563
:104D50006795B795F795E7959F5FC1F7FE2B880F8D
:104D6000911D9695879597F9089597F99F6780E823
:104D700070E060E008959FEF80EC089500240A94AD
:104D80001616170618060906089500240A94121626
:104D90001306140605060895092E0394000C11F459
:104DA000882352F0BB0F40F4BF2B11F460FF04C006
:104DB0006F5F7F4F8F4F9F4F089557FD9058440F5F
:104DC000551F59F05F3F71F04795880F97FB991F6A
:104DD00061F09F3F79F08795089512161306140627
:104DE000551FF2CF4695F1DF08C0161617061806B4
:104DF000991FF1CF86957105610508940895E8948F
:104E0000BB2766277727CB0197F90895052E97FBD7
:104E10001EF400940E941D2757FD07D00E943027E2
:104E200007FC03D04EF40C941D2750954095309507
:104E300021953F4F4F4F5F4F089590958095709506
:104E400061957F4F8F4F9F4F08950E945227A59FD6
:104E5000900DB49F900DA49F800D911D1124089575
:104E6000A1E21A2EAA1BBB1BFD010DC0AA1FBB1F6E
:104E7000EE1FFF1FA217B307E407F50720F0A21BE0
:104E8000B30BE40BF50B661F771F881F991F1A944D
:104E900069F760957095809590959B01AC01BD0177
:104EA000CF010895A29FB001B39FC001A39F700DD1
:104EB000811D1124911DB29F700D811D1124911D22
:104EC0000895991B79E004C0991F961708F0961B66
:104ED000881F7A95C9F780950895EE0FFF1F881FE8
:104EE0008BBF0790F691E02D19945058BB27AA2745
:104EF0000E948D270C94CC260E94BE2638F00E947A
:104F0000C52620F039F49F3F19F426F40C94BB26F3
:104F10000EF4E095E7FB0C94B526E92F0E94DD2600
:104F200058F3BA17620773078407950720F079F4DE
:104F3000A6F50C94FF260EF4E0950B2EBA2FA02DAB
:104F40000B01B90190010C01CA01A0011124FF2736
:104F5000591B99F0593F50F4503E68F11A16F04031
:104F6000A22F232F342F4427585FF3CF4695379530
:104F70002795A795F0405395C9F77EF41F16BA0BF5
:104F8000620B730B840BBAF09150A1F0FF0FBB1FA3
:104F9000661F771F881FC2F70EC0BA0F621F731FEC
:104FA000841F48F4879577956795B795F7959E3F49
:104FB00008F0B0CF9395880F08F09927EE0F9795DA
:104FC000879508950E94E9276894B1110C940027F1
:104FD00008950E94E52688F09F5798F0B92F9927E9
:104FE000B751B0F0E1F0660F771F881F991F1AF0D4
:104FF000BA95C9F714C0B13091F00E94FF26B1E014
:1050000008950C94FF26672F782F8827B85F39F012
:10501000B93FCCF3869577956795B395D9F73EF46C
:1050200090958095709561957F4F8F4F9F4F089514
:105030000E94242608F48FEF08950F931F93CF93B7
:10504000DF938230910510F482E090E0E091550CFE
:10505000F091560C30E020E0B0E0A0E0309799F4F9
:105060002115310509F44AC0281B390B24303105BC
:10507000D8F58A819B816115710589F1FB019383C4
:105080008283FE0111C04081518102811381481742
:105090005907E0F04817590799F4109761F01296F4
:1050A0000C93129713961C933296CF01DF91CF91F8
:1050B0001F910F9108950093550C1093560CF4CF47
:1050C0002115310551F04217530738F0A901DB01D2
:1050D0009A01BD01DF01F801C1CFEF01F9CF909333
:1050E000560C8093550CCDCFFE01E20FF31F819338
:1050F00091932250310939832883D7CF2091530CC3
:105100003091540C232B41F4209103063091040676
:105110003093540C2093530C2091010630910206D9
:105120002115310541F42DB73EB740910506509148
:105130000606241B350BE091530CF091540CE2173A
:10514000F307A0F42E1B3F0B2817390778F0AC01AA
:105150004E5F5F4F2417350748F04E0F5F1F509387
:10516000540C4093530C819391939FCFF0E0E0E077
:105170009CCFCF93DF930097E9F0FC013297138225
:105180001282A091550CB091560CED0130E020E058
:105190001097A1F420813181820F931F2091530C2D
:1051A0003091540C2817390709F061C0F093540C62
:1051B000E093530CDF91CF910895EA01CE17DF07FA
:1051C000E8F54A815B819E0141155105B1F7E9017E
:1051D000FB83EA8349915991C40FD51FEC17FD0752
:1051E00061F4808191810296840F951FE901998372
:1051F0008883828193819B838A83F0E0E0E012962A
:105200008D919C9113970097B9F52D913C91119731
:10521000CD010296820F931F2091530C3091540CB4
:105220002817390739F6309751F51092560C10921D
:10523000550CB093540CA093530CBCCFD383C283B2
:1052400040815181840F951FC817D90761F44E5FC3
:105250005F4F88819981480F591F518340838A810C
:105260009B81938382832115310509F0B0CFF093A0
:10527000560CE093550C9ECFFD01DC01C0CF13828C
:105280001282D7CF4F925F926F927F928F929F92AE
:10529000AF92BF92CF92DF92EF92FF920F931F9344
:1052A000CF93DF938C01009799F4CB01DF91CF91DD
:1052B0001F910F91FF90EF90DF90CF90BF90AF9034
:1052C0009F908F907F906F905F904F900C941D28CF
:1052D000FC01E60FF71F9C0122503109E217F3078A
:1052E00008F4AEC0D901CD91DC911197C617D7074C
:1052F00020F1C530D10578F0CE01049786179707C5
:1053000050F0C61BD70B2297C193D1936D937C931A
:10531000CF010E94B928C801DF91CF911F910F9151
:10532000FF90EF90DF90CF90BF90AF909F908F90C5
:105330007F906F905F904F9008955B01AC1ABD0A0B
:105340004C018C0E9D1EA091550CB091560C512C09
:10535000412CF12CE12C109731F58091530C909158
:10536000540C8815990509F05CC04616570608F0DC
:1053700058C08091010690910206009741F48DB7C4
:105380009EB74091050650910606841B950BE817C1
:10539000F90708F055C0F093540CE093530CF90151
:1053A00071836083B8CF8D919C91119712966C9008
:1053B000129713967C901397A815B90559F56C01AF
:1053C00042E0C40ED11CCA14DB0420F1AC014A191E
:1053D0005B09DA011296159780F06282738251831D
:1053E0004083D9016D937C93E114F10471F0D701EE
:1053F0001396FC93EE9312978ECF22968C0F9D1FDF
:10540000F90191838083F301EFCFF093560CE09381
:10541000550C81CF4816590608F42C017D01D301A3
:105420009ACFCB010E941D287C01009749F0AE0164
:10543000B8010E94282AC8010E94B92887016BCFB1
:1054400010E000E068CF81E090E0F8940C94382AF6
:10545000FB01DC0102C001900D9241505040D8F791
:105460000895FB01DC0101900D920020E1F7089501
:1054700016E0CEE0D6E000E006C0802FFE010E94DC
:105480006D272196011DCF30D10780E00807A9F7CD
:04549000F894FFCFBE
:10549400FF00000000000000000000000000000009
:1054A40000000000000000000000000000000000F8
:1054B40000000000000000000000000000000000E8
:1054C40000000000000000000000000000000000D8
:1054D4008080800000000000000000000000000048
:1054E40000008080C0C00000000000000000000038
:1054F40000000000000000000000000000000000A8
:105504000000000000000000000000000000000097
:105514000000000000000000000000000000000087
:10552400000000000080C0E0F0F8FCF8E00000009B
:105534000000000000000000000000000000808067
:105544008080800080800000000080808080800057
:10555400FFFFFF000000008080808000008080004A
:105564000080FFFF80800080800080808080008039
:10557400800000000000808000008C8E8400008089
:10558400F8F8F880000000000000000000000000AF
:1055940000F0F0F0F0F0F0F0F0F0F0F0F0E0E0C047
:1055A4008000E0FCFEFFFFFF7FFFFFFFFFFF000026
:1055B400000000000000000000000000FEFFC70122
:1055C40001010183FFFF00007CFEC701010101838B
:1055D400FFFFFF0038FEC78301010183C7FFFF00FF
:1055E4000001FFFF010100FFFF0701010100007F2F
:1055F400FF80000000FFFF7F0000FFFFFF000001AD
:10560400FFFFFF0100000000000000000000000098
:1056140000030F3F7F7FFFFFFFFFFFFFFFE7C7C7C9
:105624008F8F9FBFFFFFC3C0F0FFFFFFFFFFFCFC96
:10563400FCFCFCFCFCFCF8F8F0F0E0C00001030307
:105644000303030103030000000001030303030138
:10565400010301000000010303030301010303002C
:10566400000003030000000303000000000000002A
:105674000103030303030100000001030100000010
:10568400030301000000000000000000000000000F
:105694000000000080C0E0F0F9FFFFFFFFFF3F1FA4
:1056A4000F87C7F7FFFF1F1F3DFCF8F8F8F87C7D54
:1056B400FFFFFFFFFFFFFFFF7F3F0F0700303000BA
:1056C40000000000000000000000000000000000D6
:1056D4000000000000FEFEFC0000000000000000CE
:1056E4000000000000000000000000000000E0C016
:1056F4000000000000000000000000303000000046
:105704000000000000000000000000000000000095
:105714000000C0FEFFFFFFFFFFFFFFFFFF7F7F3F93
:105724001F0F071F7FFFFFF8F8FFFFFFFFFFFEF8C3
:10573400E0000000010000000000000000FEFE0088
:105744000000FCFEFC0C06060EFCF80000F0F81C41
:105754000E0606060CFFFFFF0000FEFE0000000020
:10576400FCFEFC00183C7E66E6CE84000006FFFFCB
:105774000606FCFEFC0C0606060000FEFE0000C049
:10578400F8FC4E4646464E7C7840183C76E6CECC35
:105794008000000000000000000000000000000085
:1057A400000000000001070F1F1F3F3F3F3F1F0F76
:1057B400030000000000000000000000000F0F00C4
:1057C40000000F0F0F000000000F0F000003070E72
:1057D4000C18180C060F0F0F0000010F0E0C180CFC
:1057E4000F070100040E0C180C0F070000000F0F28
:1057F40000000F0F0F0000000000000F0F0000005A
:1058040007070C0C181C0C060600040E0C180C0FD1
:10581400070000000000000000000000000000007D
:105824000000000000000000000000000000000074
:105834000000000000000000000000000000000064
:105844000000000000000000000000000000000054
:105854000000000000000000000000000000000044
:105864000000000000000000000000000000000034
:105874000000000000000000000000000000000024
:105884000000000000000000000000000000000014
:10589400000000570C8000363738391B1D1A1C00D5
:1058A4000103070F1F3F7F0080C0E0F0F8FCFE00FB
:1058B4000000001507E8064417BE06E106CE06BF41
:1058C4000600000000360B730AB90A830BEA0AC803
:1058D4000ADC0A000000007518730A441743170015
:1058E4000000008A11730A44174317AB0EBE062F3B
:1058F400140714231417143614BE06500F4F0FF157
:105904000B4E0D50133313BB125C120D0A0053657A
:1059140072766F20616E676C65206973206F757491
:10592400206F662072616E67652100506574652082
:10593400746F6920756E652063616E0043686175DC
:1059440064617373650043686175642062617465A2
:105954006175005061732067657261626C65005403
:1059640072616974656D656E740054657374206446
:10597400752049442D31322073757220554152549B
:105984003220285258322F4469676974616C20317F
:1059940037290043616C6962726174696F6E2064B7
:1059A40065206C27617070617265696C2E0A004411
:1059B400C3A962757420647520746573742E0A001B
:1059C4000A0A0A0A0046696E2064752074657374B5
:0859D4002E0A007965657400DC
:00000001FF
