:100000000C94ED050C941E060C941E060C941E0612
:100010000C941E060C941E060C941E060C941E06D0
:100020000C941E060C944E190C944E190C944E19F7
:100030000C941E060C94C61A0C941E060C941E06F4
:100040000C941E060C941F1D0C941E060C941E0688
:100050000C941E060C941E060C941E060C947C1A1E
:100060000C941E060C94351C0C940B1C0C941E0650
:100070000C941E060C941E060C941E060C941E0670
:100080000C941E060C941E060C941E060C941E0660
:100090000C941E060C941E060C941E060C94581903
:1000A0000C941E060C941E060C941E060C941E0640
:1000B0000C941E060C941E060C941E060C945F1CD9
:1000C0000C941E060C941E060C941E060C94E11B48
:1000D0000C94B71B0C941E060C948D1B0C94631B84
:1000E0000C941E060C94DB130C94D4150C945B0733
:1000F0000C9440070C94F3060C9474060C943C2367
:100100000C94610B0C94510A0C9481070C94AC066E
:100110000C9485070C9469070C949C060C94CF13DF
:100120000C94080F0C94A60A0C94630E0C94060D04
:100130000C94BA0A0C94BF130C9406170C94141266
:100140000C944A070C9455070C94C6060C94EB12B9
:100150000C9446070C9465070C9442110C94070FFD
:100160000C9473070C94C80A0C944E070C94081353
:100170000C94A90B0C94E7130C94C71D0C94D51583
:100180000C945F070C9480070C9452070C94140B8A
:100190000C9473060C94970A0C9473120C947B07BE
:1001A0000C9477070C94EE130C94BF060C946D0717
:1001B0000C949D0600000000003E5B4F5B3E3E6BD2
:1001C0004F6B3E1C3E7C3E1C183C7E3C181C577DF1
:1001D000571C1C5E7F5E1C00183C1800FFE7C3E73D
:1001E000FF0018241800FFE7DBE7FF30483A060E4F
:1001F0002629792926407F050507407F05253F5A96
:100200003CE73C5A7F3E1C1C08081C1C3E7F142205
:100210007F22145F5F005F5F06097F017F006689B0
:10022000956A606060606094A2FFA29408047E04F6
:100230000810207E201008082A1C08081C2A08081C
:100240001E101010100C1E0C1E0C30383E383006DC
:100250000E3E0E06000000000000005F00000007D8
:10026000000700147F147F14242A7F2A1223130806
:10027000646236495620500008070300001C2241E2
:10028000000041221C002A1C7F1C2A08083E080886
:100290000080703000080808080800006060002036
:1002A000100804023E5149453E00427F4000724919
:1002B0004949462141494D331814127F10274545BD
:1002C00045393C4A494931412111090736494949D3
:1002D00036464949291E0000140000004034000041
:1002E00000081422411414141414004122140802AA
:1002F000015909063E415D594E7C1211127C7F491D
:100300004949363E414141227F4141413E7F494971
:1003100049417F090909013E414151737F0808089D
:100320007F00417F41002040413F017F081422416E
:100330007F404040407F021C027F7F0408107F3EC8
:100340004141413E7F090909063E4151215E7F0935
:10035000192946264949493203017F01033F40409C
:10036000403F1F2040201F3F4038403F6314081487
:100370006303047804036159494D43007F414141BF
:100380000204081020004141417F040201020440A0
:1003900040404040000307080020545478407F2824
:1003A0004444383844444428384444287F3854541A
:1003B000541800087E090218A4A49C787F0804043D
:1003C0007800447D40002040403D007F10284400DC
:1003D00000417F40007C047804787C08040478386D
:1003E00044444438FC1824241818242418FC7C089D
:1003F000040408485454542404043F44243C40401A
:10040000207C1C2040201C3C4030403C44281028CC
:10041000444C9090907C4464544C44000836410015
:100420000000770000004136080002010204023C8F
:100430002623263C1EA1A161123A4040207A38545E
:1004400054555921555579412254547842215554D7
:10045000784020545579400C1E527212395555552A
:1004600059395454545939555454580000457C4115
:100470000002457D420001457C407D1211127DF055
:10048000282528F07C545545002054547C547C0A7F
:10049000097F4932494949323A4444443A324A4848
:1004A00048303A4141217A3A42402078009DA0A04C
:1004B0007D3D4242423D3D4040403D3C24FF24249E
:1004C000487E4943662B2FFC2F2BFF0929F620C0BD
:1004D000887E090320545479410000447D4130480E
:1004E000484A32384040227A007A0A0A727D0D1951
:1004F000317D2629292F28262929292630484D40B3
:1005000020380808080808080808382F10C8ACBAAE
:100510002F102834FA00007B000008142A1422222D
:10052000142A14085500550055AA55AA55AAFF5576
:10053000FF55FF000000FF00101010FF00141414FE
:10054000FF001010FF00FF1010F010F0141414FC46
:10055000001414F700FF0000FF00FF1414F404FC63
:10056000141417101F10101F101F1414141F001044
:100570001010F0000000001F101010101F101010BD
:1005800010F010000000FF101010101010101010CC
:10059000FF10000000FF140000FF00FF00001F100C
:1005A000170000FC04F414141710171414F404F4C6
:1005B0000000FF00F714141414141414F700F714B7
:1005C0001414171410101F101F141414F414101006
:1005D000F010F000001F101F0000001F14000000AA
:1005E000FC140000F010F01010FF10FF141414FFA2
:1005F000141010101F00000000F010FFFFFFFFFF9D
:10060000F0F0F0F0F0FFFFFF0000000000FFFF0F30
:100610000F0F0F0F3844443844FC4A4A4A347E02D4
:10062000020606027E027E02635549416338444455
:100630003C04407E201E2006027E020299A5E7A50A
:10064000991C2A492A1C4C7201724C304A4D4D307B
:100650003048784830BC625A463D3E494949007EA0
:100660000101017E2A2A2A2A2A44445F4444405137
:100670004A444040444A51400000FF0103E080FFEB
:10068000000008086B6B083612362436060F090F77
:1006900006000018180000001010003040FF010193
:1006A000001F01011E00191D1712003C3C3C3C00BC
:1006B0000000000002000000007E000000000000BA
:1006C0007E0000000000000007FFF00000000007AF
:1006D000FFE00000000000001FFFFC000000003FE2
:1006E000FFF80000000000007FFFFF00000000FF97
:1006F000FFFE000000000000FFFFFF80000001FF80
:10070000FFFF800000000003FF81FFE0000007FF03
:1007100081FFC00000000007FF007FF000000FFE17
:10072000007FE0000000000FFC003FF800001FFC0D
:10073000003FF0000000001FF8001FFC00003FF029
:10074000001FF8000000003FF0000FFE00007FF0E7
:10075000000FFC000000007FF00007FF0000FFE03A
:10076000000FFE00000000FFE00003FF8001FFC05B
:100770000007FF00000001FFC00003FFC003FF806F
:100780000003FF80000001FFC00001FFE007FF80C1
:100790000003FFC0000003FF800000FFF00FFF0018
:1007A0000001FFC0000007FF800000FFF00FFF0006
:1007B0000001FFE000000FFF0000007FF81FFE00B7
:1007C0000000FFF000000FFF0000007FF81FFE0098
:1007D0000000FFF000001FFF0000007FFC3FFE0054
:1007E00000007FF800001FFE0000003FFE7FFC00BD
:1007F00000007FF800003FFE0000003FFE7FFC008D
:1008000000007FFC00003FFE0000001FFFFFF8001B
:1008100000003FFE00007FFC0000001FFFFFF8000B
:1008200000003FFE00007FFC0000001FFFFFF800FB
:1008300000003FFE0000FFFC0000000FFFFFF00083
:1008400000001FFF0000FFF80000000FFFFFF00096
:1008500000001FFF0001FFF80000000FFFFFF00085
:1008600000001FFF8001FFF80000000FFFFFF000F5
:1008700000001FFF8001FFF000000007FFFFE00005
:1008800000000FFF8003FFF000000007FFFFE00003
:1008900000000FFFC003FFF000000007FFFFE000B3
:1008A00000000FFFC003FFF000000007FFFFE000A3
:1008B00000000FFFE007FFF000000007FFFFC0008F
:1008C000000007FFE007FFE000000003FFFFC0009B
:1008D000000007FFE007FFE000000003FFFFC0008B
:1008E000000007FFF00FFFE000000003FFFFC00063
:1008F000000007FFF00FFFE000000003FFFFC00053
:10090000000007FFF00FFFE000000003FFFF800082
:10091000000003FFF00FFFC000000001FFFF800098
:10092000000003FFF81FFFC000000001FFFF800070
:10093000000003FFF81FFFC000000001FFFF800060
:10094000000003FFF81FFFC000000001FFFF800050
:10095000000003FFF81FFFC000000001FFFF800040
:10096000000003FFF83FFFC000000001FFFF800010
:10097000000003FFFC3FFFC000000001FFFF8000FC
:10098000000001FFFC3FFF8000000001FFFF80002E
:10099000000001FFFC3FFF8000000001FFFF00009E
:1009A000000001FFFC3FFF8000000000FFFF00008F
:1009B000000001FFFC3FFF8000000000FFFF00007F
:1009C000000001FFFE7FFF8000000000FFFF00002D
:1009D000000001FFFE7FFF8000000000FFFF00001D
:1009E000000001FFFE7FFF8000000000FFFF00000D
:1009F000000001FFFE7FFF8000000000FFFF0000FD
:100A0000000001FFFE7FFF8000000000FFFF0000EC
:100A1000000001FFFE7FFF8000000000FFFF0000DC
:100A2000000001FFFE7FFF8000000000FFFF0000CC
:100A3000000001FFFE7FFF8000000000FFFF0000BC
:100A4000000001FFFE7FFF8000000000FFFF0000AC
:100A5000000001FFFE7FFF8000000000FFFF00009C
:100A6000000001FFFE7FFF8000000000000000008A
:100A7000000000FFFE7FFF8000000000000000007B
:100A8000000000FFFE7FFF8000000000000000006B
:100A9000000000FFFE7FFF8000000000000000005B
:100AA000000000FFFF7FFF8000000000000000004A
:100AB000000000FFFF000020002300260029002C7A
:100AC000002F0032000001000003010601090100AF
:100AD000000A0B02090C0D0E0807030401000000B8
:100AE0000000000000000000000000000000000006
:100AF00000000000000000000000001211100000C3
:100B000000000000000000000000000000000000E5
:100B1000000000000000002100240027002A002D12
:100B2000003000330001010000040107010A010147
:100B300002102020080810204010204080020102EE
:100B400001080402010102040810204080804020B6
:100B500010080402018004020180402010080402F1
:100B6000010804020101020408102040800102046F
:100B7000081020408000002200250028002B002EB5
:100B8000003100340002010000050108010B0105DD
:100B9000050505070508080808020202020A0A08F6
:100BA000080404040401010101010101010303031C
:100BB0000303030303040707070C0C0C0C0C0C0CB9
:100BC0000C0202020206060606060606060B0B0BC0
:100BD0000B0B0B0B0B00C71D3C2311241FBECFEFCB
:100BE000D1E2DEBFCDBF00E00CBF17E0A0E0B2E075
:100BF000E2ECFBE400E00BBF02C007900D92AA32CA
:100C0000B107D9F72CE0AAE2B7E001C01D92A333E7
:100C1000B207E1F715E0CCEED5E000E006C0219781
:100C20000109802FFE010E94AC23CB3ED10780E05A
:100C30000807A9F70E94FB1F0C94CF250C94000015
:100C4000E5E5F9E0A089B18982E08C93A485B585BA
:100C50001C92A685B7858FEC8C93108EA489B589DC
:100C600086E08C93A289B3898C9180618C93A28950
:100C7000B3898C9188608C93A289B3898C918068A8
:100C80008C930288F389E02D80818F7D8083089585
:100C900028E030E040E8E091250CF091260C5081EE
:100CA00090912C0C909595239083E091230CF091DA
:100CB000240C90912B0C582F542389F05081952BA4
:100CC0009083E091250CF091260C908150912C0C92
:100CD000952B9083469521503109E9F6089550816E
:100CE00090959523EDCF089508952091B807260F8C
:100CF0003327331F21323105ECF42091DC07FC014E
:100D000090E080E0243069F082E00895A091B80777
:100D10002191AC014856584FA40FB52FB11D2C930B
:100D20000196861798F38091B807680F6093B8070B
:100D300080E0089581E008950895E0910A08809187
:100D40000908E81730F4F0E0EE58F84F808190E0A1
:100D500008958FEF9FEF089590910A0880910908F8
:100D60002FEF3FEF981748F4E92FF0E0EE58F84FD7
:100D7000208130E09F5F90930A08C9010895809117
:100D8000090890910A08891B990B0895CF92DF9268
:100D9000EF92FF920F931F93CF93DF937C01CB01D0
:100DA0008A0120910E08222389F0EB016B01C40E09
:100DB000D51ECC15DD0569F06991D701ED91FC9147
:100DC0000190F081E02DC7011995F3CF642F0E94A7
:100DD0007506C801DF91CF911F910F91FF90EF90A1
:100DE000DF90CF900895CF93DF931F92CDB7DEB7FA
:100DF000698320910E082223F9F020910B082032FC
:100E000058F021E030E0FC013383228390E080E061
:100E10000F90DF91CF91089580910C08E82FF0E0BA
:100E2000EE5AF84F998190838F5F80930C088093DE
:100E30000B0881E090E0ECCF61E0CE0101960E94CA
:100E40007506F7CF8150823108F05AC0E82FF0E0E4
:100E50008827E25DF84F8F4F0C94AC234E07520762
:100E6000400746074A07800755075B075F07650786
:100E700069076D077307770780077B078107850779
:100E8000809180008F77809380000895809180000A
:100E90008F7DF9CF80918000877FF5CF84B58F77E4
:100EA00084BD089584B58F7DFBCF8091B0008F778E
:100EB0008093B00008958091B0008F7DF9CF80912C
:100EC00090008F77809390000895809190008F7D9F
:100ED000F9CF80919000877FF5CF8091A0008F7728
:100EE0008093A00008958091A0008F7DF9CF80911C
:100EF000A000877FF5CF809120018F77809320011C
:100F00000895809120018F7DF9CF80912001877F06
:100F1000F5CFCF93DF93282F30E0F901E153F54F60
:100F20008491F901E15DF44FD491F901E157F44F57
:100F3000C491CC23A1F081110E942207EC2FF0E094
:100F4000EE0FFF1FEB54F54FA591B491EC91ED23FB
:100F500081E090E009F480E0DF91CF91089580E096
:100F600090E0FACF1F93CF93DF93282F30E0F90161
:100F7000E153F54F8491F901E15DF44FD491F9010A
:100F8000E157F44FC491CC23A9F0162F81110E9490
:100F90002207EC2FF0E0EE0FFF1FEB58F44FA59166
:100FA000B4918FB7F894EC91111108C0D095DE235D
:100FB000DC938FBFDF91CF911F910895DE2BF8CF87
:100FC0001092DC0781E08093DE071092DD0761E07C
:100FD00084E10E94B20761E085E10E94B207E9EB7B
:100FE000F0E080818E7F808380818D7F808388E4A4
:100FF0008093B80085E48093BC000895CF93DF937D
:1010000091E0909397078823B9F0C091B800D091F0
:10101000BA008091BC008A7B8093BC0060E084E1D0
:101020000E94B20760E085E10E94B2070E94E007DB
:10103000D093BA00C093B800DF91CF910895CF93B9
:10104000DF9390E0FC01E15DF44F24918157944FD0
:10105000FC0184918823D1F090E0880F991FFC0156
:10106000EB5EF44FA591B491FC01EB58F44FC591A0
:10107000D49161110EC09FB7F8948C91E22FE09546
:101080008E238C932881E223E8839FBFDF91CF9149
:1010900008958FB7F894EC91E22BEC938FBFF6CFC5
:1010A0001F93CF93DF93EC01162F88818C3008F0CB
:1010B00046C061E0812F0E941F08888195E0899FCA
:1010C000F0011124EC53F54F1F736081607C612B9C
:1010D0006083138214822CE0622F0E94A023829FDF
:1010E000B001112430E020E095E0AB01420F531F26
:1010F000949FF001959FF00D1124EC53F54F408122
:1011000046FD13C02F5F3F4F2C30310571F7811121
:101110000CC01092800082E08093810010928500C4
:101120001092840086BB80936F00E88185E0E89F81
:10113000F0011124EC53F54F808180648083888115
:10114000DF91CF911F910895CF93CFB7F8948091FD
:101150000208811127C0E4ECFBE08491E4E6FBE0A7
:101160009491E82FF0E0EE0FFF1FEB5EF44FA59196
:10117000B491EC91E92321F461E085E30E94B20788
:1011800061E085E30E941F088CB580618CBD8CB541
:1011900080648CBD61E084E30E941F0861E083E30A
:1011A0000E941F08809102088F5F80930208CFBFC2
:1011B000CF9108953FB7F89480914E0790914F07D3
:1011C000A0915007B091510726B5A89B05C02F3FAD
:1011D00019F00196A11DB11D3FBFBA2FA92F982F5D
:1011E0008827BC01CD01620F711D811D911D42E058
:1011F000660F771F881F991F4A95D1F70895CF92E0
:10120000DF92EF92FF920F931F93CF93DF93D091D2
:101210000B0881E0D13208F09CC0C0910D080E94FB
:10122000DA086B017C018091DC0781116CC082E0DF
:101230008093DC0781E08093DE078FEF8093DB07EC
:1012400010920008D093FF07A2E5B7E0EFEDF7E0BA
:1012500080E0D8138DC01092010880910108CC0F56
:10126000C82BC09301088091DD07813009F084C04C
:101270001092DD070E94DA086B017C018091010861
:101280008093BB008091930790919407A09195075C
:10129000B0919607892B8A2B8B2BA1F00E94DA083C
:1012A000009193071091940720919507309196072C
:1012B0006C197D098E099F0906171707280739073A
:1012C00008F442C08091BC0083FDD8CF85EC8093A8
:1012D000BC000E94DA086B017C018091DC0782303F
:1012E00009F44CC08091DB078F3F09F469C08091FD
:1012F000DB07803209F466C08091DB07803309F494
:1013000063C084E026C08091930790919407A091D8
:101310009507B0919607892B8A2B8B2B09F483CFE5
:101320000E94DA0800919307109194072091950785
:10133000309196076C197D098E099F0906171707CA
:101340002807390708F06FCF809192070E94FE07A7
:1013500085E010920C0810920B0810920E08DF9195
:10136000CF911F910F91FF90EF90DF90CF90089554
:101370009D9191938F5F6DCF85EEA9CF809193075B
:1013800090919407A0919507B0919607892B8A2B8D
:101390008B2B09F4A2CF0E94DA08009193071091D9
:1013A000940720919507309196076C197D098E0955
:1013B0009F09061717072807390708F08ECFC4CFF3
:1013C00080E0C7CF82E0C5CF83E0C3CF0F931F93E8
:1013D000CF93DF93162F072FC9ECDBE0AA85BB85DF
:1013E0009C8521E020930E0890930D0810920C0824
:1013F00010920B08ED91FC9111970190F081E02D76
:10140000682FCD0119958A859B85DC01ED91FC91B2
:101410000190F081E02D602F19958A859B85DC0174
:10142000ED91FC910190F081E02D612F19958A8555
:101430009B85DF91CF911F910F910C94FF088F92A4
:101440009F92AF92BF92CF92DF92EF92FF924B01A9
:101450005C010E94DA086B017C010E94DA086C19B9
:101460007D098E099F09683E734081059105A8F3A7
:1014700021E0821A9108A108B10888EEC80E83E025
:10148000D81EE11CF11C81149104A104B10429F7B8
:10149000FF90EF90DF90CF90BF90AF909F908F9094
:1014A0000895AF92BF92CF92DF92EF92FF920F9387
:1014B0001F93CF93DF936C017B018B01040F151FEA
:1014C000EB015E01AE18BF08C017D10759F0699152
:1014D000D601ED91FC910190F081E02DC6011995A6
:1014E000892B79F7C501DF91CF911F910F91FF9063
:1014F000EF90DF90CF90BF90AF900895FC01A0894E
:10150000B1898C91A689B78982FD0FC09C91818D8C
:101510008F5F8F73228D821749F0A18DAE0FBF2F81
:10152000B11D5D969C93818F08958C910895FC0167
:10153000538D448D252F30E0842F90E0821B930B38
:10154000541710F0CF96089501970895FC01918DDE
:10155000828D981761F0A28DAE0FBF2FB11D5D96E1
:101560008C91928D9F5F9F73928F90E008958FEF83
:101570009FEF0895FC01918D828D981731F0828D37
:10158000E80FF11D858D90E008958FEF9FEF08958E
:10159000FC01918D228D892F90E0805C9F4F821BF2
:1015A00091098F73992708958BE198E00E94C80AEA
:1015B00021E0892B09F420E0822F089588EB98E040
:1015C0000E94C80A21E0892B09F420E0822F0895A7
:1015D00085E599E00E94C80A21E0892B09F420E002
:1015E000822F0895FC01A48DA80FB92FB11DA35A15
:1015F000BF4F2C91848D90E001968F739927848F33
:10160000A689B7892C93A089B1898C918370806455
:101610008C93938D848D981306C00288F389E02DF6
:1016200080818F7D80830895EF92FF920F931F93A7
:10163000CF93DF93EC0181E0888F9B8D8C8D981385
:101640001AC0E889F989808185FF15C09FB7F89491
:10165000EE89FF896083E889F989808183708064DD
:1016600080839FBF81E090E0DF91CF911F910F9128
:10167000FF90EF900895F62E0B8D10E00F5F1F4F37
:101680000F731127E02E8C8D8E110CC00FB607FC46
:10169000FACFE889F989808185FFF5CFCE010E94D4
:1016A000F20AF1CFEB8DEC0FFD2FF11DE35AFF4F46
:1016B000F0829FB7F8940B8FEA89FB898081806262
:1016C000CFCFCF93DF93EC01888D8823B9F0AA891F
:1016D000BB89E889F9898C9185FD03C0808186FDED
:1016E0000DC00FB607FCF7CF8C9185FFF2CF80813C
:1016F00085FFEDCFCE010E94F20AE9CFDF91CF91B5
:101700000895F0E0E0E0199480E090E0892B29F062
:101710000E94E80A81110E94000080E090E0892B7D
:1017200049F080E090E0892B29F00E9400008111AF
:101730000E9400000E94DE0A81110E94810B80E05D
:1017400090E0892B29F00E94D40A81110C940000AA
:1017500008950F931F93CF93DF93EC018E8982300E
:1017600009F453C0833009F4ACC0813009F05CC087
:10177000EC81FD81E41BF50BAF01421B530B77FDA0
:101780003FC08E819F8168177907D4F557FF04C049
:10179000240F351F50E040E08C819D81FA01E20F5B
:1017A000F31F8E179F071CF49C01241B350B121688
:1017B000130634F5FB0177FD3796A3E0F595E79521
:1017C000AA95E1F7F695FE2FEE27F795E795E40F3A
:1017D000F51FEF5FFD4F6770772781E090E001C054
:1017E000880F6A95EAF7482F0130110509F472C095
:1017F00008F47CC02E0F3F1F0230110509F483C08E
:10180000DF91CF911F910F910895AC81BD81CD01E2
:10181000861B970BBC0161507109EE81FF81E41BAF
:10182000F50BAF01421B530B77FDEACF8C819D81F5
:10183000681779072CF757FF04C0240F351F50E0B5
:1018400040E08E819F81FA01E20FF31F8E179F0700
:101850001CF49C01241B350B121613068CF6922FD8
:10186000A42FA695A695A69580E8A89FD00111243F
:10187000A60FB71FAF5FBD4F477009F457C058E0C0
:10188000541B452F652F70E0FB01E95EF94F808105
:10189000251708F0B0C0621B71092FEF30E002C0BD
:1018A000359527956A95E2F7822301301105A9F154
:1018B00008F464C00230110509F0A2CF2C918227F0
:1018C0002EC0AE81BF81CD01861B970BBC0161503C
:1018D000710955CF2E0F3F1FE217F30709F490CF80
:1018E0008191DF011197842B8C93F6CF80952E0F79
:1018F0003F1FE217F30709F483CF9191DF0111979E
:1019000098239C93F6CFE217F30709F479CF8191DE
:10191000DF01119784278C93F6CF2C91822B8C9327
:10192000941708F46DCF941BA058BF4F983008F45B
:1019300047C00230110531F5FD01892F2081209526
:101940002083E058FF4F88508830C0F728EF290FD8
:1019500026952695269530E02F5F3F4F3695322FFE
:10196000222737952795A20FB31F977009F448CF08
:10197000E92FF0E0E15FF94F808132C080952C9132
:101980008223CDCF81E00130110509F080E08195FF
:10199000FD01292F8083E058FF4F28502830D0F7D1
:1019A00028EF290F26952695269530E02F5F3F4F8B
:1019B0003695322F222737952795A20FB31F9770A0
:1019C000992309F41DCFE92FF0E0E15FF94F808101
:1019D0000130110541F058F00230110509F010CF27
:1019E0009C91892702C09C91892B8C9309CF80956B
:1019F0009C918923FACF0130110509F48ECF08F4A8
:101A0000BDCF0230110509F459CF8DCF0F931F932D
:101A1000CF93DF93EC018E89823009F45EC083306E
:101A200009F4B5C0813009F067C0AC81BD81CD013A
:101A3000841B950BAC014150510957FD49C08C8165
:101A40009D81481759070CF043C077FF04C0260F4B
:101A5000371F70E060E08E819F81FB01E20FF31F72
:101A60008E179F071CF49C01261B370B12161306BA
:101A70007CF5922FA62FA695A695A69580E8A89FFF
:101A8000D0011124A40FB51FAF5FBD4F677009F4DB
:101A90008FC048E0461B642F70E0FB01E95EF94F00
:101AA0008081241708F002C1621B71092FEF30E01A
:101AB00002C0359527956A95E2F78223013011051A
:101AC00009F46DC008F49CC00230110509F4F8C097
:101AD000DF91CF911F910F910895EC81FD81E61B5D
:101AE000F70BAE81BF81CD01841B950BAC0141503A
:101AF0005109BF01621B730B57FDEACF8E819F8195
:101B0000481759072CF777FF04C0260F371F70E0DE
:101B100060E08C819D81FB01E20FF31F8E179F0710
:101B20001CF49C01261B370B121613068CF6FA01C7
:101B300057FD379693E0F595E7959A95E1F7F69579
:101B4000FE2FEE27F795E795E60FF71FEF5FFD4FA6
:101B50004770552781E090E001C0880F4A95EAF769
:101B6000482F0130110509F488C008F492C02E0FE7
:101B70003F1F0230110509F0ABCFE217F30709F45C
:101B8000A7CF8191DF01119784278C93F6CFEE8147
:101B9000FF81E61BF70BBF01621B730B4ECF2C912D
:101BA000822B8C93941708F493CF941BA058BF4FAB
:101BB000983008F447C00230110531F5FD01892F36
:101BC000208120952083E058FF4F88508830C0F74F
:101BD00028EF290F26952695269530E02F5F3F4F59
:101BE0003695322F222737952795A20FB31F97706E
:101BF00009F46ECFE92FF0E0E15FF94F808132C048
:101C000080952C918223CDCF81E00130110509F020
:101C100080E08195FD01292F8083E058FF4F2850F7
:101C20002830D0F728EF290F26952695269530E005
:101C30002F5F3F4F3695322F222737952795A20FDA
:101C4000B31F9770992309F443CFE92FF0E0E15FC8
:101C5000F94F80810130110541F058F00230110533
:101C600009F036CF9C91892702C09C91892B8C93D7
:101C70002FCF80959C918923FACF2E0F3F1FE2171B
:101C8000F30709F425CF8191DF011197842B8C9301
:101C9000F6CF80952E0F3F1F2E173F0709F418CF60
:101CA0009191DF01119798239C93F6CF0130110594
:101CB00009F475CF08F4A4CF0230110509F075CFEF
:101CC0002C9182276ECFDC0177FD67C018968D912D
:101CD0009C911997681779070CF05FC057FD5DC09C
:101CE0001A968D919C911B97481759070CF055C077
:101CF00056968C9156978230B9F0833041F18130FD
:101D000049F414968D919C91841B950BAB01BC01F9
:101D1000615071092130310521F108F43FC02230B2
:101D2000310509F458C008951496ED91FC9115976A
:101D3000E61BF70BBF016150710916968D919C91BE
:101D4000FC01E41BF50BAF0141505109E3CF16969E
:101D50008D919C91861B970BBA01AC0141505109A2
:101D6000D9CFFA0157FD3796A3E0F595E795AA95E7
:101D7000E1F7F695FE2FEE27F795E795E60FF71FAB
:101D8000EF5FFD4F4770552721E030E001C0220F83
:101D90004A95EAF78081822B80830895FA0157FDE6
:101DA000379623E0F595E7952A95E1F7F695FE2F0E
:101DB000EE27F795E795E60FF71FEF5FFD4F4770AA
:101DC000552781E090E001C0880F4A95EAF7809599
:101DD00090818923E1CFFA0157FD379683E0F5958D
:101DE000E7958A95E1F7F695FE2FEE27F795E795AB
:101DF000E60FF71FEF5FFD4F4770552721E030E0FA
:101E000001C0220F4A95EAF780818227C5CF089545
:101E1000FC016370668B84819581268137816130F6
:101E200039F0633029F091878087338722870895BE
:101E3000318720879387828708952F923F924F9210
:101E40005F926F927F928F929F92AF92BF92CF924A
:101E5000DF92EF92FF920F931F93CF93DF93CDB753
:101E6000DEB76A970FB6F894DEBF0FBECDBF9A8F6C
:101E7000898F7A8369834A01D22E18870F833701AD
:101E8000BC2CDC0159962D913C915A9721153105B6
:101E900009F015C118968D919C91199768177907CB
:101EA0000CF0D7C11A968D919C91481759070CF0E8
:101EB000D0C14C2C512CB6E0CB9E600D711D11246D
:101EC0007C876B87161617060CF0C3C1EA2DF0E06D
:101ED000FA87E98793E0EE0FFF1F9A95E1F7F88BF9
:101EE000EF87CF01840F951F181619060CF0B1C1AA
:101EF000A98DBA8D58968C91811104C0BFEABD1589
:101F000008F4D394A98DBA8DED91FC9111970284B8
:101F1000F385E02DCD011995B5E0DB9EC0011124BC
:101F2000E981FA81FC83EB83312C212C9C012C5418
:101F30003E4F388F2F8B4A2D50E05E8B4D8BEF89B3
:101F4000F88DE20DF31D44919E828D82D12CC12C1F
:101F500069817A81620D731D7A8B698B842F90E081
:101F60009C8B8B8BE98DFA8DA081B18140FF82C063
:101F7000F1E0BF126FC0AF126DC01C96ED91FC91E5
:101F80002F813885A4014C0D5D1D69897A89898D61
:101F90009A8D1995EB89FC89F595E7954E2F5FEFA2
:101FA000C51AD50A6D817E818D899E89680F791F3A
:101FB0007E836D8398E0C916D10481F6AFEF2A1AAB
:101FC0003A0AEB81FC81E40DF51DFC83EB83F5E01F
:101FD0002F16310409F0B3CF2F8138852615370528
:101FE000B9F0A98DBA8DED91FC91B1E0BB1257C04B
:101FF000AB1255C069817A816B5F7F4F0088F18990
:10200000E02D830128E030E0A401898D9A8D199597
:10201000A98DBA8DED91FC9111970688F789E02D75
:10202000CD016A960FB6F894DEBF0FBECDBFDF912B
:10203000CF911F910F91FF90EF90DF90CF90BF90C5
:10204000AF909F908F907F906F905F904F903F9058
:102050002F9019941E96ED91FC91EF80F8840985DC
:102060001A8592014D815E816B817C81898D9A8D6B
:10207000199590CF2F8138852615370509F48ACF19
:1020800031E0B31207C0A31205C01C96ED91FC917C
:10209000930178CF1E96ED91FC917301E0CF6B8593
:1020A0007C85641975090684F785E02D73010F8519
:1020B00018899201A401898D9A8D1995A9CFF901EA
:1020C00034969491329745915491D91AB7E0DB9E9A
:1020D000400D511D1124F901259134913C8B2B8B1E
:1020E000FA0125903490FA01329674903196349129
:1020F000398B329664903196449041E04C1518F03B
:102100004A1508F07FC0662D062C000C770B7C83E7
:102110006B83842D042C000C990B9E838D83A98DD9
:10212000BA8DED91FC9111970284F385E02DCD01DC
:102130001995512CD12CC12CEA2DF0E0FA87E987B2
:102140002B2D30E03C872B87A401440D511D47FC0B
:102150005A95588F4F8B69817A81660D711D67FC86
:102160007A957E876D877989C71608F051CF2C2D17
:1021700030E04D815E81420F531FA985BA854A9F89
:10218000C0014B9F900D5A9F900D1124FC01E80D4A
:10219000F91DF88BEF87852D612C4F89588D420FE3
:1021A000531F5E8B4D8B671408F050C0442443943A
:1021B000480E877041F4C1010196EB89FC89E20D5C
:1021C000F31DD4901C01D7FE19C0A98DBA8DED91D5
:1021D000FC91662D70E0B1E0BB1219C0AB1217C0C4
:1021E0002D853E85620F731F0484F585E02D2F81B8
:1021F00038854D895E89898D9A8D1995DD0C63949A
:10220000842DD1CF1E821D821C821B8288CF4B81E0
:102210005C81640F751FAB85BC856A9FC0016B9F95
:10222000900D7A9F900D112469817A81680F791F32
:102230000684F785E02DEF80F88409851A859D01D5
:102240004F855889898D9A8D1995D8CF570CC3948D
:102250008ACF6A960FB6F894DEBF0FBECDBFDF916E
:10226000CF911F910F91FF90EF90DF90CF90BF9093
:10227000AF909F908F907F906F905F904F903F9026
:102280002F9008958F929F92AF92CF92EF92FF92EC
:102290000F931F93CF93DF93EC01262F898D9A8D97
:1022A000009709F051C06A30D1F41D861C868D89D3
:1022B00048E0849F900111248E859F85820F931F93
:1022C0009F878E8781E090E0DF91CF911F910F91E2
:1022D000FF90EF90CF90AF909F908F9008956D30CA
:1022E00089F3CC88AD888F898823C1F08C859D8542
:1022F00036E0C39E800D911D1124488559854817ED
:10230000590764F44E855F851D861C8638E0A39EC0
:10231000C0011124840F951F9F878E87EA88FB8850
:10232000088919894E855F856C857D85CE010E945F
:102330001D0F2C898C859D8546E0249F800D911D65
:1023400011249D878C87BECF6A3069F41D861C8658
:10235000FC013896E4912D898E859F85E29F800D42
:10236000911D1124ADCF6D3009F4ACCFFC01349632
:102370003491631708F4A6CF3296E491E61708F477
:10238000A1CFFC01329685909490462F431B342FA9
:1023900047E0349F800C911C1124F4013296349153
:1023A0003196E4913323A9F1EE2399F1CC88F4011D
:1023B0003596E491AD884F89442301F10E2E000C2F
:1023C000FF0BE30FF11DCE9EA001CF9E500D1124F7
:1023D0006C857D85460F571F68857985641775075D
:1023E0006CF44E855F851D861C86FC013896E49151
:1023F000AE9E400D511D11245F874E87EA88FB88F1
:10240000088919894E855F856C857D85CE010E947E
:102410001D0FF4013496E4912C898C859D85E29FF3
:10242000800D911D11248DCF6F927F928F929F927C
:10243000AF92BF92CF92DF92EF92FF920F931F93D2
:10244000CF93DF93EC016B015A0139014801E88118
:10245000F9810284F385E02D1995E881F9810288DC
:10246000F389E02D87019301A501B601CE011995ED
:10247000A501480D591D41505109E881F981028893
:10248000F389E02D9301B601CE011995E881F98118
:102490000088F189E02D9401A501B601CE011995BE
:1024A000C60CD71CB60161507109E881F98100881A
:1024B000F189E02D9401A501CE011995E881F981FA
:1024C0000688F789E02DCE01DF91CF911F910F9102
:1024D000FF90EF90DF90CF90BF90AF909F908F9044
:1024E0007F906F9019946F927F928F929F92AF928C
:1024F000BF92CF92DF92EF92FF920F931F93CF93F1
:10250000DF935C01EB016A01490138018701DC01BD
:10251000ED91FC916217730719F5641675062CF09E
:10252000962D872D3A01C92ED82E960126193709E6
:102530002F5F3F4F048CF58DE02DA301BE01C50137
:102540001995DF91CF911F910F91FF90EF90DF9040
:10255000CF90BF90AF909F908F907F906F90089595
:102560004615570591F42617370724F0892D4B019E
:10257000C22FD82F9E01281939092F5F3F4F068C93
:10258000F78DE02DA601B401DACF0284F385E02DAA
:102590001995D501ED91FC910488F589E02D830111
:1025A0009401A601BE01C5011995D501ED91FC91DB
:1025B0000688F789E02DC501DF91CF911F910F911A
:1025C000FF90EF90DF90CF90BF90AF909F908F9053
:1025D0007F906F901994EF92FF920F931F93DC01FD
:1025E0001A960D911C911B9718962D913C91199755
:1025F000ED91FC9100A0F1A1E02D7B0150E040E0C5
:1026000070E060E019951F910F91FF90EF90089591
:102610004F925F926F927F928F929F92AF92BF92F2
:10262000CF92DF92EF92FF920F931F93CF93DF939E
:102630006C012B015A0139014801DC01ED91FC913B
:102640000284F385E02D1995E201640C751CD60116
:10265000ED91FC91C615D7055CF40088F189E02D59
:1026600087019401A501BE01C60119952196EFCFFE
:102670000688F789E02DC601DF91CF911F910F9158
:10268000FF90EF90DF90CF90BF90AF909F908F9092
:102690007F906F905F904F9019948F929F92AF921E
:1026A000BF92CF92DF92EF92FF920F931F93CF933F
:1026B000DF93EC015B014A016901E881F981028441
:1026C000F385E02D199595012C0D3D1D2150310903
:1026D000E881F9810488F589E02D78018401A4015D
:1026E000B501CE011995E881F9810688F789E02DB9
:1026F000CE01DF91CF911F910F91FF90EF90DF906E
:10270000CF90BF90AF909F908F9019948F929F928F
:10271000AF92BF92CF92DF92EF92FF920F931F93EF
:10272000CF93DF93EC015B014A0169017801E881F5
:10273000F9810284F385E02D1995C80CD91C860116
:1027400001501109E881F9810488F589E02D95018E
:10275000A401B501CE011995E881F9810688F789B0
:10276000E02DCE01DF91CF911F910F91FF90EF905F
:10277000DF90CF90BF90AF909F908F901994EF9281
:10278000FF920F931F93DC01ED91FC9100A0F1A14A
:10279000E02D19951F910F91FF90EF9008950F93E1
:1027A0001F93DC01ED91FC91068CF78DE02D1995BE
:1027B0001F910F9108950F931F93DC01ED91FC91F0
:1027C000048CF58DE02D19951F910F910895DC0172
:1027D000ED91FC910084F185E02D19942F923F92A8
:1027E0004F925F926F927F928F929F92AF92BF9221
:1027F000CF92DF92EF92FF920F931F93CF93DF93CD
:1028000000D000D0CDB7DEB73C016A013E832D83F6
:10281000FC82EB825801A41AB50AB7FE03C0B1943A
:10282000A194B1088D809E80861A970A97FE03C0F6
:102830009194819491088A149B045CF0902F812FCD
:102840000D811E819D838E839C2D8D2D6B01692FA3
:10285000782F0C151D055CF09D818E817E836D8324
:10286000692F782F902F812F8601C92ED82E16011F
:10287000201A310A2B012D813E81421A530A57FE3C
:1028800003C0519441945108710137FE03C03FEFDA
:10289000E31AF30AF594E7948D819E8186179707D2
:1028A0005CF5A1E0B0E0BA83A983C016D1064CF173
:1028B000D301ED91FC910484F585E02D2B813C81C1
:1028C000A8016D817E818A149B041CF04D815E817C
:1028D000B801C3011995E418F508F7FE0AC02D8167
:1028E0003E8189819A81280F391F3E832D83E20C16
:1028F000F31C0F5F1F4FD9CF2FEF3FEF3A83298390
:10290000D4CF26960FB6F894DEBF0FBECDBFDF91B1
:10291000CF911F910F91FF90EF90DF90CF90BF90DC
:10292000AF909F908F907F906F905F904F903F906F
:102930002F9008958EBD00000DB407FEFDCF8EB51B
:102940000895CF93C82F80911D0C8F3F99F1E0918E
:10295000270CF091280C808190912D0C892B80837D
:10296000E091290CF0912A0C908180912E0C809599
:1029700089238083E091270CF091280C908180912D
:102980002D0C8095892380838091220C882371F0FF
:102990008C2F0E949A14E091270CF091280C8081D2
:1029A00090912D0C892B8083CF9108958C2F0E94BC
:1029B0004806F1CF80911B0C91E090930E08809314
:1029C0000D0810920C0810920B0860E08FE098E060
:1029D0000E94F3066C2F8FE098E00E94F3068FE0D0
:1029E00098E0CF910C94FF088F929F92AF92BF9284
:1029F000CF92DF92EF92FF920F931F93CF93DF93CB
:102A000080E00E94A11480E10E94A11480E40E9451
:102A1000A11480911D0C8F3F09F466C030EBF32E9A
:102A2000D0E0C0E08F2D0E94A11482E00E94A1148A
:102A300080E10E94A11410E000E0CE018F5F9D4F65
:102A40006C01E091270CF091280C808190912D0C65
:102A5000892B8083E091290CF0912A0C8081909140
:102A60002E0C892B8083E091270CF091280C90810B
:102A700080912D0C8095892380835601A00EB11E74
:102A800020E1E22EF50181915F019091220C9923C2
:102A900041F10E949A14EA94E110F4CFE091270CDE
:102AA000F091280C808190912D0C892B8083005F00
:102AB0001F4F0038110529F6C058DF4FF394C11598
:102AC000F4E0DF0709F0AECFDF91CF911F910F91B6
:102AD000FF90EF90DF90CF90BF90AF909F908F903E
:102AE00008950E944806D7CF9090B8008CE080935C
:102AF000B80090EBF92ED0E0C0E0882483948F2DAD
:102B00000E94A11482E00E94A11480E10E94A114FD
:102B100010E000E0CE018F5F9D4F5C0180911B0CA7
:102B200080920E0880930D0810920C0810920B08EA
:102B300060E48FE098E00E94F3066501C00ED11EAC
:102B400080E1E82EF60161916F018FE098E00E942C
:102B5000F306EA94E110F6CF8FE098E00E94FF08B8
:102B6000005F1F4F00381105C9F6C058DF4FF394BE
:102B7000C115F4E0DF0719F69092B800A5CFFC016B
:102B8000248131E030930E0820930D0810920C0838
:102B900010920B088485682B8FE098E00E94F30662
:102BA0008FE098E00C94FF08089590E080E008958D
:102BB00082E080931C0C8CE380931B0C80911D0C95
:102BC0008F3F09F4F7C061E080911F0C0E941F083D
:102BD00061E08091210C0E941F088091210C082E39
:102BE000000C990BFC01E157F44FE491F0E0EE0F7B
:102BF000FF1FEB58F44F259134913093280C20930C
:102C0000270CFC01E15DF44FE491E0932D0C8091E1
:102C10001F0C082E000C990BFC01E157F44FE491B6
:102C2000F0E0EE0FFF1FEB58F44F259134913093F5
:102C30002A0C2093290CFC01E15DF44FE491E09310
:102C40002E0C8091220C81113EC061E080911D0C00
:102C50000E941F0861E080911E0C0E941F08809155
:102C60001E0C082E000C990BFC01E157F44FE49167
:102C7000F0E0EE0FFF1FEB58F44F259134913093A5
:102C8000260C2093250CFC01E15DF44FE491E093C8
:102C90002C0C80911D0C082E000C990BFC01E157A7
:102CA000F44FE491F0E0EE0FFF1FEB58F44F259145
:102CB00034913093240C2093230CFC01E15DF44FFC
:102CC000E491E0932B0C8091220C882341F00E9428
:102CD000A4088CB58C7F8CBD8DB581608DBD61E005
:102CE0008091200C0E941F0861E08091200C0E94BE
:102CF000B20761E070E080E090E00E941F0A60E0AF
:102D00008091200C0E94B2076AE070E080E090E0C1
:102D10000E941F0A61E08091200C0E94B2078EEA97
:102D20000E94A11485ED0E94A11480E80E94A114C4
:102D300088EA0E94A1148FE30E94A11483ED0E94EF
:102D4000A11480E00E94A11480E40E94A1148DE8E7
:102D50000E94A11484E10E94A11480E20E94A114A7
:102D600080E00E94A11481EA0E94A11488EC0E94D4
:102D7000A1148AED0E94A11482E10E94A11481E8AD
:102D80000E94A1148FEC0E94A11489ED0E94A1144D
:102D900081EF0E94A1148BED0E94A11480E40E9497
:102DA000A11484EA0E94A11486EA0E94A1148FEA69
:102DB0000C94A11410920A081092090810920C08A1
:102DC00010920B080E94E00783E796E090930808B2
:102DD0008093070884E796E090930608809305089F
:102DE0007ECF0F931F93CF938C01C62F64600E94F8
:102DF000BF156C2F6B7FC8010E94BF1583EC90E05C
:102E00000197F1F7CF911F910F9108950F931F93A1
:102E1000CF93DF938C01C62FD62FD07FD1606D2F3B
:102E20000E94BF156D2FC8010E94F11680E1C89F56
:102E3000E0011124C1606C2FC8010E94BF156C2FE6
:102E4000C8010E94F11681E090E0DF91CF911F91BF
:102E50000F910895FB0101900020E9F73197AF0130
:102E6000461B570BDC01ED91FC910280F381E02DB4
:102E700019948F929F92AF92BF920F931F93CF930B
:102E8000DF93CDB7DEB7A1970FB6F894DEBF0FBEC4
:102E9000CDBF19A2423008F44AE08E010F5D1F4FEA
:102EA000842E912CB12CA12CA50194010E946F239A
:102EB000E62FB901CA01EA3004F5E05DD801EE93CE
:102EC0008D01232B242B252B79F790E080E01097A0
:102ED00029F0BD0185E599E00E942A17A1960FB659
:102EE000F894DEBF0FBECDBFDF91CF911F910F9140
:102EF000BF90AF909F908F900895E95CDFCFCF9205
:102F0000DF92EF92FF92CF93DF936B017C016DE232
:102F100085E599E00E94140BEC0166277727CB0129
:102F20006C197D098E099F094AE00E9439178C0FA0
:102F30009D1FDF91CF91FF90EF90DF90CF9008958C
:102F4000BC01990F880B990B97FD0C947F174AE0F1
:102F50000C943917CF93DF93BC0185E599E00E946B
:102F60002A17EC016BE776E085E599E00E942A17C5
:102F70008C0F9D1FDF91CF910895CF92DF92EF923A
:102F8000FF92CF93DF939091F40B891720F09091EB
:102F9000F50B981750F48EE796E0DF91CF91FF90F4
:102FA000EF90DF90CF900C94AA17E091FA0BEC30E1
:102FB00008F051C0282F30E0CE2FD0E095E0E99FF7
:102FC000F0011124EC53F54F938178E8C72ED12CF2
:102FD000C91AD10897FDD394CC0CDD1CCC0CDD1C98
:102FE000283C31050CF03EC00D2C000CEE08FF080B
:102FF000948128E532E0291B310997FD3395220F92
:10300000331F220F331F032E000C440B550B2C19BA
:103010003D094E095F09A82FB0E00E94642324EB0C
:1030200030E040E050E00E944523C20ED31EE41E73
:10303000F51E8FB7F89495E09C9FF0019D9FF00DD1
:103040001124EC53F54F96E0C91AD108CC0CDD1CC5
:10305000D282C1828FBFDF91CF91FF90EF90DF903E
:10306000CF9008952C153D0524F3848148E5C42EA6
:1030700042E0D42EC81AD10887FDD394CC0CDD1CB5
:10308000CC0CDD1C2C153D05A4F66901D2CF0C94A7
:103090002A17E1E0F2E080E094E0DF019C011D925C
:1030A00021503040E1F70895CF93DF93EC01833056
:1030B000910509F47DC094F48130910599F102974E
:1030C00009F458C068E873E180E090E00E941F0AAC
:1030D0000E944918DF91CF910C94F414843091052B
:1030E00009F484C0059771F70E94491882E0809323
:1030F000140C8093150C81E090E09093130C809356
:10310000120C9093110C8093100C10920D0C1092D5
:103110000C0C8DE190E090930F0C80930E0C65EBFE
:1031200076E01BC00E94491882E08093140C8093C3
:10313000150CD093130CC093120CD093110CC093A8
:10314000100C10920D0C10920C0C8DE190E09093ED
:103150000F0C80930E0C6BE976E080E09CE00E94FF
:1031600047180E94F41468EE73E080E090E00E943B
:103170001F0AA8CF0E94491882E08093140C809304
:10318000150C81E090E09093130C8093120C9093B7
:10319000110C8093100C10920D0C10920C0C8DE100
:1031A00090E090930F0C80930E0C61EA76E0D5CFFF
:1031B0000E94491882E08093140C8093150C81E0E2
:1031C00090E09093130C8093120C9093110C8093C9
:1031D000100C10920D0C10920C0C8DE190E090935D
:1031E0000F0C80930E0C64EA76E0B7CF0E9449186A
:1031F00082E08093140C8093150C81E090E0909312
:10320000130C8093120C9093110C8093100C10925D
:103210000D0C10920C0C8DE190E090930F0C8093AC
:103220000E0C6EEA76E099CF85ED8093BC0080911C
:10323000930790919407A0919507B09196070796F0
:10324000A11DB11D23E0B695A795979587952A9561
:10325000D1F72091BC0024FD03C01092DC07089533
:10326000409193075091940760919507709196074C
:10327000452B462B472B69F30097A105B10541F07B
:1032800025E32A95F1F700000197A109B109E1CFE3
:10329000809192070C94FE070E94BA251F920F920C
:1032A0000FB60F9211240F900FBE0F901F9018951C
:1032B0001F920F920FB60F9211240BB60F922F93FD
:1032C0003F934F935F936F937F938F939F93AF93AE
:1032D000BF93EF93FF938091B900887F803609F404
:1032E0004DC008F040C0883209F4A9C028F58031EB
:1032F00009F49DC0C8F4882309F4FBC0883009F4A0
:1033000096C0FF91EF91BF91AF919F918F917F9167
:103310006F915F914F913F912F910F900BBE0F9046
:103320000FBE0F901F901895883109F488C0803225
:1033300041F78093DB0714C0803409F49DC040F44A
:103340008033B9F38833E9F68093DB0785ECB0C0AE
:10335000803509F485C0883509F496C0883489F62B
:103360000E941419CECF883909F48CC038F58837FB
:1033700029F050F4883611F0803719F683E08093F5
:10338000DC071092DA0757C0883809F47BC080390F
:1033900019F0803809F0B5CF8091DA07803208F053
:1033A00071C0E091DA0781E08E0F8093DA07809197
:1033B000BB00F0E0E654F84F80833DC0803B39F01D
:1033C000E0F4803A09F479C0883A09F09ACF84E0B1
:1033D0008093DC071092B9071092B807E0910708B4
:1033E000F091080819958091B80781110FC081E00C
:1033F0008093B8071092980709C0803C09F4A6CFC3
:10340000883C09F4A3CF883B09F07BCFE091B90752
:1034100081E08E0F8093B907F0E0E856F84F808185
:103420008093BB009091B9078091B80729C0809123
:1034300001088093BB0085EC8093BC0062CF909123
:1034400000088091FF07981758F5E091000881E087
:103450008E0F80930008F0E0E152F84F8081E9CFB1
:10346000E091000881E08E0F809300088091BB00FE
:10347000F0E0E152F84F8083909100088091FF07BF
:103480009817C8F285E8D8CFE091000881E08E0F48
:10349000809300088091BB00F0E0E152F84F8083F8
:1034A0008091DE0781115CCF81E08093DD0784EAA3
:1034B0008093BC001092DC0724CF85EC8093BC0085
:1034C0001092DC078091DA07803230F4E091DA075D
:1034D000F0E0E654F84F10826091DA0770E0E09176
:1034E0000508F09106088AEB97E019951092DA0723
:1034F00008CF1092DB0734CF1F920F920FB60F92B6
:1035000011242F933F938F939F93AF93BF938091F9
:103510004A0790914B07A0914C07B0914D0730910D
:10352000490723E0230F2D3758F50196A11DB11D42
:103530002093490780934A0790934B07A0934C0729
:10354000B0934D0780914E0790914F07A09150077F
:10355000B09151070196A11DB11D80934E07909324
:103560004F07A0935007B0935107BF91AF919F9120
:103570008F913F912F910F900FBE0F901F90189534
:1035800026E8230F0296A11DB11DD2CF1F920F92E4
:103590000FB60F9211240BB60F922F933F934F93B8
:1035A0005F936F937F938F939F93AF93BF93EF93AB
:1035B000FF938091450790914607A0914707B091EE
:1035C0004807892B8A2B8B2BD1F19091440780914E
:1035D000000089278093000080914507909146075D
:1035E000A0914707B0914807181619061A061B063E
:1035F0009CF48091450790914607A0914707B091B0
:1036000048070197A109B1098093450790934607A0
:10361000A0934707B0934807FF91EF91BF91AF91F7
:103620009F918F917F916F915F914F913F912F91DA
:103630000F900BBE0F900FBE0F901F9018958091AA
:103640000002E4EBF6E0E4919FEF90930002E23099
:10365000E9F040F4EE2389F0E13091F060E00E945F
:10366000B207DACFE43049F110F1E530B9F79091C3
:1036700073009D7F90937300F1CF10926E00EECF98
:1036800090916F009D7F90936F00E8CF90917000B4
:103690009D7F9093700091E09093B0009091B10065
:1036A000987F94609093B1001092B300D7CF90911F
:1036B00071009D7F90937100D1CF909172009D7F9A
:1036C00090937200CBCF1F920F920FB60F921124DE
:1036D0000BB60F922F933F934F935F936F937F930C
:1036E0008F939F93AF93BF93EF93FF938BE198E0FA
:1036F0000E94F20AFF91EF91BF91AF919F918F913C
:103700007F916F915F914F913F912F910F900BBEE1
:103710000F900FBE0F901F9018951F920F920FB62B
:103720000F9211240BB60F922F933F934F935F93F9
:103730006F937F938F939F93AF93BF93EF93FF9379
:103740008BE198E00E947E0AFF91EF91BF91AF91CB
:103750009F918F917F916F915F914F913F912F91A9
:103760000F900BBE0F900FBE0F901F9018951F92D9
:103770000F920FB60F9211240BB60F922F933F9317
:103780004F935F936F937F938F939F93AF93BF9369
:10379000EF93FF9388EB98E00E94F20AFF91EF917C
:1037A000BF91AF919F918F917F916F915F914F9159
:1037B0003F912F910F900BBE0F900FBE0F901F9057
:1037C00018951F920F920FB60F9211240BB60F92FD
:1037D0002F933F934F935F936F937F938F939F9319
:1037E000AF93BF93EF93FF9388EB98E00E947E0A1C
:1037F000FF91EF91BF91AF919F918F917F916F91C9
:103800005F914F913F912F910F900BBE0F900FBE84
:103810000F901F9018951F920F920FB60F921124C0
:103820000BB60F922F933F934F935F936F937F93BA
:103830008F939F93AF93BF93EF93FF9385E599E0A9
:103840000E94F20AFF91EF91BF91AF919F918F91EA
:103850007F916F915F914F913F912F910F900BBE90
:103860000F900FBE0F901F9018951F920F920FB6DA
:103870000F9211240BB60F922F933F934F935F93A8
:103880006F937F938F939F93AF93BF93EF93FF9328
:1038900085E599E00E947E0AFF91EF91BF91AF917B
:1038A0009F918F917F916F915F914F913F912F9158
:1038B0000F900BBE0F900FBE0F901F9018951F9288
:1038C0000F920FB60F9211240BB60F922F933F93C6
:1038D0004F935F936F937F938F939F93AF93BF9318
:1038E000EF93FF938091F3090E9489072091F709D4
:1038F0003091F8092F5F3F4F3093F8092093F70973
:103900009091F609953618F096E09093F20990910F
:10391000F209943009F466C0B8F49230F1F09330B3
:1039200009F444C09091F509992309F46BC0811101
:103930007CC08091F409882309F463C08091F40964
:1039400061E00E94B2075EC0953009F457C096301E
:1039500049F791E09093C30A4FC08111E3CF2091C2
:10396000F7093091F8092436310528F41092F80946
:103970001092F709D7CF1092C30A1092F609E0917E
:10398000F60991E09E0F9093F609F0E02091F70977
:103990003091F809EE0FFF1FEE50F64F3087278366
:1039A0001092F8091092F70993E019C0813009F0DC
:1039B000B9CFE091F60991E09E0F9093F609F0E0FF
:1039C0002091F7093091F809EE0FFF1FEE50F64FE6
:1039D000308727831092F8091092F70994E09093AA
:1039E000F209A0CF882359F22091F7093091F80904
:1039F0002536310508F496CF95E0F1CF811192CFAD
:103A0000B5CF2F9AFF91EF91BF91AF919F918F9179
:103A10007F916F915F914F913F912F910F900BBECE
:103A20000F900FBE0F901F9018958091F409882376
:103A300021F08091F40960E084CF2F98E3CF1F92AA
:103A40000F920FB60F9211240BB60F922F933F9344
:103A50004F935F936F937F938F939F93AF93BF9396
:103A6000CF93DF93EF93FF9380914307C091000BB7
:103A7000D0E087FF23C010928500109284008091CF
:103A800043078F5F8093430780914307082E000C04
:103A9000990B8C179D0724F4809143078C3074F1A7
:103AA000809184009091850084349C4908F465C01D
:103AB0008091840090918500049661C080914307B5
:103AC000082E000C990B8C179D07CCF630914307FC
:103AD00025E03203F0011124EC53F54F808186FF7D
:103AE000CECF309143073203F0011124EC53F54F50
:103AF000808160E08F730E94B207C1CF8091840003
:103B0000909185003091430725E03203F0011124A4
:103B1000EC53F54F41815281840F951F909389009A
:103B200080938800309143073203F0011124EC5355
:103B3000F54F808186FF0CC0309143073203F001BE
:103B40001124EC53F54F808161E08F730E94B2071E
:103B5000FF91EF91DF91CF91BF91AF919F918F91A5
:103B60007F916F915F914F913F912F910F900BBE7D
:103B70000F900FBE0F901F90189580E49CE99093D2
:103B80008900809388008FEF80934307E1CF1092E4
:103B900012081092110888EE93E0A0E0B0E0809344
:103BA000130890931408A0931508B093160823E205
:103BB00036E03093100820930F0810921E081092E0
:103BC0001D0880931F0890932008A0932108B093AC
:103BD000220825E336E030931C0820931B0845E3B8
:103BE00051E0509328084093270844E351E0509354
:103BF0002A084093290840E351E050932C08409351
:103C00002B0841E351E050932E0840932D0842E3E6
:103C100051E05093300840932F0846E351E0509311
:103C200032084093310810923408109235081092EF
:103C30003608109237081092BB081092BA08809389
:103C4000BC089093BD08A093BE08B093BF08309302
:103C5000B9082093B80845ED50E05093C50840934B
:103C6000C40844ED50E05093C7084093C60840EDA7
:103C700050E05093C9084093C80841ED50E050937C
:103C8000CB084093CA0842ED50E05093CD084093D2
:103C9000CC0846ED50E05093CF084093CE081092E8
:103CA000D1081092D2081092D3081092D408109222
:103CB0005809109257098093590990935A09A09373
:103CC0005B09B0935C09309356092093550985EC44
:103CD00090E0909362098093610984EC90E0909366
:103CE00064098093630980EC90E090936609809367
:103CF000650981EC90E0909368098093670982ECF4
:103D000090E090936A098093690986EC90E0909323
:103D10006C0980936B0910926E0910926F091092D2
:103D20007009109271098091070690910806A09180
:103D30000906B0910A068093EA0B9093EB0BA093CF
:103D4000EC0BB093ED0B80910B0690910C06A091BB
:103D50000D06B0910E068093EE0B9093EF0BA0939F
:103D6000F00BB093F10B84E08093F20B87E080932B
:103D7000F30B1092F40B84EB8093F50B86E18093A8
:103D8000F60B88E18093F70B87E18093F80B89E1CC
:103D90008093F90BE091000BEC3008F4ABC08FEF8F
:103DA0008093FA0BE091000BEC3008F4B4C08FEF75
:103DB0008093FB0B8CE08093C90B84E28093CA0B49
:103DC00086E08093CB0B85E08093CC0B8FE18093D2
:103DD000CD0B8EE18093CE0B83E28093CF0B82E2FA
:103DE0008093D00B85E48093D10B84E48093D20B35
:103DF00080E48093D50B1092DA0B1092DB0B1092BB
:103E0000DC0B1092DD0B1092DE0B1092DF0B109288
:103E1000E00B1092E10BEBE0FBE08FEF9FEFDC019A
:103E200012821382148215821682178210861186DE
:103E300083879487A587B6878787908BA18BB28B62
:103E400012861182108273962BE0E93CF20741F74B
:103E50008DE090E00E94B423FC011382128287E47B
:103E600096E091838083118687E2848384E1828750
:103E700084E083871486F093080BE093070B10927D
:103E8000090B10920A0B85E28093F3091092F50951
:103E90001092020B1092010B1092040B1092030B64
:103EA0001092060B1092050B61E070E090E080E04C
:103EB0000E94D924009709F43FC09093020B80938D
:103EC000010B1092040B1092030B2091050B309103
:103ED000060B232B11F4FC0110821092060B10929A
:103EE000050B6DEE76E08091010B9091020B0E9424
:103EF000C82536C081E08E0F8093000BE093FA0B4B
:103F000025E0E29FF0011124EC53F54F88EB9BE094
:103F10009283818347CF81E08E0F8093000BE093E3
:103F2000FB0B85E0E89FF0011124EC53F54F88EB83
:103F30009BE0928381833ECF8091010B9091020B95
:103F4000009711F00E9450241092020B1092010B66
:103F50001092060B1092050B1092040B1092030B9B
:103F60001092030C1092020C20E830E03093050C04
:103F70002093040C80E490E09093070C8093060C4F
:103F80003093090C2093080C90930B0C80930A0C2F
:103F90001092160C10920D0C10920C0C10920F0C2B
:103FA00010920E0C81E08093150C8093140C2FEF6F
:103FB0003FEF3093130C2093120C3093110C20938D
:103FC000100C8093170C1092180C10921A0C10926F
:103FD000190C83E596E09093010C8093000C8FEF11
:103FE00080931D0C8093210C80931F0C80931E0CDA
:103FF0008093200C0895789484B5826084BD84B544
:10400000816084BD85B5826085BD85B5816085BDD3
:1040100080916E00816080936E001092810080918B
:104020008100826080938100809181008160809313
:104030008100809180008160809380008091B10038
:1040400084608093B1008091B00081608093B00063
:1040500080919100826080939100809191008160B5
:104060008093910080919000816080939000809176
:10407000A10082608093A1008091A1008160809363
:10408000A1008091A00081608093A0008091210117
:1040900082608093210180912101816080932101C0
:1040A0008091200181608093200180917A0084605A
:1040B00080937A0080917A00826080937A00809168
:1040C0007A00816080937A0080917A008068809382
:1040D0007A001092C1000E94200661E08091CA0B14
:1040E0000E941F0860E08091CA0B0E94B20760E046
:1040F0008091C90B0E941F088FE098E09093D40B29
:104100008093D30B10920A081092090810920C08A1
:1041100010920B080E94E00783E796E0909308084E
:104120008093070884E796E090930608809305083B
:1041300080E090E1A0E0B0E08093D60B9093D70BA5
:10414000A093D80BB093D90B8AE090E0A0E0B0E048
:104150008093DA0B9093DB0BA093DC0BB093DD0B19
:1041600080E090E0A0E0B0E48093DE0B9093DF0B62
:10417000A093E00BB093E10B60E070E185E00E945A
:10418000E6096FE979E380E00E94E6094BEC842EB2
:104190004BE0942EC9ECDBE05DECC52E5BE0D52E48
:1041A0006BECE62E67E0F62E7BE8A72EBB24B394DB
:1041B000F401928181914F01898F9A8F61E00E9471
:1041C0001F0861E08A8D0E941F08F4019581838198
:1041D0008D8F9E8F61E00E941F0860E08E8D0E948F
:1041E0001F0861E08D8D0E94B2070E94A408C701DC
:1041F0000197F1F760E08D8D0E94B20788E80E9478
:104200009A1483E00E949A1461E08D8D0E94B20797
:10421000C7010197F1F760E08D8D0E94B20788E930
:104220000E949A1480E00E949A1480E00E949A14DE
:1042300080E00E949A1480E00E949A1461E08D8DC3
:104240000E94B207C5010197F1F760E08D8D0E94D1
:10425000B20780EE0E949A1461E08D8D0E94B20731
:104260002296CC16DD0609F0A3CFCEEEDBE060E0AF
:1042700089910E941F08FBE0C23FDF07C1F76091F0
:10428000F20B70E08AEF9BE00E9450089091F80BCF
:104290008091F60B8093FC0B9093FD0B60E00E94E5
:1042A0001F0861E08091FD0B0E941F0860E0809173
:1042B000FD0B0E94B2076091F30B70E08BEF9BE067
:1042C0000E9450089091F90B8091F70B8093FE0BA0
:1042D0009093FF0B60E00E941F0861E08091FF0B4C
:1042E0000E941F0860E08091FF0B0E94B207F894C3
:1042F0001092200189E08093210180E293E0909365
:10430000290180932801109225011092240182E056
:104310008093730078948093F2091092F60980914B
:10432000F30960E00E941F080E9420060E94D81531
:104330000E9449180E94F41461E083E00E941F0863
:1043400061E085E00E941F0861E086E00E941F088E
:1043500060E08EE20E941F0860E080E30E941F0878
:1043600060E081E30E941F0860E088E20E941F086D
:1043700060E086E20E941F0860E087E20E941F085A
:1043800060E08FE30E941F0860E08CE20E941F083B
:1043900060E08EE30E941F0860E080E40E941F0836
:1043A00061E089E20E941F0860E089E20E94B20792
:1043B0006091F20B70E08AEF9BE00E94500884EB62
:1043C0000E94BD1768EC70E080E090E00E941F0A38
:1043D00080EC96E00E94AA17E091FA0B85E0E89F36
:1043E000F0011124EC53F54F80818F7B80830E9474
:1043F000D8150E94491822E4A22E35E0932ED12C24
:10440000C12CB12CF12CE12CD0E0C0E0CE018770A2
:104410009927BB0C892B59F4FE0193E0F595E7959C
:104420009A95E1F7EC0DFD1DEB54F94FB490B7FEF2
:1044300008C021E030E0A701BE0180E09CE00E94BE
:10444000E7132196C038D10509F7EFEFEE1AFE0AFF
:10445000F0E1CF0ED11C80E4E816F104A9F60E9429
:10446000F4148CE20E948907EC01019739F08AE28A
:104470000E9489070197A9F7C2E0D0E064E670E0E6
:1044800080E090E00E941F0A219709F061C06091CE
:10449000F20B70E08AEF9BE00E9450088BE40E94D0
:1044A000BD1762E370E080E090E00E941F0A8AE29C
:1044B0000E948907892BD9F368EE73E080E090E0D1
:1044C0000E941F0A82EB0E94BD1768EE73E080E035
:1044D00090E00E941F0A8BE40E94BD1760ED77E018
:1044E00080E090E00E941F0A8AE20E948907892BDF
:1044F000D9F384EB0E94BD176AEF70E080E090E092
:104500000E941F0AE091FA0B9E9EF0011124EC53C9
:10451000F54F80818F7B808368EE73E080E090E0D0
:104520000E941F0A64E670E080E090E00E941F0A8B
:104530000E94840B64CF4AE00E94391745C001E015
:1045400010E07DC002E010E07AC003E010E077C028
:104550000E9449186CEF76E085E599E00E944718C3
:1045600068EE73E080E090E00E941F0A68E177E067
:1045700085E599E00E94471885E090E00E94541874
:1045800084E6C82ED12CD0E0C0E080917B0088600A
:1045900080937B00A0927C0080917A00806480935D
:1045A0007A0080917A0086FDFCCF80917800E090BF
:1045B0007900FE2CE82EB7010F2C000C880B990B0C
:1045C000F7FEB9CF0E947F176CEE76E085E599E0A3
:1045D0000E944718CE15DF050CF4E70164E170E096
:1045E00080E090E00E941F0AE1E0CE1AD10869F64F
:1045F00069EE76E085E599E00E944718CE010E94B9
:10460000A01769EE76E085E599E00E944718C93C5D
:10461000D1050CF494CFCE01895C910984369105C3
:1046200008F490CF845691098436910508F48DCF13
:10463000C159D140C037D24010F404E010E069EE17
:1046400076E085E599E00E944718C8010E94A0170E
:1046500069EE76E085E599E00E9447186EEE76E017
:1046600085E599E00E944718C8010E94541860EA45
:104670007FE080E090E054CF8091010B9091020B9D
:10468000009711F00C9450240895052E97FB1EF40A
:1046900000940E945C2357FD07D00E946F2307FC03
:1046A00003D04EF40C945C235095409530952195A1
:1046B0003F4F4F4F5F4F089590958095709561954E
:1046C0007F4F8F4F9F4F08950E949123A59F900D7C
:1046D000B49F900DA49F800D911D11240895A1E217
:1046E0001A2EAA1BBB1BFD010DC0AA1FBB1FEE1F6C
:1046F000FF1FA217B307E407F50720F0A21BB30BB7
:10470000E40BF50B661F771F881F991F1A9469F732
:1047100060957095809590959B01AC01BD01CF018E
:104720000895A29FB001B39FC001A39F700D811D8A
:104730001124911DB29F700D811D1124911D0895AA
:10474000991B79E004C0991F961708F0961B881FE3
:104750007A95C9F780950895EE0FFF1F881F8BBFCC
:104760000790F691E02D19940F931F93CF93DF9349
:104770008230910510F482E090E0E091310CF091EC
:10478000320C30E020E0B0E0A0E0309799F4211541
:10479000310509F44AC0281B390B24303105D8F5FE
:1047A0008A819B816115710589F1FB019383828365
:1047B000FE0111C0408151810281138148175907C0
:1047C000E0F04817590799F4109761F012960C938E
:1047D000129713961C933296CF01DF91CF911F91C0
:1047E0000F9108950093310C1093320CF4CF2115E2
:1047F000310551F04217530738F0A901DB019A0146
:10480000BD01DF01F801C1CFEF01F9CF9093320C68
:104810008093310CCDCFFE01E20FF31F8193919372
:104820002250310939832883D7CF20912F0C309122
:10483000300C232B41F42091030630910406309371
:10484000300C20932F0C2091010630910206211587
:10485000310541F42DB73EB740910506509106064B
:10486000241B350BE0912F0CF091300CE217F3076D
:10487000A0F42E1B3F0B2817390778F0AC014E5FD0
:104880005F4F2417350748F04E0F5F1F5093300CD1
:1048900040932F0C819391939FCFF0E0E0E09CCF69
:1048A000CF93DF930097E9F0FC01329713821282D5
:1048B000A091310CB091320CED0130E020E0109766
:1048C000A1F420813181820F931F20912F0C309110
:1048D000300C2817390709F061C0F093300CE093D1
:1048E0002F0CDF91CF910895EA01CE17DF07E8F58D
:1048F0004A815B819E0141155105B1F7E901FB83B6
:10490000EA8349915991C40FD51FEC17FD0761F453
:10491000808191810296840F951FE9019983888394
:10492000828193819B838A83F0E0E0E012968D91EF
:104930009C9113970097B9F52D913C911197CD015A
:104940000296820F931F20912F0C3091300C281764
:10495000390739F6309751F51092320C1092310C1C
:10496000B093300CA0932F0CBCCFD383C283408173
:104970005181840F951FC817D90761F44E5F5F4FAF
:1049800088819981480F591F518340838A819B8177
:10499000938382832115310509F0B0CFF093320C57
:1049A000E093310C9ECFFD01DC01C0CF1382128257
:1049B000D7CF4F925F926F927F928F929F92AF92DA
:1049C000BF92CF92DF92EF92FF920F931F93CF93FC
:1049D000DF938C01009799F4CB01DF91CF911F9168
:1049E0000F91FF90EF90DF90CF90BF90AF909F908E
:1049F0008F907F906F905F904F900C94B423FC0148
:104A0000E60FF71F9C0122503109E217F30708F463
:104A1000AEC0D901CD91DC911197C617D70720F10F
:104A2000C530D10578F0CE0104978617970750F06E
:104A3000C61BD70B2297C193D1936D937C93CF0163
:104A40000E945024C801DF91CF911F910F91FF90D8
:104A5000EF90DF90CF90BF90AF909F908F907F901E
:104A60006F905F904F9008955B01AC1ABD0A4C01A6
:104A70008C0E9D1EA091310CB091320C512C412C0A
:104A8000F12CE12C109731F580912F0C9091300C86
:104A90008815990509F05CC04616570608F058C0FD
:104AA0008091010690910206009741F48DB79EB760
:104AB0004091050650910606841B950BE817F907EF
:104AC00008F055C0F093300CE0932F0CF90171837E
:104AD0006083B8CF8D919C91119712966C9012972C
:104AE00013967C901397A815B90559F56C0142E00F
:104AF000C40ED11CCA14DB0420F1AC014A195B09B5
:104B0000DA011296159780F0628273825183408396
:104B1000D9016D937C93E114F10471F0D7011396E0
:104B2000FC93EE9312978ECF22968C0F9D1FF90166
:104B300091838083F301EFCFF093320CE093310C3B
:104B400081CF4816590608F42C017D01D3019ACF74
:104B5000CB010E94B4237C01009749F0AE01B8015B
:104B60000E94BF25C8010E94502487016BCF10E02E
:104B700000E068CF81E090E0F8940C94CF25FB0131
:104B8000DC0102C001900D9241505040D8F70895C9
:104B9000FB01DC0101900D920020E1F7089515E082
:104BA000CCEED5E000E006C0802FFE010E94AC23D1
:104BB0002196011DCD3ED10780E00807A9F7F894A2
:024BC000FFCF25
:104BC200FF000000000000000000000000000000E4
:104BD20000000000000000000000000000000000D3
:104BE20000000000000000000000000000000000C3
:104BF20000000000000000000000000000000000B3
:104C02008080800000000000000000000000000022
:104C120000008080C0C00000000000000000000012
:104C22000000000000000000000000000000000082
:104C32000000000000000000000000000000000072
:104C42000000000000000000000000000000000062
:104C5200000000000080C0E0F0F8FCF8E000000076
:104C62000000000000000000000000000000808042
:104C72008080800080800000000080808080800032
:104C8200FFFFFF0000000080808080000080800025
:104C92000080FFFF80800080800080808080008014
:104CA200800000000000808000008C8E8400008064
:104CB200F8F8F8800000000000000000000000008A
:104CC20000F0F0F0F0F0F0F0F0F0F0F0F0E0E0C022
:104CD2008000E0FCFEFFFFFF7FFFFFFFFFFF000001
:104CE200000000000000000000000000FEFFC701FD
:104CF20001010183FFFF00007CFEC7010101018366
:104D0200FFFFFF0038FEC78301010183C7FFFF00D9
:104D12000001FFFF010100FFFF0701010100007F09
:104D2200FF80000000FFFF7F0000FFFFFF00000187
:104D3200FFFFFF0100000000000000000000000073
:104D420000030F3F7F7FFFFFFFFFFFFFFFE7C7C7A4
:104D52008F8F9FBFFFFFC3C0F0FFFFFFFFFFFCFC71
:104D6200FCFCFCFCFCFCF8F8F0F0E0C000010303E2
:104D72000303030103030000000001030303030113
:104D82000103010000000103030303010103030007
:104D92000000030300000003030000000000000005
:104DA20001030303030301000000010301000000EB
:104DB20003030100000000000000000000000000EA
:104DC2000000000080C0E0F0F9FFFFFFFFFF3F1F7F
:104DD2000F87C7F7FFFF1F1F3DFCF8F8F8F87C7D2F
:104DE200FFFFFFFFFFFFFFFF7F3F0F070030300095
:104DF20000000000000000000000000000000000B1
:104E02000000000000FEFEFC0000000000000000A8
:104E12000000000000000000000000000000E0C0F0
:104E22000000000000000000000000303000000020
:104E32000000000000000000000000000000000070
:104E42000000C0FEFFFFFFFFFFFFFFFFFF7F7F3F6E
:104E52001F0F071F7FFFFFF8F8FFFFFFFFFFFEF89E
:104E6200E0000000010000000000000000FEFE0063
:104E72000000FCFEFC0C06060EFCF80000F0F81C1C
:104E82000E0606060CFFFFFF0000FEFE00000000FB
:104E9200FCFEFC00183C7E66E6CE84000006FFFFA6
:104EA2000606FCFEFC0C0606060000FEFE0000C024
:104EB200F8FC4E4646464E7C7840183C76E6CECC10
:104EC2008000000000000000000000000000000060
:104ED200000000000001070F1F1F3F3F3F3F1F0F51
:104EE200030000000000000000000000000F0F009F
:104EF20000000F0F0F000000000F0F000003070E4D
:104F02000C18180C060F0F0F0000010F0E0C180CD6
:104F12000F070100040E0C180C0F070000000F0F02
:104F220000000F0F0F0000000000000F0F00000034
:104F320007070C0C181C0C060600040E0C180C0FAC
:104F42000700000000000000000000000000000058
:104F5200000000000000000000000000000000004F
:104F6200000000000000000000000000000000003F
:104F7200000000000000000000000000000000002F
:104F8200000000000000000000000000000000001F
:104F9200000000000000000000000000000000000F
:104FA20000000000000000000000000000000000FF
:104FB20000000000000000000000000000000000EF
:104FC200000000330C8000363738391B1D1A1C00D4
:104FD2000103070F1F3F7F0080C0E0F0F8FCFE00D6
:104FE200000000F306C606D5159C06BF06AC069D5A
:104FF2000600000000140B510A970A610BC80AA6AA
:105002000ABA0A000000000617510AD515D4150085
:105012000000004211510AD515D415630E9C06E713
:1050220013BF13DB13CF13EE139C06080F070FA950
:105032000B060D0813EB12731214120D0A005365BE
:1050420072766F20616E676C65206973206F75746C
:10505200206F662072616E67652100536F62726510
:105062000042750043686175646173736500426153
:1050720074656175005472616974656D656E740062
:10508200546573742064752049442D313220737540
:105092007220554152543220285258322F446967A7
:1050A2006974616C20313729000A0A0A0A004669CC
:1050B2006E20647520746573742E0A0043616C69F6
:1050C20062726174696F6E206465206C2761707012
:1050D200617265696C2E0A0044C3A962757420640A
:0A50E2007520746573742E0A000037
:00000001FF
