:100000000C9471010C94A2010C94A2010C94A20115
:100010000C94A2010C94A2010C94A2010C94A201D4
:100020000C94A2010C94AC0F0C94AC0F0C94AC0F7C
:100030000C94A2010C9424110C94A2010C94A20122
:100040000C94A2010C947D130C94A2010C94A201B7
:100050000C94A2010C94A2010C94A2010C94DA104D
:100060000C94A2010C9493120C9469120C94A201AA
:100070000C94A2010C94A2010C94A2010C94A20174
:100080000C94A2010C94A2010C94A2010C94A20164
:100090000C94A2010C94A2010C94A2010C94B60F32
:1000A0000C94A2010C94A2010C94A2010C94A20144
:1000B0000C94A2010C94A2010C94A2010C94BD1208
:1000C0000C94A2010C94A2010C94A2010C943F1276
:1000D0000C9415120C94A2010C94EB110C94C11108
:1000E0000C94A2010C94B6020C948B020C94F701B0
:1000F0000C949B020C947C020C94DD010C94CD01B9
:100100000C942F080C94FB070C9475060C949E0815
:100110000C94BB020C9495020C94CE010C940E0727
:100120000C941B080C94F0010C94B1020C9453062F
:100130000C94290E0C94FE050C9450090C9480022A
:100140000C9425080C9424020C945D080C9411085E
:100150000C94A4010C9444060C9437080C94940855
:100160000C9467060C946C080C94391D0C94910245
:100170000C9449080C94AD020C94A5010C947602E1
:100180000C94C1060C9476080C943F080C948A08D1
:100190000C944F090C94A3020C94B7020C9488029F
:1001A0000C949F020C9484020C946A140C94A9027F
:1001B0000C940C080C9453080C9480080200002145
:1001C00000240027002A002D003000330001010028
:1001D00000040107010A0100002200250028002B6D
:1001E000002E003100340002010000050108010B5F
:1001F00001000020002300260029002C002F0032DF
:1002000000000100000301060109010505050507BD
:100210000508080808020202020A0A080804040481
:1002200004010101010101010103030303030303AD
:1002300003040707070C0C0C0C0C0C0C0C0202023C
:100240000206060606060606060B0B0B0B0B0B0B2F
:100250000B010210202008081020401020408002CE
:1002600001020108040201010204081020408080FC
:100270004020100804020180040201804020100880
:100280000402010804020101020408102040800158
:100290000204081020408000000A0B02090C0D0E19
:1002A0000807030401000000000000000000000037
:1002B000000000000000000000000000000000003E
:1002C00000000012111000000000000000000000FB
:1002D00000000000000000000000000000006A14A0
:1002E000391D11241FBECFEFD1E2DEBFCDBF00E02C
:1002F0000CBF12E0A0E0B2E0E8E8F4E400E00BBFDD
:1003000002C007900D92AC36B107D9F727E0ACE6F2
:10031000B2E001C01D92A135B207E1F711E0C0E7DC
:10032000D1E000E006C021970109802FFE010E9464
:10033000E11ECF36D10780E00807A9F70E946016BA
:100340000C9432220C940000089508952091DC0250
:10035000260F3327331F21323105ECF420914D0352
:10036000FC0190E080E0243069F082E00895A091E3
:10037000DC022191AC0144545D4FA40FB52FB11D97
:100380002C930196861798F38091DC02680F609396
:10039000DC0280E0089581E008950895E09106036D
:1003A00080910503E81730F4F0E0E35DFC4F8081B5
:1003B00090E008958FEF9FEF08959091060380914C
:1003C00005032FEF3FEF981748F4E92FF0E0E35DC6
:1003D000FC4F208130E09F5F90930603C901089590
:1003E0008091050390910603891B990B0895CF9284
:1003F000DF92EF92FF920F931F93CF93DF937C01D5
:10040000CB018A0120915603222389F0EB016B0175
:10041000C40ED51ECC15DD0569F06991D701ED91AB
:10042000FC910190F081E02DC7011995F3CF642F65
:100430000E94A601C801DF91CF911F910F91FF90FB
:10044000EF90DF90CF900895CF93DF931F92CDB7B9
:10045000DEB76983209156032223F9F020915303DC
:10046000203258F021E030E0FC013383228390E019
:1004700080E00F90DF91CF91089580915403E82F91
:10048000F0E0E556FD4F998190838F5F8093540390
:100490008093530381E090E0ECCF61E0CE010196C0
:1004A0000E94A601F7CF682F87E593E00C94240201
:1004B0008150823108F05AC0E82FF0E08827EC59CB
:1004C000FD4F8F4F0C94E11E8402880276027C025D
:1004D0008002B6028B02910295029B029F02A30248
:1004E000A902AD02B602B102B702BB028091800040
:1004F0008F77809380000895809180008F7DF9CF61
:1005000080918000877FF5CF84B58F7784BD089573
:1005100084B58F7DFBCF8091B0008F778093B00042
:1005200008958091B0008F7DF9CF809190008F77F2
:10053000809390000895809190008F7DF9CF8091F5
:100540009000877FF5CF8091A0008F778093A000E7
:1005500008958091A0008F7DF9CF8091A000877FC2
:10056000F5CF809120018F778093200108958091AD
:1005700020018F7DF9CF80912001877FF5CFCF9328
:10058000DF93282F30E0F901E956FD4F8491F901FE
:10059000EF5AFD4FD491F901E55FFD4FC491CC2393
:1005A000A1F081110E945802EC2FF0E0EE0FFF1F26
:1005B000EF50FE4FA591B491EC91ED2381E090E0D6
:1005C00009F480E0DF91CF91089580E090E0FACFC8
:1005D0001F93CF93DF93282F30E0F901E956FD4FA9
:1005E0008491F901EF5AFD4FD491F901E55FFD4F78
:1005F000C491CC23A9F0162F81110E945802EC2F30
:10060000F0E0EE0FFF1FE952FE4FA591B4918FB7B6
:10061000F894EC91111108C0D095DE23DC938FBFC4
:10062000DF91CF911F910895DE2BF8CF10924D03EB
:1006300081E080932C031092270361E084E10E9403
:10064000E80261E085E10E94E802E9EBF0E08081E8
:100650008E7F808380818D7F808388E48093B80043
:1006600085E48093BC000895CF93DF9391E090934D
:10067000BB028823B9F0C091B800D091BA00809134
:10068000BC008A7B8093BC0060E084E10E94E802A9
:1006900060E085E10E94E8020E941603D093BA0050
:1006A000C093B800DF91CF910895CF93DF9390E08E
:1006B000FC01EF5AFD4F2491855F9D4FFC01849111
:1006C0008823D1F090E0880F991FFC01E354FE4F7E
:1006D000A591B491FC01E952FE4FC591D4916111ED
:1006E0000EC09FB7F8948C91E22FE0958E238C93E7
:1006F0002881E223E8839FBFDF91CF9108958FB7D0
:10070000F894EC91E22BEC938FBFF6CF90917B00A5
:10071000986090937B0086538770806480937C0000
:1007200080917A00806480937A0080917A0086FDBF
:10073000FCCF809178009091790008953FB7F894AC
:100740008091970290919802A0919902B0919A029B
:1007500026B5A89B05C02F3F19F00196A11DB11D1C
:100760003FBFBA2FA92F982F8827BC01CD01620F58
:10077000711D811D911D42E0660F771F881F991F13
:100780004A95D1F70895CF92DF92EF92FF920F939F
:100790001F93CF93DF93D82FC62F613208F098C0F4
:1007A0000E949E036B017C0180914D0381116BC0FF
:1007B00081E080934D0380932C039FEF90932B0354
:1007C00010922A039C0F9093290380932803809111
:1007D0002803DD0FD82BD093280380912703813085
:1007E00009F078C0109227030E949E036B017C01E0
:1007F000809128038093BB0080914F039091500318
:10080000A0915103B0915203892B8A2B8B2BA1F01D
:100810000E949E0300914F031091500320915103B9
:10082000309152036C197D098E099F09061717072D
:100830002807390708F448C08091BC0083FDD8CF51
:1008400085EC8093BC000E949E036B017C0180912B
:100850004D03813009F440C080912A038C1710F4B5
:10086000C0912A03E7E0F3E0ADE2B3E080E08C134F
:1008700055C08C2FDF91CF911F910F91FF90EF907A
:10088000DF90CF90089580914F0390915003A091F5
:100890005103B0915203892B8A2B8B2B09F484CFFF
:1008A0000E949E0300914F03109150032091510329
:1008B000309152036C197D098E099F09061717079D
:1008C0002807390708F070CF80914E030E94340347
:1008D000C0E0CFCF85EEB5CF80914F03909150030C
:1008E000A0915103B0915203892B8A2B8B2B09F4D1
:1008F000AECF0E949E0300914F03109150032091B0
:100900005103309152036C197D098E099F09061716
:1009100017072807390708F09ACFD6CF91919D93F2
:100920008F5FA5CFCF92DF92EF92FF920F931F932D
:10093000CF93DF93D091530381E0D13208F09CC074
:10094000C09155030E949E036B017C0180914D0371
:1009500081116CC082E080934D0381E080932C0371
:100960008FEF80932B0310922A03D0932903ABE9D6
:10097000B2E0E7E0F3E080E0D8138DC010922803E6
:1009800080912803CC0FC82BC093280380912703A4
:10099000813009F084C0109227030E949E036B01EE
:1009A0007C01809128038093BB0080914F0390913C
:1009B0005003A0915103B0915203892B8A2B8B2BAA
:1009C000A1F00E949E0300914F03109150032091CB
:1009D0005103309152036C197D098E099F09061746
:1009E00017072807390708F442C08091BC0083FD2F
:1009F000D8CF85EC8093BC000E949E036B017C01E4
:100A000080914D03823009F44CC080912B038F3FBD
:100A100009F469C080912B03803209F466C080918B
:100A20002B03803309F463C084E026C080914F0318
:100A300090915003A0915103B0915203892B8A2BBE
:100A40008B2B09F483CF0E949E0300914F031091DA
:100A5000500320915103309152036C197D098E0986
:100A60009F09061717072807390708F06FCF8091ED
:100A70004E030E94340385E01092540310925303F6
:100A800010925603DF91CF911F910F91FF90EF903D
:100A9000DF90CF9008959D9191938F5F6DCF85EEFC
:100AA000A9CF80914F0390915003A0915103B09131
:100AB0005203892B8A2B8B2B09F4A2CF0E949E0311
:100AC00000914F0310915003209151033091520334
:100AD0006C197D098E099F09061717072807390722
:100AE00008F08ECFC4CF80E0C7CF82E0C5CF83E0CF
:100AF000C3CF0F931F93CF93DF93162F072FC6E11A
:100B0000D7E0AA85BB859C8521E02093560390936E
:100B100055031092540310925303ED91FC911197D9
:100B20000190F081E02D682FCD0119958A859B8574
:100B3000DC01ED91FC910190F081E02D602F199581
:100B40008A859B85DC01ED91FC910190F081E02D7F
:100B5000612F19958A859B85DF91CF911F910F9108
:100B60000C949204CF93C42F91E09093560399E292
:100B7000909355031092540310925303806890E0B1
:100B80000E9453026C2F87E593E00E94240287E5C0
:100B900093E0CF910C9492048F929F92AF92BF9268
:100BA000CF92DF92EF92FF924B015C010E949E0375
:100BB0006B017C010E949E036C197D098E099F09BF
:100BC000683E734081059105A8F321E0821A9108DF
:100BD000A108B10888EEC80E83E0D81EE11CF11C04
:100BE00081149104A104B10429F7FF90EF90DF90E4
:100BF000CF90BF90AF909F908F900895AF92BF928B
:100C0000CF92DF92EF92FF920F931F93CF93DF93D8
:100C10006C017B018B01040F151FEB015E01AE1807
:100C2000BF08C017D10759F06991D601ED91FC9129
:100C30000190F081E02DC6011995892B79F7C50146
:100C4000DF91CF911F910F91FF90EF90DF90CF90A8
:100C5000BF90AF900895FC01A089B1898C91A689BD
:100C6000B78982FD0FC09C91818D8F5F8F73228D1C
:100C7000821749F0A18DAE0FBF2FB11D5D969C93D9
:100C8000818F08958C910895FC01538D448D252FFB
:100C900030E0842F90E0821B930B541710F0CF9616
:100CA000089501970895FC01918D828D981761F048
:100CB000A28DAE0FBF2FB11D5D968C91928D9F5F5F
:100CC0009F73928F90E008958FEF9FEF0895FC013E
:100CD000918D828D981731F0828DE80FF11D858DF1
:100CE00090E008958FEF9FEF0895FC01918D228D84
:100CF000892F90E0805C9F4F821B91098F73992709
:100D0000089583E693E00E94750621E0892B09F49B
:100D100020E0822F089580E094E00E94750621E093
:100D2000892B09F420E0822F08958DE994E00E9438
:100D3000750621E0892B09F420E0822F0895FC013B
:100D4000A48DA80FB92FB11DA35ABF4F2C91848D2C
:100D500090E001968F739927848FA689B7892C9389
:100D6000A089B1898C91837080648C93938D848DDC
:100D7000981306C00288F389E02D80818F7D8083DF
:100D80000895EF92FF920F931F93CF93DF93EC019F
:100D900081E0888F9B8D8C8D98131AC0E889F98922
:100DA000808185FF15C09FB7F894EE89FF89608325
:100DB000E889F98980818370806480839FBF81E0A6
:100DC00090E0DF91CF911F910F91FF90EF900895E8
:100DD000F62E0B8D10E00F5F1F4F0F731127E02EC3
:100DE0008C8D8E110CC00FB607FCFACFE889F989FB
:100DF000808185FFF5CFCE010E949F06F1CFEB8D5C
:100E0000EC0FFD2FF11DE35AFF4FF0829FB7F894CE
:100E10000B8FEA89FB8980818062CFCFCF93DF93EC
:100E2000EC01888D8823B9F0AA89BB89E889F98902
:100E30008C9185FD03C0808186FD0DC00FB607FC37
:100E4000F7CF8C9185FFF2CF808185FFEDCFCE016A
:100E50000E949F06E9CFDF91CF910895F0E0E0E096
:100E6000199480E090E0892B29F00E949506811169
:100E70000E94000080E090E0892B49F080E090E043
:100E8000892B29F00E94000081110E9400000E941D
:100E90008B0681110E942E0780E090E0892B29F0BB
:100EA0000E94810681110C940000089581110CC0EC
:100EB000611105C04423A1F087E090E00895442328
:100EC00091F085E090E00895611105C0442371F030
:100ED00083E090E00895442361F081E090E008957C
:100EE00088E090E0089586E090E0089584E090E046
:100EF000089582E090E008958F929F92AF92BF9202
:100F0000CF92DF92EF92FF920F931F93CF93DF93D5
:100F1000EC016A017B0120E030E04FE753E4CB01B4
:100F2000B6010E94A81D4B015C0120E030E0A90140
:100F30000E94122018168CF5C501B4010E94DC1F16
:100F40008B01B98020E030E0A901C701B6010E9401
:100F5000122060E018160CF061E08B2D0E94E80270
:100F60000F3F110509F0ECF41127C88161E08C2FC7
:100F70000E94550301151105B9F460E08C2FDF9133
:100F8000CF911F910F91FF90EF90DF90CF90BF9086
:100F9000AF909F908F900C94E802C501B4019058D7
:100FA000CDCF0FEF10E0E1CF0F3F110511F461E05D
:100FB000E5CFEC2FF0E0E956FD4FE491E150E2314E
:100FC00008F0BCC0F0E08827E751F84F8F4F0C9431
:100FD000E11EFB070C0811081B0825089E082F08B6
:100FE00037083F08490853085D086C0876089E08D2
:100FF00080088A08940884B5806884BD07BDDF91A5
:10100000CF911F910F91FF90EF90DF90CF90BF9005
:10101000AF909F908F90089584B5806284BD08BD85
:10102000EECF8091800080688093800010938900CB
:1010300000938800E4CF80918000806280938000DC
:1010400010938B0000938A00DACF80918000886033
:101050008093800010938D0000938C00D0CF8091FE
:10106000B00080688093B0000093B300C8CF809137
:10107000B00080628093B0000093B400C0CF809134
:1010800090008068809390001093990000939800DE
:10109000B6CF8091900080628093900010939B0067
:1010A00000939A00ACCF809190008860809390006C
:1010B00010939D0000939C00A2CF8091A0008068B7
:1010C0008093A0008091A0008F7B8093A00010935C
:1010D000A9000093A80093CF8091A0008062809324
:1010E000A0001093AB000093AA0089CF8091A000CC
:1010F00088608093A0001093AD000093AC007FCF78
:101100008091200180688093200110932901009331
:10111000280175CF80912001806280932001109377
:101120002B0100932A016BCF80912001886080936E
:10113000200110932D0100932C0161CF003811057F
:101140000CF035CF1ACF8EBD00000DB407FEFDCFD9
:101150008EB50895CF93DF93EC0160E088810E9403
:10116000E80288E90E94A30880E00E94A30880E0CA
:101170000E94A30880E00E94A30880E00E94A308C8
:1011800061E088810E94E8028BE891E00197F1F725
:1011900060E088810E94E80280EE0E94A30861E07E
:1011A0008881DF91CF910C94E802AF92BF92CF92E9
:1011B000DF92EF92FF920F931F93CF93DF93CDB700
:1011C000DEB760970FB6F894DEBF0FBECDBF6C01DF
:1011D00060E0FC0180810E94E80280E60E94A30892
:1011E0009E012F5F3F4F79015E0131E1A30EB11CDB
:1011F000870180E00E94A30890E0B0E0A0E0F80141
:1012000081939193A193B1938F01EA15FB0589F71F
:1012100061E0F60180810E94E80280E090E0DC015C
:10122000F70141915191619171917F01BA2FA92FDD
:10123000982F8827840F951FA61FB71FE017F10767
:1012400079F79C01AD0166277727CB01621B730BF1
:10125000840B950B60960FB6F894DEBF0FBECDBF22
:10126000DF91CF911F910F91FF90EF90DF90CF9082
:10127000BF90AF900895FC01248131E03093560374
:101280002093550310925403109253038485862BA8
:1012900090E00E94530287E593E00C949204089535
:1012A00090E080E00895CF93DF9391E09093560310
:1012B00099E290935503109254031092530380685F
:1012C00090E00E94530287E593E00E94920462E05E
:1012D00089E20E94C303109206038093050387E509
:1012E00093E00E94DD01EC0187E593E00E94DD01BF
:1012F00020E0382FCE01822B932BDF91CF910895E0
:1013000091E09093560399E2909355031092540301
:1013100010925303806890E00E94530287E593E0A7
:101320000E94920461E089E20E94C30310920603C6
:101330008093050387E593E00E94DD010895CF9334
:10134000DF9310920603109205031092540310923B
:1013500053030E94160384EA91E090930203809362
:10136000010385EA91E0909304038093030382E1F3
:101370000E948009843411F08031E1F581E080938E
:101380003A05C0913D05D0913E05AE0170E060E0A8
:101390000E94B205D0933E05C0933D05C0913B0528
:1013A000D0913C0580913A05811102C00E949F09AD
:1013B000AE0170E060E08FE00E94B205D0933C0582
:1013C000C0933B0541E050E060E070E080E00E94A7
:1013D000B20563E070E080E090E00E94CC0543E05D
:1013E00050E060E070E080E00E94B20581E0DF91B3
:1013F000CF91089580E0FBCF6F927F928F929F9262
:10140000AF92BF92CF92DF92EF92FF920F931F9312
:10141000CF93DF938C01EB0187E20E94BF026C0146
:1014200088E20E94BF027C0186E20E94BF029C010A
:1014300041E0CD2809F440E061E0EF2809F460E0E4
:1014400081E0232B09F480E00E9456077C01609024
:101450008A0270908B02809088029090890281E0CD
:10146000E816F10409F09CC0E1E06E16710409F081
:1014700065C0F1E08F16910409F060C0809186028A
:1014800090918702029709F085C0CC24C394D12C97
:101490006FEF7FEF072E000C880B990B0E94491D00
:1014A0002AE939E949E95EE30E94A81DAB01BC01C4
:1014B0008FE297E00E947C07B601DD0C880B990B48
:1014C0000E94491D2AE939E949E95EE30E94A81D05
:1014D000AB01BC01705881E397E00E947C0765E096
:1014E00070E080E090E00E94CC0587E20E94BF029D
:1014F0005C0188E20E94BF026C0186E20E94BF028A
:101500009C0141E0AB2809F440E061E0CD2809F4FA
:1015100060E081E0232B09F480E00E9456070197E8
:10152000F1F28AE999E9A9E9BEE3F80180839183A0
:10153000A283B38388839983AA83BB839092870213
:10154000809286027092890260928802F0928B02E9
:10155000E0928A02F80140815181628173818FE2B9
:1015600097E00E947C07488159816A817B8170588D
:1015700081E397E0DF91CF911F910F91FF90EF9062
:10158000DF90CF90BF90AF909F908F907F906F90A3
:101590000C947C0761E070E0CC24CA94DC2C7ACFF8
:1015A000F2E0EF16F10459F520E030E040E05FE3AF
:1015B000688179818A819B810E94421D87FFBECF0D
:1015C0002AE037ED43E25CE3F801608171818281BA
:1015D00093810E94FD1EF80160837183828393834F
:1015E0002AE037ED43E25CE3688179818A819B815F
:1015F0000E94FE1E688379838A839B839FCFF3E0DA
:10160000EF16F10439F5F801A080B180C280D380D3
:1016100020E030E040E05FE3C601B5010E94421DDA
:1016200087FF8CCF2AE037ED43E25CE3C601B501CA
:101630000E94FE1EF80160837183828393832AE0F7
:1016400037ED43E25CE3688179818A819B810E9466
:10165000FD1ED0CFC7010497059708F06FCF8AE928
:1016600099E9A9E9BEE388839983AA83BB83F8013A
:1016700080839183A283B38361CF8F929F92AF9235
:10168000BF92CF92DF92EF92FF92CF93DF93EC0164
:101690004A015B01BC01990F880B990B0E94491DFF
:1016A00024E431E84DE652E40E94A81D20E030E039
:1016B00044EB53E40E946A1F20E030E048E455E424
:1016C0000E94A81D25E83BEE41EC51E40E946A1FF0
:1016D0006B017C0183E397E00E94AA0885E397E011
:1016E0000E94AA081C161D060CF0CAC0B501A40170
:1016F0008FE297E00E947C07B501A40181E397E0A7
:101700000E947C0783E397E00E94D508909580951E
:10171000709561957F4F8F4F9F4F0E94491DA70184
:1017200096010E94421D1816D4F085E397E00E94AE
:10173000D50890958095709561957F4F8F4F9F4FFD
:101740000E94491DA70196010E94421D18163CF0F7
:101750006AE070E080E090E00E94CC05D3CF83E3A4
:1017600097E00E94D50890958095709561957F4F80
:101770008F4F9F4F0E94491DA70196010E94122082
:1017800087FD42C040E050E0BA018FE297E00E943E
:101790007C074DEC5CEC6CEC7DE381E397E00E9410
:1017A0007C0785E397E00E94D50890958095709519
:1017B00061957F4F8F4F9F4F0E94491DA701960152
:1017C0000E94421D18166CF740E050E060E070E89F
:1017D00081E397E00E947C0764E670E080E090E09F
:1017E0000E94CC0583E397E00E94AA0885E397E076
:1017F000DF91CF91FF90EF90DF90CF90BF90AF90AF
:101800009F908F900C94AA0885E397E00E94D508DA
:1018100090958095709561957F4F8F4F9F4F0E9457
:10182000491DA70196010E94122087FDD5CF40E0F7
:1018300050E060E070E881E397E00E947C074DECA7
:101840005CEC6CEC7DE38FE297E00E947C0783E325
:1018500097E00E94D50890958095709561957F4F8F
:101860008F4F9F4F0E94491DA70196010E94421D64
:1018700018166CF740E050E0BA018FE297E0AACF6B
:10188000CD2B09F4A9CFB7FAB094B7F8B094B5014D
:10189000A4018FE297E00E947C07B501A40181E3D7
:1018A00097E00E947C07F7FAF094F7F8F09483E34E
:1018B00097E00E94D5080E94491DA70196010E9449
:1018C000421D1816ACF583E397E00E94D5080E94EC
:1018D000491DA70196010E94122087FF3DC085E3A4
:1018E00097E00E94D5080E94491DA70196010E9419
:1018F000122087FD71CF40E050E060E070E881E3A6
:1019000097E00E947C074DEC5CEC6CEC7DEB8FE289
:1019100097E00E947C0783E397E00E94D5080E942D
:10192000491DA70196010E94421D1816A4F7A2CFD7
:1019300085E397E00E94D5080E94491DA701960102
:101940000E94421D18160CF4BECF6AE070E080E0E1
:1019500090E00E94CC05ABCF40E050E0BA018FE2AE
:1019600097E00E947C074DEC5CEC6CEC7DEB81E336
:1019700097E00E947C0785E397E00E94D5080E94CB
:10198000491DA70196010E94421D1816A4F71CCFFD
:101990004F925F926F927F928F929F92AF92BF927F
:1019A000CF92DF92EF92FF920F931F93CF93DF932B
:1019B00000D000D000D01F92CDB7DEB72D833E837C
:1019C0004F83588720E030E048E455E40E94A81D8A
:1019D00025E83BEE41EC51E40E946A1F69837A835B
:1019E0008B839C832CEE31E548E35EE36D817E8141
:1019F0008F8198850E94FD1E4B015C0183E397E077
:101A00000E94AA0885E397E00E94AA08B501A401F4
:101A1000705881E397E00E947C07B501A4018FE232
:101A200097E00E947C07750164011A86198610E010
:101A300000E083E397E00E94D5089095809570952B
:101A400061957F4F8F4F9F4F0E94491D29813A8199
:101A50004B815C810E94421D18160CF4B8C083E3D0
:101A600097E00E94D50890958095709561957F4F7D
:101A70008F4F9F4F0E94491D2B013C012AE037EDFB
:101A800043EA5DE369817A818B819C810E94A81D74
:101A90009B01AC01C301B2010E9412201816F4F49C
:101AA00001151105D9F44D815E816F8178858FE232
:101AB00097E00E947C072CEE31E548E35EE3C70126
:101AC000B6010E94FE1E6B017C01BC01A60170588C
:101AD00081E397E00E947C0701E010E083E397E058
:101AE0000E94D50890958095709561957F4F8F4F96
:101AF0009F4F0E94491D2B013C0126E636E646E633
:101B00005FE369817A818B819C810E94A81D9B0182
:101B1000AC01C301B2010E9412201816FCF4298501
:101B20003A85232BD9F4B501A4018FE297E00E94F6
:101B30007C072CEE31E548E35EE3C701B6010E9465
:101B4000FD1E6B017C01BC01A601705881E397E08A
:101B50000E947C0741E050E05A87498783E397E081
:101B60000E94D5089B01AC0188279927DC01821BC4
:101B7000930BA40BB50B3C0185E397E00E94D508BD
:101B800066167706C4F42FE632E143E85AE3C7014C
:101B9000B6010E94FD1E6B017C01BC01A6017058BC
:101BA00081E397E00E947C0764E670E080E090E0CB
:101BB0000E94CC053ECF66157705B4F72FE632E1DB
:101BC00043E85AE3C701B6010E94FE1EE4CF40E09D
:101BD00050E060E070E881E397E00E947C0740E01D
:101BE00050E0BA018FE297E00E947C0783E397E020
:101BF0000E94AA0885E397E02A960FB6F894DEBF04
:101C00000FBECDBFDF91CF911F910F91FF90EF904D
:101C1000DF90CF90BF90AF909F908F907F906F900C
:101C20005F904F900C94AA080F931F93CF938C0151
:101C3000C62F64600E943B096C2F6B7FC8010E9415
:101C40003B0983EC90E00197F1F7CF911F910F9141
:101C500008950F931F93CF93DF938C01C62FD62F38
:101C6000D07FD1606D2F0E943B096D2FC8010E946B
:101C7000140E80E1C89FE0011124C1606C2FC801DF
:101C80000E943B096C2FC8010E94140E81E090E075
:101C9000DF91CF911F910F910895FC0101900020D9
:101CA000E9F73197AF01481B590BBC018DE994E06E
:101CB0000C94FE058F929F92AF92BF920F931F9349
:101CC000CF93DF93CDB7DEB7A1970FB6F894DEBF01
:101CD0000FBECDBF19A2423008F44AE08E010F5D5D
:101CE0001F4F842E912CB12CA12CA50194010E9490
:101CF000901EE62FB901CA01EA30F4F4E05DD80184
:101D0000EE938D01232B242B252B79F790E080E097
:101D1000109719F0CD010E944D0EA1960FB6F894C0
:101D2000DEBF0FBECDBFDF91CF911F910F91BF904E
:101D3000AF909F908F900895E95CE1CFCF92DF92B2
:101D4000EF92FF92CF93DF9390914107891720F094
:101D500090914207981770F48FE392E00E944D0E25
:101D60008CE592E0DF91CF91FF90EF90DF90CF90E4
:101D70000C944D0EE0914707EC3008F051C0282F2D
:101D800030E0CE2FD0E095E0E99FF0011124EF5E26
:101D9000F94F938178E8C72ED12CC91AD10897FD45
:101DA000D394CC0CDD1CCC0CDD1C283C31050CF094
:101DB0003EC00D2C000CEE08FF08948128E532E0AF
:101DC000291B310997FD3395220F331F220F331F33
:101DD000032E000C440B550B2C193D094E095F09CD
:101DE000A82FB0E00E94851E24EB30E040E050E0D8
:101DF0000E94661EC20ED31EE41EF51E8FB7F89415
:101E000095E09C9FF0019D9FF00D1124EF5EF94F2E
:101E100096E0C91AD108CC0CDD1CD282C1828FBFDA
:101E2000DF91CF91FF90EF90DF90CF9008952C1528
:101E30003D0524F3848148E5C42E42E0D42EC81A1F
:101E4000D10887FDD394CC0CDD1CCC0CDD1C2C15EB
:101E50003D05A4F66901D2CF85ED8093BC00809149
:101E60004F0390915003A0915103B09152030796F4
:101E7000A11DB11D23E0B695A795979587952A9545
:101E8000D1F72091BC0024FD03C010924D030895AA
:101E900040914F0350915003609151037091520350
:101EA000452B462B472B69F30097A105B10541F05F
:101EB00025E32A95F1F700000197A109B109E1CFC7
:101EC00080914E030C9434030F931F93CF93DF93B1
:101ED000EC0160E089810E94E80283E090E00197D4
:101EE000F1F761E089810E94E80283E290E00197C6
:101EF000F1F760E089810E94E802888190E0FC01AE
:101F0000EF5AFD4F6491FC01E55FFD4FE491F0E075
:101F1000EE0FFF1FEF50FE4F8591949100E412E405
:101F20002FE030E0462F0E942514611571058105D0
:101F3000910529F06F5F7F4F8F4F9F4F9F700E94D9
:101F4000471D20E030E048E652E40E946A1FDF911E
:101F5000CF911F910F9108951F920F920FB60F927C
:101F600011240F900FBE0F901F9018951F920F9283
:101F70000FB60F9211240BB60F922F933F934F93EE
:101F80005F936F937F938F939F93AF93BF93EF93E1
:101F9000FF938091B900887F803609F44DC008F026
:101FA00040C0883209F4A9C028F5803109F49DC0E9
:101FB000C8F4882309F4FBC0883009F496C0FF9167
:101FC000EF91BF91AF919F918F917F916F915F91B1
:101FD0004F913F912F910F900BBE0F900FBE0F901E
:101FE0001F901895883109F488C0803241F780939A
:101FF0002B0314C0803409F49DC040F48033B9F33E
:102000008833E9F680932B0385ECB0C0803509F462
:1020100085C0883509F496C0883489F60E942C0F53
:10202000CECF883909F48CC038F5883729F050F4C0
:10203000883611F0803719F683E080934D031092B3
:10204000FE0257C0883809F47BC0803919F0803807
:1020500009F0B5CF8091FE02803208F071C0E091A6
:10206000FE0281E08E0F8093FE028091BB00F0E0C3
:10207000E252FD4F80833DC0803B39F0E0F4803A6E
:1020800009F479C0883A09F09ACF84E080934D032F
:102090001092DD021092DC02E0910103F091020344
:1020A00019958091DC0281110FC081E08093DC02E0
:1020B0001092BC0209C0803C09F4A6CF883C09F408
:1020C000A3CF883B09F07BCFE091DD0281E08E0F4A
:1020D0008093DD02F0E0E454FD4F80818093BB00EB
:1020E0009091DD028091DC0229C0809128038093C9
:1020F000BB0085EC8093BC0062CF90912A03809155
:102100002903981758F5E0912A0381E08E0F8093F8
:102110002A03F0E0E95FFC4F8081E9CFE0912A03D8
:1021200081E08E0F80932A038091BB00F0E0E95F8D
:10213000FC4F808390912A03809129039817C8F25D
:1021400085E8D8CFE0912A0381E08E0F80932A039F
:102150008091BB00F0E0E95FFC4F808380912C030D
:1021600081115CCF81E08093270384EA8093BC00D7
:1021700010924D0324CF85EC8093BC0010924D0348
:102180008091FE02803230F4E091FE02F0E0E252F3
:10219000FD4F10826091FE0270E0E0910303F09128
:1021A00004038EED92E019951092FE0208CF109272
:1021B0002B0334CF1F920F920FB60F9211242F933F
:1021C0003F938F939F93AF93BF938091930290918E
:1021D0009402A0919502B09196023091920223E070
:1021E000230F2D3758F50196A11DB11D20939202A2
:1021F0008093930290939402A0939502B0939602D9
:102200008091970290919802A0919902B0919A02C0
:102210000196A11DB11D8093970290939802A093FF
:102220009902B0939A02BF91AF919F918F913F9184
:102230002F910F900FBE0F901F90189526E8230F37
:102240000296A11DB11DD2CF1F920F920FB60F9211
:1022500011240BB60F922F933F934F935F936F937D
:102260007F938F939F93AF93BF93EF93FF9380914F
:102270008D0290918E02A0918F02B0919002892BD5
:102280008A2B8B2BD1F190918C02809100008927B1
:102290008093000080918D0290918E02A0918F0218
:1022A000B0919002181619061A061B069CF480912C
:1022B0008D0290918E02A0918F02B09190020197B1
:1022C000A109B10980938D0290938E02A0938F0291
:1022D000B0939002FF91EF91BF91AF919F918F9139
:1022E0007F916F915F914F913F912F910F900BBE16
:1022F0000F900FBE0F901F90189580910002ECEB8D
:10230000F1E0E4919FEF90930002E230E9F040F4B5
:10231000EE2389F0E13091F060E00E94E802DACF2C
:10232000E43049F110F1E530B9F7909173009D7FE9
:1023300090937300F1CF10926E00EECF90916F00EA
:102340009D7F90936F00E8CF909170009D7F909358
:10235000700091E09093B0009091B100987F9460EC
:102360009093B1001092B300D7CF909171009D7FF0
:1023700090937100D1CF909172009D7F90937200E5
:10238000CBCF1F920F920FB60F9211240BB60F9264
:102390002F933F934F935F936F937F938F939F936D
:1023A000AF93BF93EF93FF9383E693E00E949F0662
:1023B000FF91EF91BF91AF919F918F917F916F911D
:1023C0005F914F913F912F910F900BBE0F900FBED9
:1023D0000F901F9018951F920F920FB60F92112415
:1023E0000BB60F922F933F934F935F936F937F930F
:1023F0008F939F93AF93BF93EF93FF9383E693E005
:102400000E942B06FF91EF91BF91AF919F918F9109
:102410007F916F915F914F913F912F910F900BBEE4
:102420000F900FBE0F901F9018951F920F920FB62E
:102430000F9211240BB60F922F933F934F935F93FC
:102440006F937F938F939F93AF93BF93EF93FF937C
:1024500080E094E00E949F06FF91EF91BF91AF91C1
:102460009F918F917F916F915F914F913F912F91AC
:102470000F900BBE0F900FBE0F901F9018951F92DC
:102480000F920FB60F9211240BB60F922F933F931A
:102490004F935F936F937F938F939F93AF93BF936C
:1024A000EF93FF9380E094E00E942B06FF91EF9161
:1024B000BF91AF919F918F917F916F915F914F915C
:1024C0003F912F910F900BBE0F900FBE0F901F905A
:1024D00018951F920F920FB60F9211240BB60F9200
:1024E0002F933F934F935F936F937F938F939F931C
:1024F000AF93BF93EF93FF938DE994E00E949F0603
:10250000FF91EF91BF91AF919F918F917F916F91CB
:102510005F914F913F912F910F900BBE0F900FBE87
:102520000F901F9018951F920F920FB60F921124C3
:102530000BB60F922F933F934F935F936F937F93BD
:102540008F939F93AF93BF93EF93FF938DE994E0A5
:102550000E942B06FF91EF91BF91AF919F918F91B8
:102560007F916F915F914F913F912F910F900BBE93
:102570000F900FBE0F901F9018951F920F920FB6DD
:102580000F9211240BB60F922F933F934F935F93AB
:102590006F937F938F939F93AF93BF93EF93FF932B
:1025A000809140050E94BF0220914405309145056D
:1025B0002F5F3F4F3093450520934405909143058D
:1025C000953618F096E090933F0590913F05943032
:1025D00009F466C0B8F49230F1F0933009F444C0C5
:1025E00090914205992309F46BC081117CC08091C0
:1025F0004105882309F463C08091410561E00E9490
:10260000E8025EC0953009F457C0963049F791E072
:10261000909310064FC08111E3CF20914405309173
:1026200045052436310528F41092450510924405DD
:10263000D7CF1092100610924305E091430591E028
:102640009E0F90934305F0E020914405309145059D
:10265000EE0FFF1FE15CFA4F30872783109245058C
:102660001092440593E019C0813009F0B9CFE09190
:10267000430591E09E0F90934305F0E020914405BF
:1026800030914505EE0FFF1FE15CFA4F308727833D
:10269000109245051092440594E090933F05A0CF19
:1026A000882359F22091440530914505253631059E
:1026B00008F496CF95E0F1CF811192CFB5CF2F9A44
:1026C000FF91EF91BF91AF919F918F917F916F910A
:1026D0005F914F913F912F910F900BBE0F900FBEC6
:1026E0000F901F90189580914105882321F08091CB
:1026F000410560E084CF2F98E3CF1F920F920FB671
:102700000F9211240BB60F922F933F934F935F9329
:102710006F937F938F939F93AF93BF93CF93DF93E9
:10272000EF93FF9380918502C0914D06D0E087FF23
:1027300023C01092850010928400809185028F5FE3
:102740008093850280918502082E000C990B8C17CE
:102750009D0724F4809185028C3074F1809184006F
:102760009091850084349C4908F465C08091840070
:1027700090918500049661C080918502082E000C1E
:10278000990B8C179D07CCF63091850225E032031A
:10279000F0011124EF5EF94F808186FFCECF30919A
:1027A00085023203F0011124EF5EF94F808160E071
:1027B0008F730E94E802C1CF8091840090918500C0
:1027C0003091850225E03203F0011124EF5EF94FCC
:1027D00041815281840F951F9093890080938800D6
:1027E000309185023203F0011124EF5EF94F8081B0
:1027F00086FF0CC0309185023203F0011124EF5E98
:10280000F94F808161E08F730E94E802FF91EF91A0
:10281000DF91CF91BF91AF919F918F917F916F91F8
:102820005F914F913F912F910F900BBE0F900FBE74
:102830000F901F90189580E49CE9909389008093F5
:1028400088008FEF80938502E1CFCF92DF92EF92E5
:10285000FF920F931F93E82FF92F05C00150110924
:102860002109310961F1908196239417B9F305C0CC
:10287000015011092109310911F190819623941316
:10288000F7CFC12CD12CE12CF12C0AC08FEFC81A44
:10289000D80AE80AF80A0C151D052E053F0579F03F
:1028A00080818623841791F36C2D7D2D8E2D9F2D95
:1028B0001F910F91FF90EF90DF90CF90089560E00F
:1028C00070E080E090E01F910F91FF90EF90DF901B
:1028D000CF90089510925A031092590388EE93E016
:1028E000A0E0B0E080935B0390935C03A0935D0352
:1028F000B0935E0323E132E03093580320935703F3
:1029000010926603109265038093670390936803A7
:10291000A0936903B0936A0325E232E03093640325
:102920002093630345E351E05093700340936F039A
:1029300044E351E0509372034093710340E351E04C
:10294000509374034093730341E351E05093760333
:102950004093750342E351E050937803409377032B
:1029600046E351E050937A034093790310927C033D
:1029700010927D0310927E0310927F031092030445
:10298000109202048093040490930504A09306041B
:10299000B0930704309301042093000445ED50E008
:1029A00050930D0440930C0444ED50E050930F04F9
:1029B00040930E0440ED50E05093110440931004F6
:1029C00041ED50E0509313044093120442ED50E067
:1029D000509315044093140446ED50E050931704AF
:1029E000409316041092190410921A0410921B04BA
:1029F00010921C041092A00410929F048093A104D2
:102A00009093A204A093A304B093A40430939E04D3
:102A100020939D0485EC90E09093AA048093A904F0
:102A200084EC90E09093AC048093AB0480EC90E055
:102A30009093AE048093AD0481EC90E09093B00449
:102A40008093AF0482EC90E09093B2048093B10441
:102A500086EC90E09093B4048093B3041092B60493
:102A60001092B7041092B8041092B90410923A056B
:102A70008BEE90E090933E0580933D0581E090E0E1
:102A800090933C0580933B0580910702909108024A
:102A9000A0910902B0910A028093370790933807FA
:102AA000A0933907B0933A0780910B0290910C02E2
:102AB000A0910D02B0910E0280933B0790933C07CA
:102AC000A0933D07B0933E0784E080933F0787E0E3
:102AD000809340071092410784EB8093420786E180
:102AE0008093430788E18093440787E180934507FB
:102AF00089E180934607E0914D06EC3008F4A9C0C7
:102B00008FEF80934707E0914D06EC3008F4B2C098
:102B10008FEF809348078CE08093160784E28093C0
:102B2000170786E08093180785E0809319078FE1E7
:102B300080931A078EE180931B0783E280931C0722
:102B400082E280931D0785E480931E0784E48093CE
:102B50001F0780E48093220710922707109228070E
:102B60001092290710922A0710922B0710922C0717
:102B700010922D0710922E07E8E5F6E08FEF9FEFF9
:102B8000DC0112821382148215821682178210864B
:102B9000118683879487A587B6878787908BA18BBB
:102BA000B28B128611821082739627E0E631F2070B
:102BB00041F78DE090E00E941C20FC0113821282FC
:102BC00087E392E091838083118687E2848384E1A6
:102BD000828784E083871486F0935506E093540639
:102BE000109256061092570685E280934005109287
:102BF000420510924F0610924E0610925106109206
:102C00005006109253061092520661E070E090E078
:102C100080E00E9441210097F1F190934F0680934C
:102C20004E06109251061092500620915206309195
:102C30005306232B11F4FC011082109253061092BC
:102C400052066EE572E080914E0690914F060C940C
:102C50002B2281E08E0F80934D06E093470725E0FD
:102C6000E29FF0011124EF5EF94F88EB9BE0928325
:102C7000818349CF81E08E0F80934D06E093480712
:102C800085E0E89FF0011124EF5EF94F88EB9BE0AF
:102C90009283818340CF80914E0690914F0600979A
:102CA00011F00E94B82010924F0610924E0610921A
:102CB0005306109252061092510610925006089533
:102CC000CF93DF9300D000D01F921F92CDB7DEB715
:102CD000789484B5826084BD84B5816084BD85B5F7
:102CE000826085BD85B5816085BD80916E00816003
:102CF00080936E00109281008091810082608093A9
:102D000081008091810081608093810080918000AA
:102D10008160809380008091B10084608093B100D5
:102D20008091B00081608093B000809191008260BA
:102D300080939100809191008160809391008091B7
:102D400090008160809390008091A10082608093C8
:102D5000A1008091A10081608093A1008091A000DA
:102D600081608093A0008091210182608093210185
:102D700080912101816080932101809120018160F7
:102D80008093200180917A00846080937A00809102
:102D90007A00826080937A0080917A0081608093CB
:102DA0007A0080917A00806880937A001092C10046
:102DB000E091AD04F091AE0482E08083E091A9043B
:102DC000F091AA041082E091AB04F091AC048FEC76
:102DD00080831092B504E091B104F091B20486E0D2
:102DE0008083E091AF04F091B004808180618083A2
:102DF000E091AF04F091B004808188608083E0911D
:102E0000AF04F091B004808180688083E091AF04CA
:102E1000F091B00480818F7D808361E080911707FD
:102E20000E94550360E0809117070E94E80260E06D
:102E3000809116070E94550387E593E09093210740
:102E400080932007109206031092050310925403FA
:102E5000109253030E94160384EA91E090930203B8
:102E60008093010385EA91E0909304038093030328
:102E700080E090E1A0E0B0E08093230790932407E6
:102E8000A0932507B09326078AE090E0A0E0B0E089
:102E90008093270790932807A0932907B0932A07C8
:102EA00080E090E0A0E0B0E480932B0790932C07A3
:102EB000A0932D07B0932E0760E070E185E00E949B
:102EC00079056FE979E380E00E947905E8E1EE2E6B
:102ED000E7E0FE2E06E117E0F0E46F2EF2E07F2E31
:102EE000A6E88A2EA2E09A2EBBECCB2EB7E0DB2E12
:102EF000D70112969C91F70181917F01D8015996D3
:102F00008C9359975A969C9361E00E94550361E017
:102F1000F801828D0E9455035801FDE1AF0EB11CEE
:102F2000D70115969C91159713968C91F801858F72
:102F3000968F61E00E94550360E0D8015E968C9107
:102F40000E94550361E0F801858D0E94E8025FB69A
:102F5000F89480919102811125C0F3018491F401CC
:102F60009491E82FF0E0EE0FFF1FE354FE4FA59180
:102F7000B4918C91982321F461E085E30E94E802EA
:102F800061E085E30E9455038CB580618CBD8CB5F2
:102F900080648CBD61E084E30E94550361E083E3BB
:102FA0000E945503809191028F5F809391025FBED2
:102FB000C6010197F1F760E0D8015D968C910E94FF
:102FC000E80288E80E94A30883E00E94A30861E069
:102FD000F801858D0E94E802C6010197F1F7C5014D
:102FE0000E94AA080E5F1F4FF7E00A311F0709F081
:102FF0007FCF6BE3E62E67E0F62E07E317E060E095
:10300000D7018D917D010E945503BFE3EB16B7E018
:10301000FB06A9F72FE3E22E27E0F22E35E0D32EB0
:103020004CE0B42E52E0C52EF701A1907F018781BC
:103030008C3008F046C061E08A2D0E945503D7010C
:1030400017968C91D89EF0011124EF5EF94F2A2D2E
:103050002F739081907C922B9083138214826B2D1E
:103060000E94C11E8B9DA001112430E020E0BA0116
:10307000620F731FD69EF001D79EF00D1124EF5EF4
:10308000F94F908196FD12C02F5F3F4F2C303105D4
:1030900071F781110BC010928000C09281001092D4
:1030A000850010928400C6BAC0926F00D7011796AF
:1030B000EC91DE9EF0011124EF5EF94F8081806477
:1030C0008083F70195818381D80152968C93529722
:1030D00053969C9360E00E94550361E0F801838958
:1030E0000E94550360E0D80153968C910E94E8023B
:1030F0000E5F1F4FB7E00B331B0709F095CFF89415
:103100001092200189E08093210180E293E0909366
:10311000290180932801109225011092240182E058
:1031200080937300789480933F05109243058091BB
:10313000400560E00E94550361E083E00E94550372
:1031400061E085E00E94550361E086E00E9455033E
:1031500061E08EE20E94550361E080E30E94550326
:1031600061E08AE20E94550361E08CE20E9455030F
:1031700060E083E40E94550360E088E20E9455030A
:1031800060E086E20E94550360E087E20E945503FA
:1031900060E08FE30E94550385EA0E949E0E94E64C
:1031A000292E312C8AE999E9A9E9BEE38D839E8312
:1031B000AF83B88789839A83AB83BC8384E6E82E88
:1031C000F12C10E000E08FE30E948603080F191F26
:1031D00091E0E91AF108B9F7C801B1010E94CD1ECA
:1031E0008B010E5C1F4F64EF71E080E090E00E9465
:1031F000CC0583E40E9486038034924044F4BE01EF
:103200006F5F7F4FCE0105960E94FC09F2CF61E00F
:103210008EE20E94E80261E080E30E94E80261E041
:103220008AE20E94E80289E497E00E94640F6B0141
:103230007C01AC019B010E941720882309F4BFC0C8
:103240008FE592E00E944D0E20E030E040E252E433
:10325000C701B6010E94122018160CF442C120E0EA
:1032600030E040EA50E4C701B6010E94421D87FDEC
:1032700038C140E050E0BA018FE297E00E947C073D
:1032800040E050E060E070E881E397E00E947C0756
:103290006AE070E080E090E00E94CC0560E08EE2A1
:1032A0000E94E80260E080E30E94E80260E08AE2B7
:1032B0000E94E80261E08CE20E94E80289E497E063
:1032C0000E94640F6B017C014AE959E969E17EE3E0
:1032D0008AE590E00E943D0B87E30E949E0E20E06D
:1032E00030E040E850E4C701B6010E94FD1E6B01CA
:1032F0007C0126E636E646E25FE30E94C80C46E61D
:1033000056E666E27FE38AE590E00E943D0B46E6E2
:1033100056E666E27FE382EF9EEF0E943D0B85EA70
:103320000E949E0E62E370E080E090E00E94CC0577
:1033300060E08CE20E94E80264E670E080E090E0E9
:103340000E94CC0526E636E646E25FE3C701B601F9
:103350000E94C80C4AE959E969E17EE385E590E0FD
:103360000E943D0B83E397E00E94AA0883E397E065
:103370000E94D5086B017C01BE016F5F7F4FCE01BB
:1033800005960E94FC09F094E094D094C094C11C6E
:10339000D11CE11CF11CB0E7CB16B7E1DB0634F31E
:1033A0008FE30E948603081719070CF0A8C0BE011E
:1033B0006F5F7F4FCE0105960E94FC09F1CF460159
:1033C0005701E894B7F82FEF3FEF4FE75FE7C501EC
:1033D000B4010E94172081110DC02FEF3FEF4FE77E
:1033E0005FE7C501B4010E94421D18161CF483E674
:1033F00092E028CF2FEF3FEF4FE75FE4C701B60120
:103400000E94122018161CF487E692E01BCF2FEFC3
:103410003FEF4FE75FECC701B6010E94421D87FDF9
:10342000F3CF20E030E0A901C701B6010E94421DA0
:1034300087FF54C06DE28DE994E00E94C106C70188
:10344000B60190582AE037ED43EA5BE30E94FE1E86
:103450002B013C010E94E31F4B015C010E94471DB0
:103460009B01AC01C301B2010E94FD1E2B013C0176
:103470004AE0C501B4010E945A0E6EE28DE994E063
:103480000E94C10620E030E040E251E4C301B201F5
:103490000E94A81D2B013C010E94E31F4B01B12C8F
:1034A000A12C4AE0C501B4010E945A0EC501B40125
:1034B0000E94471D9B01AC01C301B2010E94FD1E89
:1034C00020E030E040E251E40E94A81D0E94E31F8A
:1034D00090E080E04AE00E945A0EB6CEC701B601E5
:1034E000B1CFBE016F5F7F4FCE0105960E94FC09F0
:1034F0006AE070E080E090E00E94CC0594CE4DEC54
:103500005CEC6CE47EE38BEA9FEF0E943D0B2DECBC
:103510003CEC4CEC5EE360E070E080EA90E40E94FA
:10352000C80CBE016F5F7F4FCE0105960E94FC095B
:1035300086E20E94BF02892BA1F788E20E94BF02A7
:10354000892B79F787E20E94BF02892B51F740E06F
:1035500050E0BA018FE297E00E947C0740E050E023
:1035600060E070E881E397E00E947C0764E670E029
:1035700080E090E00E94CC052DEC3CEC4CEC5EE34E
:1035800060E070E080E791E40E94C80C64E670E0BF
:1035900080E090E00E94CC0580E00E9480098F7E50
:1035A000482F50E070E060E080E00E94B2056CE3DC
:1035B00070E080E090E00E94CC0580913A05811196
:1035C00002C00E949F0984E10E94530986E10E9483
:1035D00053095C0188E10E9453097C018AE10E9441
:1035E00053096C0180913D0590913E05853D910503
:1035F00009F40BC108F0EEC0009709F410C1803C3B
:10360000910509F407C180E00E9480098061482F7C
:1036100050E070E060E080E00E94B205C50188558E
:1036200092408739910508F0FFC09701245F31402F
:103630002639310508F0F8C051E040E096012855E0
:1036400032402739310508F050E0052F142FE0E90A
:10365000AE1AE1E0BE0AF9ECAF16B10468F49701C6
:10366000285532402B3F310538F496012C5B32400F
:10367000293C310508F49BC18739910588F42AE873
:10368000E21A22E0F20A89ECE816F10448F494EF19
:10369000C91A91E0D90AABEFCA16D10408F4CAC01E
:1036A0000115110509F478CF0130110509F083C126
:1036B00061E08EE20E94E8026AEF70E080E090E054
:1036C0000E94CC052DEC3CEC4CEC5EE360E070E03D
:1036D00080EA91E40E94C80C89E60E949E0E6AEF7F
:1036E00070E080E090E00E94CC054AE959E969E188
:1036F0007EE30130110509F0A4C082E090E00E9451
:103700003D0B26E636E646E25FE360E070E088E4E3
:1037100092E40E94C80C26E636E646E25FE360E0EB
:1037200070E088E492E40E94C80C26E636E646E2A1
:103730005FE360E070E088E492E40E94C80C26E653
:1037400036E646E25FE360E070E088E492E40E94DF
:10375000C80C26E636E646E25FE360E070E088E803
:1037600091E40E94C80C6CED75E080E090E00E944E
:10377000CC0585EA0E949E0E6AEF70E080E090E042
:103780000E94CC050130110509F0AEC040E050E0C8
:1037900060E87EE388EB90E00E943D0B26E636E68B
:1037A00046E25FE360E070E888E993E40E94C80CB9
:1037B00040E050E060E87EE386EA9FEF0E943D0B28
:1037C000BE016F5F7F4FCE0105960E94FC090E94EB
:1037D0003107E8CC863F910599F08F3F910549F07C
:1037E0008B3E910509F00FCF62E370E080E090E03E
:1037F00004C063E070E080E090E00E94CC0503CF5D
:1038000068E170E080E090E0F8CF65E670E080E08D
:1038100090E0F3CF6AE970E080E090E0EECF6CEBEF
:1038200072E080E090E0E9CF10E000E010CF02E02D
:1038300010E025CF61E08AE20E94E80203E010E098
:103840003BCF0230110509F0BDC086EA9FEF0E9410
:103850003D0B64E670E080E090E00E94CC0526E637
:1038600036E646EE5EE360E070E08CE392E40E94B0
:10387000C80C4AE959E969E17EE380E690E00E94DC
:103880003D0B64E670E080E090E00E94CC0526E607
:1038900036E646EE5EE360E070E088E492E40E9483
:1038A000C80C26E636E646EE5EE360E070E088E4AB
:1038B00092E40E94C80C26E636E646EE5EE360E03F
:1038C00070E088E492E40E94C80C26E636E646EEF4
:1038D0005EE360E070E088E492E40E94C80C26E6B3
:1038E00036E646EE5EE339CF4AE959E969E17EE31F
:1038F00088EB90E002301105A9F50E943D0B26E609
:1039000036E646E25FE360E070E08CE893E40E9414
:10391000C80C4AE959E969E17EE386EA9FEF0E9413
:103920003D0B26E636E646EE5EE360E070E080E2C0
:1039300091E40E94C80C4AE959E969E17EE38AE50D
:1039400090E00E943D0B26E636E646EE5EE360E040
:1039500070E080EA91E40E94C80C4AE959E969E103
:103960007EE32ACF0E943D0B26E636E646E25FE381
:1039700060E070E08CE893E40E94C80C4AE959E9E1
:1039800069E17EE38AE590E00E943D0B26E636E69B
:1039900046EE5EE360E070E080E291E40E94C80CD5
:1039A0004AE959E969E17EE386EA9FEFCACF8739A0
:1039B000910508F43CCF61E080E30E94E80202E058
:1039C00010E07ACE8AE590E00E943D0B64E670E05C
:1039D00080E090E00E94CC0526E636E646EE5EE307
:1039E00060E070E084E392E40E94C80C4AE959E97F
:1039F00069E17EE383EA9FEF0E943D0B64E670E09D
:103A000080E090E00E94CC0526E636E646EE5EE3D6
:103A100060E070E088E492E40E94C80C26E636E696
:103A200046EE5EE360E070E088E492E40E94C80C39
:103A300026E636E646EE5EE360E070E088E492E477
:103A40000E94C80C26E636E646EE5EE360E070E0D3
:103A500088E492E40E94C80C26E636E646EE5EE371
:103A600060E070E088E991E40E94C80C03E010E097
:103A70007ACE80914E0690914F06009711F00C94EB
:103A8000B82008950E94841D08F481E00895E89408
:103A900009C097FB3EF490958095709561957F4F96
:103AA0008F4F9F4F9923A9F0F92F96E9BB27939544
:103AB000F695879577956795B795F111F8CFFAF454
:103AC000BB0F11F460FF1BC06F5F7F4F8F4F9F4F85
:103AD00016C0882311F096E911C0772321F09EE8E3
:103AE000872F762F05C0662371F096E8862F70E049
:103AF00060E02AF09A95660F771F881FDAF7880F23
:103B00009695879597F90895990F0008550FAA0B78
:103B1000E0E8FEEF16161706E807F907C0F01216E0
:103B20001306E407F50798F0621B730B840B950BE3
:103B300039F40A2661F0232B242B252B21F4089538
:103B40000A2609F4A140A6958FEF811D811D0895D5
:103B50000E94BB1D0C942C1E0E941E1E38F00E9459
:103B6000251E20F0952311F00C94151E0C941B1E9D
:103B700011240C94601E0E943D1E70F3959FC1F3AA
:103B8000950F50E0551F629FF001729FBB27F00D0B
:103B9000B11D639FAA27F00DB11DAA1F649F662760
:103BA000B00DA11D661F829F2227B00DA11D621FAF
:103BB000739FB00DA11D621F839FA00D611D221F69
:103BC000749F3327A00D611D231F849F600D211D4D
:103BD000822F762F6A2F11249F5750409AF0F1F0D0
:103BE00088234AF0EE0FFF1FBB1F661F771F881F39
:103BF00091505040A9F79E3F510580F00C94151E3E
:103C00000C94601E5F3FE4F3983ED4F3869577955D
:103C10006795B795F795E7959F5FC1F7FE2B880FDE
:103C2000911D9695879597F9089597F99F6780E874
:103C300070E060E008959FEF80EC089500240A94FE
:103C40001616170618060906089500240A94121677
:103C50001306140605060895092E0394000C11F4AA
:103C6000882352F0BB0F40F4BF2B11F460FF04C057
:103C70006F5F7F4F8F4F9F4F089557FD9058440FB0
:103C8000551F59F05F3F71F04795880F97FB991FBB
:103C900061F09F3F79F08795089512161306140678
:103CA000551FF2CF4695F1DF08C016161706180605
:103CB000991FF1CF86957105610508940895E894E0
:103CC000BB2766277727CB0197F90895052E97FB29
:103CD0001EF400940E947D1E57FD07D00E94901E86
:103CE00007FC03D04EF40C947D1E50954095309502
:103CF00021953F4F4F4F5F4F089590958095709558
:103D000061957F4F8F4F9F4F08950E94B21EA59FD0
:103D1000900DB49F900DA49F800D911D11240895C6
:103D2000A1E21A2EAA1BBB1BFD010DC0AA1FBB1FBF
:103D3000EE1FFF1FA217B307E407F50720F0A21B31
:103D4000B30BE40BF50B661F771F881F991F1A949E
:103D500069F760957095809590959B01AC01BD01C8
:103D6000CF010895A29FB001B39FC001A39F700D22
:103D7000811D1124911DB29F700D811D1124911D73
:103D80000895991B79E004C0991F961708F0961BB7
:103D9000881F7A95C9F78095089597FB072E16F42A
:103DA000009407D077FD09D00E94E91E07FC05D0DA
:103DB0003EF4909581959F4F0895709561957F4F42
:103DC0000895EE0FFF1F881F8BBF0790F691E02D1F
:103DD0001994AA1BBB1B51E107C0AA1FBB1FA61742
:103DE000B70710F0A61BB70B881F991F5A95A9F7A4
:103DF00080959095BC01CD0108955058BB27AA2706
:103E00000E94151F0C942C1E0E941E1E38F00E944A
:103E1000251E20F039F49F3F19F426F40C941B1E44
:103E20000EF4E095E7FB0C94151EE92F0E943D1E51
:103E300058F3BA17620773078407950720F079F4DF
:103E4000A6F50C945F1E0EF4E0950B2EBA2FA02D54
:103E50000B01B90190010C01CA01A0011124FF2737
:103E6000591B99F0593F50F4503E68F11A16F04032
:103E7000A22F232F342F4427585FF3CF4695379531
:103E80002795A795F0405395C9F77EF41F16BA0BF6
:103E9000620B730B840BBAF09150A1F0FF0FBB1FA4
:103EA000661F771F881FC2F70EC0BA0F621F731FED
:103EB000841F48F4879577956795B795F7959E3F4A
:103EC00008F0B0CF9395880F08F09927EE0F9795DB
:103ED000879508950E947E1F0C942C1E0E94251E1B
:103EE00058F00E941E1E40F029F45F3F29F00C9408
:103EF000151E51110C94601E0C941B1E0E943D1E39
:103F000068F39923B1F3552391F3951B550BBB2708
:103F1000AA2762177307840738F09F5F5F4F220F4D
:103F2000331F441FAA1FA9F335D00E2E3AF0E0E844
:103F300032D091505040E695001CCAF72BD0FE2F8E
:103F400029D0660F771F881FBB1F26173707480722
:103F5000AB07B0E809F0BB0B802DBF01FF279358DA
:103F60005F4F3AF09E3F510578F00C94151E0C946B
:103F7000601E5F3FE4F3983ED4F38695779567958E
:103F8000B795F7959F5FC9F7880F911D969587950F
:103F900097F90895E1E0660F771F881FBB1F62172E
:103FA00073078407BA0720F0621B730B840BBA0BEC
:103FB000EE1F88F7E09508950E94E31F6894B11101
:103FC0000C94601E08950E94451E88F09F5798F03B
:103FD000B92F9927B751B0F0E1F0660F771F881F0E
:103FE000991F1AF0BA95C9F714C0B13091F00E9428
:103FF0005F1EB1E008950C945F1E672F782F88270D
:10400000B85F39F0B93FCCF3869577956795B3954E
:10401000D9F73EF490958095709561957F4F8F4FBD
:104020009F4F08950E94841D08F48FEF08950E9409
:10403000841D880B990B08950F931F93CF93DF93E3
:104040008230910510F482E090E0E0914F07F0910A
:10405000500730E020E0B0E0A0E0309799F421155F
:10406000310509F44AC0281B390B24303105D8F535
:104070008A819B816115710589F1FB01938382839C
:10408000FE0111C0408151810281138148175907F7
:10409000E0F04817590799F4109761F012960C93C5
:1040A000129713961C933296CF01DF91CF911F91F7
:1040B0000F91089500934F0710935007F4CF2115E7
:1040C000310551F04217530738F0A901DB019A017D
:1040D000BD01DF01F801C1CFEF01F9CF9093500787
:1040E00080934F07CDCFFE01E20FF31F8193919391
:1040F0002250310939832883D7CF20914D07309141
:104100004E07232B41F42091030230910402309397
:104110004E0720934D072091010230910202211594
:10412000310541F42DB73EB740910502509106028A
:10413000241B350BE0914D07F0914E07E217F30772
:10414000A0F42E1B3F0B2817390778F0AC014E5F07
:104150005F4F2417350748F04E0F5F1F50934E07EF
:1041600040934D07819391939FCFF0E0E0E09CCF87
:10417000CF93DF930097E9F0FC013297138212820C
:10418000A0914F07B0915007ED0130E020E010976B
:10419000A1F420813181820F931F20914D0730912E
:1041A0004E072817390709F061C0F0934E07E093D6
:1041B0004D07DF91CF910895EA01CE17DF07E8F5AB
:1041C0004A815B819E0141155105B1F7E901FB83ED
:1041D000EA8349915991C40FD51FEC17FD0761F48B
:1041E000808191810296840F951FE90199838883CC
:1041F000828193819B838A83F0E0E0E012968D9127
:104200009C9113970097B9F52D913C911197CD0191
:104210000296820F931F20914D0730914E07281769
:10422000390739F6309751F51092500710924F0721
:10423000B0934E07A0934D07BCCFD383C283408178
:104240005181840F951FC817D90761F44E5F5F4FE6
:1042500088819981480F591F518340838A819B81AE
:10426000938382832115310509F0B0CFF093500775
:10427000E0934F079ECFFD01DC01C0CF1382128275
:10428000D7CF4F925F926F927F928F929F92AF9211
:10429000BF92CF92DF92EF92FF920F931F93CF9333
:1042A000DF938C01009799F4CB01DF91CF911F919F
:1042B0000F91FF90EF90DF90CF90BF90AF909F90C5
:1042C0008F907F906F905F904F900C941C20FC011A
:1042D000E60FF71F9C0122503109E217F30708F49B
:1042E000AEC0D901CD91DC911197C617D70720F147
:1042F000C530D10578F0CE0104978617970750F0A6
:10430000C61BD70B2297C193D1936D937C93CF019A
:104310000E94B820C801DF91CF911F910F91FF90AB
:10432000EF90DF90CF90BF90AF909F908F907F9055
:104330006F905F904F9008955B01AC1ABD0A4C01DD
:104340008C0E9D1EA0914F07B0915007512C412C0F
:10435000F12CE12C109731F580914D0790914E078B
:104360008815990509F05CC04616570608F058C034
:104370008091010290910202009741F48DB79EB79F
:104380004091050250910602841B950BE817F9072E
:1043900008F055C0F0934E07E0934D07F901718383
:1043A0006083B8CF8D919C91119712966C90129763
:1043B00013967C901397A815B90559F56C0142E046
:1043C000C40ED11CCA14DB0420F1AC014A195B09EC
:1043D000DA011296159780F06282738251834083CE
:1043E000D9016D937C93E114F10471F0D701139618
:1043F000FC93EE9312978ECF22968C0F9D1FF9019E
:1044000091838083F301EFCFF0935007E0934F0740
:1044100081CF4816590608F42C017D01D3019ACFAB
:10442000CB010E941C207C01009749F0AE01B8012D
:104430000E942222C8010E94B82087016BCF10E0A1
:1044400000E068CFFB01DC0102C001900D924150F9
:104450005040D8F70895FB01DC0101900D92002037
:10446000E1F7089511E0C0E7D1E000E006C0802F39
:10447000FE010E94E11E2196011DC137D10780E097
:084480000807A9F7F894FFCF2B
:10448800FF000051078000363738391B1D1A1C0001
:104498000000002402F7015009CD01F001DD01CE32
:1044A8000100000000C106FE0544060E077506530C
:1044B80006670600000000290EFE0550094F095343
:1044C8006572766F20616E676C65206973206F7501
:1044D80074206F662072616E676521000D0A006E98
:0C44E800616E00696E66006F7666000071
:00000001FF
