:100000000C9471010C94A2010C94A2010C94A20115
:100010000C94A2010C94A2010C94A2010C94A201D4
:100020000C94A2010C94CA0B0C94CA0B0C94CA0B2E
:100030000C94A2010C94420D0C94A2010C94A20108
:100040000C94A2010C949B0F0C94A2010C94A2019D
:100050000C94A2010C94A2010C94A2010C94F80C33
:100060000C94A2010C94B10E0C94870E0C94A20176
:100070000C94A2010C94A2010C94A2010C94A20174
:100080000C94A2010C94A2010C94A2010C94A20164
:100090000C94A2010C94A2010C94A2010C94D40B18
:1000A0000C94A2010C94A2010C94A2010C94A20144
:1000B0000C94A2010C94A2010C94A2010C94DB0EEE
:1000C0000C94A2010C94A2010C94A2010C945D0E5C
:1000D0000C94330E0C94A2010C94090E0C94DF0DB9
:1000E0000C94A2010C94B6020C94AC020C94F7018F
:1000F0000C947F020C94F6040C94CB010C94DD015B
:100100000C94CD010C948C070C9406060C946E078D
:100110000C94CE010C9486020C949E020C949A02CC
:100120000C9482070C944B050C947B020C94CC012C
:100130000C94F0010C945F050C94B1020C943C05F6
:100140000C9464070C946D050C9424020C948302A7
:100150000C9455070C9496020C9409070C94F30622
:100160000C94B2020C94A8020C9477020C944608EA
:100170000C9413070C9419180C9404070C94710236
:100180000C944B070C941D070C94B9050C9437077D
:100190000C9478070C9488100C942F070C94900200
:1001A0000C94A4020C94D50A0C9447080C942707CD
:1001B0000C948C020C9496070C94410702000021C9
:1001C00000240027002A002D003000330001010028
:1001D00000040107010A0100002200250028002B6D
:1001E000002E003100340002010000050108010B5F
:1001F00001000020002300260029002C002F0032DF
:1002000000000100000301060109010505050507BD
:100210000508080808020202020A0A080804040481
:1002200004010101010101010103030303030303AD
:1002300003040707070C0C0C0C0C0C0C0C0202023C
:100240000206060606060606060B0B0B0B0B0B0B2F
:100250000B010210202008081020401020408002CE
:1002600001020108040201010204081020408080FC
:100270004020100804020180040201804020100880
:100280000402010804020101020408102040800158
:100290000204081020408000000A0B02090C0D0E19
:1002A0000807030401000000000000000000000037
:1002B000000000000000000000000000000000003E
:1002C00000000012111000000000000000000000FB
:1002D0000000000000000000000000000000881086
:1002E000191811241FBECFEFD1E2DEBFCDBF00E051
:1002F0000CBF12E0A0E0B2E0E6E8F9E300E00BBFDB
:1003000002C007900D92A038B107D9F727E0A0E806
:10031000B2E001C01D92A536B207E1F711E0C0E7D7
:10032000D1E000E006C021970109802FFE010E9464
:100330007419CF36D10780E00807A9F70E947E1212
:100340000C94B11C0C9400002091F402260F33276A
:10035000331F21323105ECF420914103FC0190E080
:1003600080E0243069F082E00895A091F4022191A8
:10037000AC014E525D4FA40FB52FB11D2C930196C9
:10038000861798F38091F402680F6093F40280E07E
:10039000089581E00895089508950895E091D002A8
:1003A0008091CF02E81730F4F0E0E155FD4F8081F5
:1003B00090E008958FEF9FEF08959091D002809183
:1003C000CF022FEF3FEF981748F4E92FF0E0E15507
:1003D000FD4F208130E09F5F9093D002C9010895C6
:1003E0008091CF029091D002891B990B0895CF92F2
:1003F000DF92EF92FF920F931F93CF93DF937C01D5
:10040000CB018A0120914703222389F0EB016B0184
:10041000C40ED51ECC15DD0569F06991D701ED91AB
:10042000FC910190F081E02DC7011995F3CF642F65
:100430000E94A401C801DF91CF911F910F91FF90FD
:10044000EF90DF90CF900895CF93DF931F92CDB7B9
:10045000DEB76983209147032223F9F020916A03D4
:10046000203258F021E030E0FC013383228390E019
:1004700080E00F90DF91CF91089580914803E82F9D
:10048000F0E0E75BFC4F998190838F5F8093480396
:1004900080936A0381E090E0ECCF61E0CE010196A9
:1004A0000E94A401F7CF8150823108F05AC0E82F92
:1004B000F0E08827E15AFD4F8F4F0C9474197F02AA
:1004C0008302710277027B02B10286028C029002E3
:1004D00096029A029E02A402A802B102AC02B202E3
:1004E000B602809180008F7780938000089580917C
:1004F00080008F7DF9CF80918000877FF5CF84B514
:100500008F7784BD089584B58F7DFBCF8091B00037
:100510008F778093B00008958091B0008F7DF9CFE0
:10052000809190008F778093900008958091900043
:100530008F7DF9CF80919000877FF5CF8091A000CB
:100540008F778093A00008958091A0008F7DF9CFD0
:100550008091A000877FF5CF809120018F778093D5
:1005600020010895809120018F7DF9CF8091200195
:10057000877FF5CFCF93DF93282F30E0F901E9563D
:10058000FD4F8491F901EF5AFD4FD491F901E55FD8
:10059000FD4FC491CC23A1F081110E945302EC2F96
:1005A000F0E0EE0FFF1FEF50FE4FA591B491EC91DC
:1005B000ED2381E090E009F480E0DF91CF91089590
:1005C00080E090E0FACF1F93CF93DF93282F30E0A5
:1005D000F901E956FD4F8491F901EF5AFD4FD4918D
:1005E000F901E55FFD4FC491CC23A9F0162F8111CD
:1005F0000E945302EC2FF0E0EE0FFF1FE952FE4F76
:10060000A591B4918FB7F894EC91111108C0D095D1
:10061000DE23DC938FBFDF91CF911F910895DE2BF6
:10062000F8CF1092410381E08093400310921B03A6
:1006300061E084E10E94E30261E085E10E94E3025F
:10064000E9EBF0E080818E7F808380818D7F8083E5
:1006500088E48093B80085E48093BC000895CF932C
:10066000DF9391E09093D1028823B9F0C091B80054
:10067000D091BA008091BC008A7B8093BC0060E07E
:1006800084E10E94E30260E085E10E94E3020E94AF
:100690001103D093BA00C093B800DF91CF910895B1
:1006A000CF93DF9390E0FC01EF5AFD4F2491855FDB
:1006B0009D4FFC0184918823D1F090E0880F991F11
:1006C000FC01E354FE4FA591B491FC01E952FE4FA9
:1006D000C591D49161110EC09FB7F8948C91E22F0F
:1006E000E0958E238C932881E223E8839FBFDF91DE
:1006F000CF9108958FB7F894EC91E22BEC938FBFD4
:10070000F6CF3FB7F8948091AB029091AC02A091E4
:10071000AD02B091AE0226B5A89B05C02F3F19F0DF
:100720000196A11DB11D3FBFBA2FA92F982F882771
:10073000BC01CD01620F711D811D911D42E0660F4C
:10074000771F881F991F4A95D1F70895CF92DF929E
:10075000EF92FF920F931F93CF93DF93D0916A0391
:1007600081E0D13208F09CC0C09169030E948103EE
:100770006B017C018091410381116CC082E0809308
:10078000410381E0809340038FEF80933F031092F9
:100790003E03D0933D03A9E4B3E0EDE1F3E080E054
:1007A000D8138DC010921C0380911C03CC0FC82B52
:1007B000C0931C0380911B03813009F084C0109208
:1007C0001B030E9481036B017C0180911C038093B9
:1007D000BB008091430390914403A0914503B091E5
:1007E0004603892B8A2B8B2BA1F00E948103009159
:1007F00043031091440320914503309146036C1943
:100800007D098E099F09061717072807390708F47D
:1008100042C08091BC0083FDD8CF85EC8093BC00A2
:100820000E9481036B017C0180914103823009F4B5
:100830004CC080913F038F3F09F469C080913F0312
:10084000803209F466C080913F03803309F463C0AD
:1008500084E026C08091430390914403A091450316
:10086000B0914603892B8A2B8B2B09F483CF0E94EE
:10087000810300914303109144032091450330917B
:1008800046036C197D098E099F090617170728076B
:10089000390708F06FCF809142030E942F0385E053
:1008A0001092480310926A0310924703DF91CF9190
:1008B0001F910F91FF90EF90DF90CF9008959D9141
:1008C00091938F5F6DCF85EEA9CF80914303909177
:1008D0004403A0914503B0914603892B8A2B8B2BAF
:1008E00009F4A2CF0E9481030091430310914403B5
:1008F00020914503309146036C197D098E099F09AB
:10090000061717072807390708F08ECFC4CF80E0F5
:10091000C7CF82E0C5CF83E0C3CF0F931F93CF93A0
:10092000DF93162F072FCAE2D7E0AA85BB859C85E7
:1009300021E020934703909369031092480310929B
:100940006A03ED91FC9111970190F081E02D682FE1
:10095000CD0119958A859B85DC01ED91FC91019073
:10096000F081E02D602F19958A859B85DC01ED9142
:10097000FC910190F081E02D612F1995DF91CF91CD
:100980001F910F910C94A6038F929F92AF92BF92EA
:10099000CF92DF92EF92FF924B015C010E948103A4
:1009A0006B017C010E9481036C197D098E099F09EE
:1009B000683E734081059105A8F321E0821A9108F1
:1009C000A108B10888EEC80E83E0D81EE11CF11C16
:1009D00081149104A104B10429F7FF90EF90DF90F6
:1009E000CF90BF90AF909F908F900895AF92BF929D
:1009F000CF92DF92EF92FF920F931F93CF93DF93EB
:100A00006C017B018B01040F151FEB015E01AE1819
:100A1000BF08C017D10759F06991D601ED91FC913B
:100A20000190F081E02DC6011995892B79F7C50158
:100A3000DF91CF911F910F91FF90EF90DF90CF90BA
:100A4000BF90AF900895FC01A089B1898C91A689CF
:100A5000B78982FD0FC09C91818D8F5F8F73228D2E
:100A6000821749F0A18DAE0FBF2FB11D5D969C93EB
:100A7000818F08958C910895FC01538D448D252F0D
:100A800030E0842F90E0821B930B541710F0CF9628
:100A9000089501970895FC01918D828D981761F05A
:100AA000A28DAE0FBF2FB11D5D968C91928D9F5F71
:100AB0009F73928F90E008958FEF9FEF0895FC0150
:100AC000918D828D981731F0828DE80FF11D858D03
:100AD00090E008958FEF9FEF0895FC01918D228D96
:100AE000892F90E0805C9F4F821B91098F7399271B
:100AF000089587E793E00E946D0521E0892B09F4B2
:100B000020E0822F089584E194E00E946D0521E0A9
:100B1000892B09F420E0822F089581EB94E00E9454
:100B20006D0521E0892B09F420E0822F0895FC0156
:100B3000A48DA80FB92FB11DA35ABF4F2C91848D3E
:100B400090E001968F739927848FA689B7892C939B
:100B5000A089B1898C91837080648C93938D848DEE
:100B6000981306C00288F389E02D80818F7D8083F1
:100B70000895EF92FF920F931F93CF93DF93EC01B1
:100B800081E0888F9B8D8C8D98131AC0E889F98934
:100B9000808185FF15C09FB7F894EE89FF89608337
:100BA000E889F98980818370806480839FBF81E0B8
:100BB00090E0DF91CF911F910F91FF90EF900895FA
:100BC000F62E0B8D10E00F5F1F4F0F731127E02ED5
:100BD0008C8D8E110CC00FB607FCFACFE889F9890D
:100BE000808185FFF5CFCE010E949705F1CFEB8D77
:100BF000EC0FFD2FF11DE35AFF4FF0829FB7F894E1
:100C00000B8FEA89FB8980818062CFCFCF93DF93FE
:100C1000EC01888D8823B9F0AA89BB89E889F98914
:100C20008C9185FD03C0808186FD0DC00FB607FC49
:100C3000F7CF8C9185FFF2CF808185FFEDCFCE017C
:100C40000E949705E9CFDF91CF910895F0E0E0E0B1
:100C5000199480E090E0892B29F00E948D05811184
:100C60000E94000080E090E0892B49F080E090E055
:100C7000892B29F00E94000081110E9400000E942F
:100C8000830581110E94260680E090E0892B29F0DF
:100C90000E94790581110C940000089581110CC007
:100CA000611105C04423A1F087E090E0089544233A
:100CB00091F085E090E00895611105C0442371F042
:100CC00083E090E00895442361F081E090E008958E
:100CD00088E090E0089586E090E0089584E090E058
:100CE000089582E090E008958F929F92AF92BF9214
:100CF000CF92DF92EF92FF920F931F93CF93DF93E8
:100D0000EC016A017B0120E030E04FE753E4CB01C6
:100D1000B6010E9488184B015C0120E030E0A90177
:100D20000E94911A18168CF5C501B4010E945B1A35
:100D30008B01B98020E030E0A901C701B6010E9413
:100D4000911A60E018160CF061E08B2D0E94E3020E
:100D50000F3F110509F0ECF41127C88161E08C2FD9
:100D60000E94500301151105B9F460E08C2FDF914A
:100D7000CF911F910F91FF90EF90DF90CF90BF9098
:100D8000AF909F908F900C94E302C501B4019058EE
:100D9000CDCF0FEF10E0E1CF0F3F110511F461E06F
:100DA000E5CFEC2FF0E0E956FD4FE491E150E23160
:100DB00008F0BCC0F0E08827EF51F94F8F4F0C943A
:100DC0007419F3060407090713071D079607270779
:100DD0002F07370741074B07550764076E0796072C
:100DE000780782078C0784B5806884BD07BDDF91D2
:100DF000CF911F910F91FF90EF90DF90CF90BF9018
:100E0000AF909F908F90089584B5806284BD08BD97
:100E1000EECF8091800080688093800010938900DD
:100E200000938800E4CF80918000806280938000EE
:100E300010938B0000938A00DACF80918000886045
:100E40008093800010938D0000938C00D0CF809110
:100E5000B00080688093B0000093B300C8CF809149
:100E6000B00080628093B0000093B400C0CF809146
:100E700090008068809390001093990000939800F0
:100E8000B6CF8091900080628093900010939B0079
:100E900000939A00ACCF809190008860809390007E
:100EA00010939D0000939C00A2CF8091A0008068C9
:100EB0008093A0008091A0008F7B8093A00010936E
:100EC000A9000093A80093CF8091A0008062809336
:100ED000A0001093AB000093AA0089CF8091A000DE
:100EE00088608093A0001093AD000093AC007FCF8A
:100EF0008091200180688093200110932901009344
:100F0000280175CF80912001806280932001109389
:100F10002B0100932A016BCF809120018860809380
:100F2000200110932D0100932C0161CF0038110591
:100F30000CF035CF1ACF8EBD00000DB407FEFDCFEB
:100F40008EB50895CF93DF93EC0160E088810E9415
:100F5000E30288E90E949B0780E00E949B0780E0F3
:100F60000E949B0780E00E949B0780E00E949B07F5
:100F700061E088810E94E3028BE891E00197F1F73C
:100F800060E088810E94E30280EE0E949B0761E09E
:100F90008881DF91CF910C94E302AF92BF92CF9200
:100FA000DF92EF92FF920F931F93CF93DF93CDB712
:100FB000DEB760970FB6F894DEBF0FBECDBF6C01F1
:100FC00060E0FC0180810E94E30280E60E949B07B2
:100FD0009E012F5F3F4F79015E0131E1A30EB11CED
:100FE000870180E00E949B0790E0B0E0A0E0F8015C
:100FF00081939193A193B1938F01EA15FB0589F732
:1010000061E0F60180810E94E30280E090E0DC0173
:10101000F70141915191619171917F01BA2FA92FEF
:10102000982F8827840F951FA61FB71FE017F10779
:1010300079F79C01AD0166277727CB01621B730B03
:10104000840B950B60960FB6F894DEBF0FBECDBF34
:10105000DF91CF911F910F91FF90EF90DF90CF9094
:10106000BF90AF900895FC01248131E03093470395
:10107000209369031092480310926A038485682BB9
:101080008BE693E00E9424020C94A603089590E05E
:1010900080E008956F927F928F929F92AF92BF925D
:1010A000CF92DF92EF92FF920F931F93CF93DF9334
:1010B0008C01EB0187E20E94BA026C0188E20E9477
:1010C000BA027C0186E20E94BA029C0141E0CD286E
:1010D00009F440E061E0EF2809F460E081E0232BAF
:1010E00009F480E00E944E067C0160909E027090A0
:1010F0009F0280909C0290909D0281E0E816F1048E
:1011000009F09CC0E1E06E16710409F065C0F1E0E1
:101110008F16910409F060C080919A0290919B0211
:10112000029709F085C0CC24C394D12C6FEF7FEFD8
:10113000072E000C880B990B0E9429182DEC3CEC13
:101140004CE45EE30E948818AB01BC0183E497E0A5
:101150000E947406B601DD0C880B990B0E942918B9
:101160002DEC3CEC4CE45EE30E948818AB01BC0122
:10117000705885E497E00E94740665E070E080E0B6
:1011800090E00E94C40487E20E94BA025C0188E2F7
:101190000E94BA026C0186E20E94BA029C0141E000
:1011A000AB2809F440E061E0CD2809F460E081E07B
:1011B000232B09F480E00E944E060197F1F28DEC9A
:1011C0009CECACE4BEE3F80180839183A283B383FB
:1011D00088839983AA83BB8390929B0280929A0210
:1011E00070929D0260929C02F0929F02E0929E0299
:1011F000F801408151816281738183E497E00E940C
:101200007406488159816A817B81705885E497E032
:10121000DF91CF911F910F91FF90EF90DF90CF90D2
:10122000BF90AF909F908F907F906F900C947406BA
:1012300061E070E0CC24CA94DC2C7ACFF2E0EF16A7
:10124000F10459F520E030E040E05FE36881798106
:101250008A819B810E94221887FFBECF2AE037ED4A
:1012600043E25CE3F80160817181828193810E9495
:101270007C19F80160837183828393832AE037EDC0
:1012800043E25CE3688179818A819B810E947D19B8
:10129000688379838A839B839FCFF3E0EF16F10401
:1012A00039F5F801A080B180C280D38020E030E021
:1012B00040E05FE3C601B5010E94221887FF8CCF92
:1012C0002AE037ED43E25CE3C601B5010E947D19D7
:1012D000F80160837183828393832AE037ED43E2D0
:1012E0005CE3688179818A819B810E947C19D0CFDF
:1012F000C7010497059708F06FCF8DEC9CECACE428
:10130000BEE388839983AA83BB83F801808391839A
:10131000A283B38361CF2F923F924F925F926F92DD
:101320007F928F929F92AF92BF92CF92DF92EF9275
:10133000FF920F931F93CF93DF9320E030E048E4B8
:1013400055E40E94881825E83BEE41EC51E40E94E8
:10135000E9194B015C0187E497E00E94A20789E448
:1013600097E00E94A20740E75DE36AE87EEB85E430
:1013700097E00E94740640E75DE36AE87EE383E459
:1013800097E00E94740610E000E0312C212C90E7D9
:10139000C92E9DE3D92E9AE8E92E9EE3F92E87E423
:1013A00097E00E94CD0790958095709561957F4F4D
:1013B0008F4F9F4F0E942918A50194010E94221867
:1013C00018160CF4B4C087E497E00E94CD079095FE
:1013D0008095709561957F4F8F4F9F4F0E94291880
:1013E0002B013C012AE037ED43EA5DE3C501B4017E
:1013F0000E9488189B01AC01C301B2010E94911A9E
:101400001816FCF421143104E1F446E656E666EEC3
:101410007EE383E497E00E9474062CEE31E548E316
:101420005EE3C701B6010E947D196B017C01BC011E
:10143000A601705885E497E00E9474062224239444
:10144000312C87E497E00E94CD07909580957095A8
:1014500061957F4F8F4F9F4F0E9429182B013C01B0
:1014600026E636E646E65FE3C501B4010E94881829
:101470009B01AC01C301B2010E94911A1816F4F449
:1014800001151105D9F440E75DE36AE87EE383E4E2
:1014900097E00E9474062CEE31E548E35EE3C70155
:1014A000B6010E947C196B017C01BC01A601705839
:1014B00085E497E00E94740601E010E087E497E07D
:1014C0000E94CD079B01AC0188279927DC01821B74
:1014D000930BA40BB50BEC0189E497E00E94CD07B8
:1014E000C617D707C4F42FE632E143E85AE3C70131
:1014F000B6010E947C196B017C01BC01A6017058E9
:1015000085E497E00E94740664E670E080E090E075
:101510000E94C40444CF6C177D07B4F72FE632E174
:1015200043E85AE3C701B6010E947D19E4CF40E0C9
:1015300050E060E070E885E497E00E94740640E0C7
:1015400050E0BA0183E497E00E94740687E497E0D4
:101550000E94A20789E497E0DF91CF911F910F913C
:10156000FF90EF90DF90CF90BF90AF909F908F90C3
:101570007F906F905F904F903F902F900C94A207B8
:101580000F931F93CF938C01C62F64600E94330882
:101590006C2F6B7FC8010E94330883EC90E00197A9
:1015A000F1F7CF911F910F9108950F931F93CF9350
:1015B000DF938C01C62FD62FD07FD1606D2F0E9474
:1015C00033086D2FC8010E94C00A80E1C89FE00166
:1015D0001124C1606C2FC8010E9433086C2FC80110
:1015E0000E94C00A81E090E0DF91CF911F910F919E
:1015F0000895FC0101900020E9F73197AF01481BE5
:10160000590BBC0181EB94E00C94F6048F929F92ED
:10161000AF92BF920F931F93CF93DF93CDB7DEB7F7
:10162000A1970FB6F894DEBF0FBECDBF19A242300E
:1016300008F44AE08E010F5D1F4F842E912CB12CCF
:10164000A12CA50194010E944619E62FB901CA01F7
:10165000EA30F4F4E05DD801EE938D01232B242BC6
:10166000252B79F790E080E0109719F0CD010E94CA
:10167000F90AA1960FB6F894DEBF0FBECDBFDF9179
:10168000CF911F910F91BF90AF909F908F90089531
:10169000E95CE1CF85ED8093BC008091430390919C
:1016A0004403A0914503B09146030796A11DB11DC7
:1016B00023E0B695A795979587952A95D1F7209120
:1016C000BC0024FD03C010924103089540914303E0
:1016D000509144036091450370914603452B462B7E
:1016E000472B69F30097A105B10541F025E32A9541
:1016F000F1F700000197A109B109E1CF8091420300
:101700000C942F030F931F93CF93DF93EC0160E0B2
:1017100089810E94E30283E090E00197F1F761E0A4
:1017200089810E94E30283E290E00197F1F760E093
:1017300089810E94E302888190E0FC01EF5AFD4F0D
:101740006491FC01E55FFD4FE491F0E0EE0FFF1FB7
:10175000EF50FE4F8591949100E412E42FE030E0C9
:10176000462F0E944310611571058105910529F0EE
:101770006F5F7F4F8F4F9F4F9F700E94271820E011
:1017800030E048E652E40E94E919DF91CF911F91C1
:101790000F9108951F920F920FB60F9211240F9080
:1017A0000FBE0F901F9018951F920F920FB60F92B9
:1017B00011240BB60F922F933F934F935F936F9328
:1017C0007F938F939F93AF93BF93EF93FF938091FA
:1017D000B900887F803609F44DC008F040C08832D7
:1017E00009F4A9C028F5803109F49DC0C8F4882304
:1017F00009F4FBC0883009F496C0FF91EF91BF91C6
:10180000AF919F918F917F916F915F914F913F9198
:101810002F910F900BBE0F900FBE0F901F90189539
:10182000883109F488C0803241F780933F0314C0A7
:10183000803409F49DC040F48033B9F38833E9F66D
:1018400080933F0385ECB0C0803509F485C08835AE
:1018500009F496C0883489F60E944A0BCECF8839A5
:1018600009F48CC038F5883729F050F4883611F027
:10187000803719F683E0809341031092180357C014
:10188000883809F47BC0803919F0803809F0B5CF69
:1018900080911803803208F071C0E091180381E054
:1018A0008E0F809318038091BB00F0E0E850FD4F4D
:1018B00080833DC0803B39F0E0F4803A09F479C080
:1018C000883A09F09ACF84E0809341031092F502A0
:1018D0001092F402E091F202F091F30219958091D6
:1018E000F40281110FC081E08093F4021092D202C1
:1018F00009C0803C09F4A6CF883C09F4A3CF883BFB
:1019000009F07BCFE091F50281E08E0F8093F50224
:10191000F0E0EE52FD4F80818093BB009091F50284
:101920008091F40229C080911C038093BB0085EC58
:101930008093BC0062CF90913E0380913D03981745
:1019400058F5E0913E0381E08E0F80933E03F0E076
:10195000E35EFC4F8081E9CFE0913E0381E08E0F92
:1019600080933E038091BB00F0E0E35EFC4F8083F8
:1019700090913E0380913D039817C8F285E8D8CF37
:10198000E0913E0381E08E0F80933E038091BB0087
:10199000F0E0E35EFC4F80838091400381115CCFD7
:1019A00081E080931B0384EA8093BC001092410382
:1019B00024CF85EC8093BC001092410380911803E2
:1019C000803230F4E0911803F0E0E850FD4F1082CF
:1019D0006091180370E0E091F602F091F70288EF51
:1019E00092E019951092180308CF10923F0334CF5C
:1019F0001F920F920FB60F9211242F933F938F9344
:101A00009F93AF93BF938091A7029091A802A0915A
:101A1000A902B091AA023091A60223E0230F2D372C
:101A200058F50196A11DB11D2093A6028093A7022F
:101A30009093A802A093A902B093AA028091AB024E
:101A40009091AC02A091AD02B091AE020196A11DA1
:101A5000B11D8093AB029093AC02A093AD02B09302
:101A6000AE02BF91AF919F918F913F912F910F90B7
:101A70000FBE0F901F90189526E8230F0296A11D08
:101A8000B11DD2CF1F920F920FB60F9211240BB639
:101A90000F922F933F934F935F936F937F938F9307
:101AA0009F93AF93BF93EF93FF938091A102909187
:101AB000A202A091A302B091A402892B8A2B8B2BA6
:101AC000D1F19091A00280910000892780930000BD
:101AD0008091A1029091A202A091A302B091A402D0
:101AE000181619061A061B069CF48091A102909103
:101AF000A202A091A302B091A4020197A109B10989
:101B00008093A1029093A202A093A302B093A40297
:101B1000FF91EF91BF91AF919F918F917F916F91C5
:101B20005F914F913F912F910F900BBE0F900FBE81
:101B30000F901F90189580910002ECEBF1E0E4917A
:101B40009FEF90930002E230E9F040F4EE2389F039
:101B5000E13091F060E00E94E302DACFE43049F135
:101B600010F1E530B9F7909173009D7F9093730069
:101B7000F1CF10926E00EECF90916F009D7F909309
:101B80006F00E8CF909170009D7F9093700091E07E
:101B90009093B0009091B100987F94609093B100C1
:101BA0001092B300D7CF909171009D7F90937100F8
:101BB000D1CF909172009D7F90937200CBCF1F92F6
:101BC0000F920FB60F9211240BB60F922F933F93E3
:101BD0004F935F936F937F938F939F93AF93BF9335
:101BE000EF93FF9387E793E00E949705FF91EF91B2
:101BF000BF91AF919F918F917F916F915F914F9125
:101C00003F912F910F900BBE0F900FBE0F901F9022
:101C100018951F920F920FB60F9211240BB60F92C8
:101C20002F933F934F935F936F937F938F939F93E4
:101C3000AF93BF93EF93FF9387E793E00E94230551
:101C4000FF91EF91BF91AF919F918F917F916F9194
:101C50005F914F913F912F910F900BBE0F900FBE50
:101C60000F901F9018951F920F920FB60F9211248C
:101C70000BB60F922F933F934F935F936F937F9386
:101C80008F939F93AF93BF93EF93FF9384E194E07F
:101C90000E949705FF91EF91BF91AF919F918F9116
:101CA0007F916F915F914F913F912F910F900BBE5C
:101CB0000F900FBE0F901F9018951F920F920FB6A6
:101CC0000F9211240BB60F922F933F934F935F9374
:101CD0006F937F938F939F93AF93BF93EF93FF93F4
:101CE00084E194E00E942305FF91EF91BF91AF91B1
:101CF0009F918F917F916F915F914F913F912F9124
:101D00000F900BBE0F900FBE0F901F9018951F9253
:101D10000F920FB60F9211240BB60F922F933F9391
:101D20004F935F936F937F938F939F93AF93BF93E3
:101D3000EF93FF9381EB94E00E949705FF91EF9161
:101D4000BF91AF919F918F917F916F915F914F91D3
:101D50003F912F910F900BBE0F900FBE0F901F90D1
:101D600018951F920F920FB60F9211240BB60F9277
:101D70002F933F934F935F936F937F938F939F9393
:101D8000AF93BF93EF93FF9381EB94E00E94230501
:101D9000FF91EF91BF91AF919F918F917F916F9143
:101DA0005F914F913F912F910F900BBE0F900FBEFF
:101DB0000F901F9018951F920F920FB60F9211243B
:101DC0000BB60F922F933F934F935F936F937F9335
:101DD0008F939F93AF93BF93EF93FF93809154059D
:101DE0000E94BA0220915805309159052F5F3F4F4C
:101DF000309359052093580590915705953618F062
:101E000096E09093530590915305943009F466C081
:101E1000B8F49230F1F0933009F444C09091560533
:101E2000992309F46BC081117CC0809155058823EA
:101E300009F463C08091550561E00E94E3025EC031
:101E4000953009F457C0963049F791E090932406F5
:101E50004FC08111E3CF20915805309159052436A8
:101E6000310528F41092590510925805D7CF1092D9
:101E7000240610925705E091570591E09E0F90932C
:101E80005705F0E02091580530915905EE0FFF1FDE
:101E9000ED5AFA4F30872783109259051092580552
:101EA00093E019C0813009F0B9CFE091570591E076
:101EB0009E0F90935705F0E02091580530915905F9
:101EC000EE0FFF1FED5AFA4F308727831092590506
:101ED0001092580594E090935305A0CF882359F2AF
:101EE00020915805309159052536310508F496CFD3
:101EF00095E0F1CF811192CFB5CF2F9AFF91EF915D
:101F0000BF91AF919F918F917F916F915F914F9111
:101F10003F912F910F900BBE0F900FBE0F901F900F
:101F2000189580915505882321F08091550560E032
:101F300084CF2F98E3CF1F920F920FB60F921124E8
:101F40000BB60F922F933F934F935F936F937F93B3
:101F50008F939F93AF93BF93CF93DF93EF93FF93B1
:101F600080919902C0916106D0E087FF23C0109252
:101F7000850010928400809199028F5F809399026E
:101F800080919902082E000C990B8C179D0724F460
:101F9000809199028C3074F1809184009091850039
:101FA00084349C4908F465C0809184009091850038
:101FB000049661C080919902082E000C990B8C1731
:101FC0009D07CCF63091990225E03203F0011124EF
:101FD000EB5DF94F808186FFCECF309199023203BD
:101FE000F0011124EB5DF94F808160E08F730E9456
:101FF000E302C1CF809184009091850030919902D5
:1020000025E03203F0011124EB5DF94F418152814B
:10201000840F951F909389008093880030919902D6
:102020003203F0011124EB5DF94F808186FF0CC073
:10203000309199023203F0011124EB5DF94F808158
:1020400061E08F730E94E302FF91EF91DF91CF91E6
:10205000BF91AF919F918F917F916F915F914F91C0
:102060003F912F910F900BBE0F900FBE0F901F90BE
:10207000189580E49CE990938900809388008FEF05
:1020800080939902E1CFCF92DF92EF92FF920F936C
:102090001F93E82FF92F05C00150110921093109BB
:1020A00061F1908196239417B9F305C0015011098D
:1020B0002109310911F1908196239413F7CFC12C96
:1020C000D12CE12CF12C0AC08FEFC81AD80AE80AEB
:1020D000F80A0C151D052E053F0579F08081862331
:1020E000841791F36C2D7D2D8E2D9F2D1F910F91B7
:1020F000FF90EF90DF90CF90089560E070E080E077
:1021000090E01F910F91FF90EF90DF90CF90089596
:1021100010926E0310926D0388EE93E0A0E0B0E0A1
:1021200080936F0390937003A0937103B093720335
:1021300023E132E030936C0320936B0310927A0317
:102140001092790380937B0390937C03A0937D038B
:10215000B0937E0325E232E0309378032093770337
:1021600045E351E0509384034093830344E351E0FB
:10217000509386034093850340E351E050938803D6
:102180004093870341E351E050938A0340938903CE
:1021900042E351E050938C0340938B0346E351E0BC
:1021A00050938E0340938D031092900310929103ED
:1021B0001092920310929303109217041092160437
:1021C0008093180490931904A0931A04B0931B04ED
:1021D000309315042093140445ED50E050932104EE
:1021E0004093200444ED50E0509323044093220494
:1021F00040ED50E0509325044093240441ED50E01D
:10220000509327044093260442ED50E05093290454
:102210004093280446ED50E050932B0440932A0449
:1022200010922D0410922E0410922F04109230045C
:102230001092B4041092B3048093B5049093B60442
:10224000A093B704B093B8043093B2042093B104C0
:1022500085EC90E09093BE048093BD0484EC90E004
:102260009093C0048093BF0480EC90E09093C204EC
:102270008093C10481EC90E09093C4048093C304E4
:1022800082EC90E09093C6048093C50486EC90E0C5
:102290009093C8048093C7041092CA041092CB0490
:1022A0001092CC041092CD0410924E058BEE90E06B
:1022B000909352058093510581E090E090935005F2
:1022C00080934F058091070290910802A091090226
:1022D000B0910A0280934B0790934C07A0934D074F
:1022E000B0934E0780910B0290910C02A0910D02C9
:1022F000B0910E0280934F0790935007A09351071F
:10230000B093520784E08093530787E0809354078B
:102310001092550784EB8093560786E18093570708
:1023200088E18093580787E18093590789E180937A
:102330005A07E0916106EC3008F4A9C08FEF809352
:102340005B07E0916106EC3008F4B2C08FEF809338
:102350005C078CE080932A0784E280932B0786E059
:1023600080932C0785E080932D078FE180932E07C3
:102370008EE180932F0783E28093300782E280937F
:10238000310785E48093320784E48093330780E447
:102390008093360710923B0710923C0710923D073E
:1023A00010923E0710923F0710924007109241078B
:1023B00010924207ECE6F6E08FEF9FEFDC0112820D
:1023C00013821482158216821782108611868387E3
:1023D0009487A587B6878787908BA18BB28B12864F
:1023E00011821082739627E0EA32F20741F78DE0FE
:1023F00090E00E949B1AFC011382128287E392E014
:1024000091838083118687E2848384E1828784E0DC
:1024100083871486F0936906E093680610926A0633
:1024200010926B0685E28093540510925605109227
:10243000630610926206109265061092640610926E
:1024400067061092660661E070E090E080E00E940E
:10245000C01B0097F1F1909363068093620610927F
:102460006506109264062091660630916706232B5C
:1024700011F4FC011082109267061092660665E561
:1024800072E080916206909163060C94AA1C81E030
:102490008E0F80936106E0935B0725E0E29FF001D9
:1024A0001124EB5DF94F88EB9BE09283818349CF48
:1024B00081E08E0F80936106E0935C0785E0E89FE2
:1024C000F0011124EB5DF94F88EB9BE0928381834F
:1024D00040CF8091620690916306009711F00E94B0
:1024E000371B1092630610926206109267061092D4
:1024F000660610926506109264060895CF93DF93E6
:1025000000D000D01F921F92CDB7DEB7789484B56B
:10251000826084BD84B5816084BD85B5826085BDDF
:1025200085B5816085BD80916E00816080936E006D
:10253000109281008091810082608093810080915F
:102540008100816080938100809180008160809310
:1025500080008091B10084608093B1008091B000D0
:1025600081608093B000809191008260809391009F
:1025700080919100816080939100809190008160B2
:10258000809390008091A10082608093A10080914F
:10259000A10081608093A1008091A0008160809360
:1025A000A00080912101826080932101809121010E
:1025B00081608093210180912001816080932001BE
:1025C00080917A00846080937A0080917A008260A2
:1025D00080937A0080917A00816080937A00809164
:1025E0007A00806880937A001092C100E091C10463
:1025F000F091C20482E08083E091BD04F091BE04BA
:102600001082E091BF04F091C0048FEC808310929F
:10261000C904E091C504F091C60486E08083E0918E
:10262000C304F091C404808180618083E091C3047D
:10263000F091C404808188608083E091C304F091AC
:10264000C404808180688083E091C304F091C40455
:1026500080818F7D808361E080912B070E945003F1
:1026600060E080912B070E94E30260E080912A07DE
:102670000E9450038BE693E09093350780933407D4
:102680001092D0021092CF021092480310926A0367
:102690000E9411038BEC91E09093F3028093F2027D
:1026A0008CEC91E09093F7028093F60280E090E149
:1026B000A0E0B0E08093370790933807A0933907E4
:1026C000B0933A078AE090E0A0E0B0E080933B0747
:1026D00090933C07A0933D07B0933E0780E090E0C5
:1026E000A0E0B0E480933F0790934007A093410798
:1026F000B093420760E070E185E00E948D046FE9CD
:1027000079E380E00E948D046CE2E62E67E0F62E0D
:102710000AE217E07EE2A72E77E0B72EE0E44E2E25
:10272000E2E05E2EF6E86F2EF2E07F2EABECCA2ED2
:10273000A7E0DA2ED70112969C91F70181917F01D3
:10274000D80159968C9359975A969C9361E00E94B0
:10275000500361E0F801828D0E9450034801FDE1C1
:102760008F0E911CD70115969C91159713968C91FD
:10277000F801858F968F61E00E94500360E0D801D8
:102780005E968C910E94500361E0F801858D0E9455
:10279000E3023FB6F8948091A502811125C0F201B1
:1027A0008491F3019491E82FF0E0EE0FFF1FE354C2
:1027B000FE4FA591B4918C91982321F461E085E3BB
:1027C0000E94E30261E085E30E9450038CB58061C2
:1027D0008CBD8CB580648CBD61E084E30E945003A5
:1027E00061E083E30E9450038091A5028F5F809394
:1027F000A5023FBEC6010197F1F760E0D8015D96E2
:102800008C910E94E30288E80E949B0783E00E946B
:102810009B0761E0F801858D0E94E302C6010197E4
:10282000F1F7C4010E94A2070E5F1F4FA016B10668
:1028300009F080CF0FE417E03BE4E32E37E0F32EFE
:1028400043E5C42E47E0D42E60E0D8018D918D0180
:102850000E945003C016D106B9F703E517E085E0E2
:10286000D82E9CE0B92E22E0C22EF801A1908F0153
:1028700087818C3008F046C061E08A2D0E945003A9
:10288000D80117968C91D89EF0011124EB5DF94F79
:102890002A2D2F739081907C922B90831382148227
:1028A0006B2D0E9468198B9DA001112430E020E05F
:1028B000BA01620F731FD69EF001D79EF00D11244E
:1028C000EB5DF94F908196FD12C02F5F3F4F2C308A
:1028D000310571F781110BC010928000C092810008
:1028E0001092850010928400C6BAC0926F00D80181
:1028F0001796EC91DE9EF0011124EB5DF94F80817B
:1029000080648083F80195818381D70152968C93EE
:10291000529753969C9360E00E94500361E0F70148
:1029200083890E94500360E0D70153968C910E94E6
:10293000E302B2E0EB0EF11CEFE4EE16E7E0FE0678
:1029400009F093CFF8941092200189E0809321013F
:1029500080E293E090932901809328011092250151
:102960001092240182E08093730078948093530541
:10297000109257058091540560E00E94500361E079
:1029800083E00E94500361E085E00E94500361E013
:1029900086E00E94500361E08EE20E94500361E0F5
:1029A00080E30E94500361E08AE20E94500361E0EC
:1029B0008CE20E94500360E083E40E94500360E0D8
:1029C00088E20E94500360E086E20E94500360E0CB
:1029D00087E20E94500315E48DEC9CECACE4BEE36E
:1029E0008D839E83AF83B88789839A83AB83BC83AF
:1029F00080917B00886080937B0010937C008091A5
:102A00007A00806480937A0080917A0086FDFCCF02
:102A100090917800809179008927982789278034C0
:102A2000924044F4BE016F5F7F4FCE0105960E9435
:102A30004A08DECF61E08EE20E94E30261E080E3BB
:102A40000E94E30261E08AE20E94E3028DE597E0E2
:102A50000E94820B6B017C01AC019B010E94961AC3
:102A6000882309F497C08FE392E00E94F90A20E0DE
:102A700030E040E252E4C701B6010E94911A1816F4
:102A80000CF41AC120E030E040EA50E4C701B6017E
:102A90000E94221887FD10C140E050E0BA0183E493
:102AA00097E00E94740640E050E060E070E885E442
:102AB00097E00E9474066AE070E080E090E00E9477
:102AC000C4048BE492E00E94F90A60E08EE20E9466
:102AD000E30260E080E30E94E30260E08AE20E9499
:102AE000E30261E08CE20E94E3028DE597E00E9440
:102AF000820B6B017C0180E592E00E94F90A87E479
:102B000097E00E94A20789E497E00E94A2074AE9A1
:102B100059E969E17EE383E497E00E9474064AE99B
:102B200059E969E17EE385E497E00E94740687E451
:102B300097E00E94CD0790958095709561957F4FA5
:102B40008F4F9F4F0E94291823E933EF44EF54E43D
:102B50000E94221818160CF4BDC089E497E00E9468
:102B6000CD0790958095709561957F4F8F4F9F4FC2
:102B70000E94291823E933EF44EF54E40E942218FD
:102B800018160CF4A7C06AE070E080E090E00E94A4
:102B9000C404CDCF46015701E894B7F82FEF3FEFBB
:102BA0004FE75FE7C501B4010E94961A81110DC07D
:102BB0002FEF3FEF4FE75FE7C501B4010E942218F6
:102BC00018161CF483E492E050CF2FEF3FEF4FE74D
:102BD0005FE4C701B6010E94911A18161CF487E43D
:102BE00092E043CF2FEF3FEF4FE75FECC701B60115
:102BF0000E94221887FDF3CF20E030E0A901C70131
:102C0000B6010E94221887FF54C06DE281EB94E068
:102C10000E94B905C701B60190582AE037ED43EA92
:102C20005BE30E947D192B013C010E94621A4B015B
:102C30005C010E9427189B01AC01C301B2010E94F4
:102C40007C192B013C014AE0C501B4010E94060B2E
:102C50006EE281EB94E00E94B90520E030E040E2B2
:102C600051E4C301B2010E9488182B013C010E946B
:102C7000621A4B01B12CA12C4AE0C501B4010E949B
:102C8000060BC501B4010E9427189B01AC01C301CA
:102C9000B2010E947C1920E030E040E251E40E9441
:102CA00088180E94621A90E080E04AE00E94060BB9
:102CB000DECEC701B601B1CFBE016F5F7F4FCE013F
:102CC00005960E944A086AE070E080E090E00E9469
:102CD000C404BCCE87E497E00E94CD079095809510
:102CE000709561957F4F8F4F9F4F0E94291823E960
:102CF00033EF44EF54E40E94911A87FDA7C040E0EF
:102D000050E0BA0183E497E00E9474064DEC5CEC5D
:102D10006CEC7DE385E497E00E94740689E497E01B
:102D20000E94CD0790958095709561957F4F8F4F4C
:102D30009F4F0E94291823E933EF44EF54E40E9487
:102D4000221818165CF740E050E060E070E885E477
:102D500097E00E94740664E670E080E090E00E94D4
:102D6000C40487E497E00E94A20789E497E00E94E8
:102D7000A20786E592E00E94F90A64E670E080E02E
:102D800090E00E94C4048CE592E00E94F90A20E0E1
:102D900030E040EA51E4C701B6010E947D196B01A1
:102DA0007C010E948B0982E692E00E94F90A60E0B1
:102DB0008CE20E94E30287E497E00E94A20789E484
:102DC00097E00E94A2074AE959E969E17EE383E4BA
:102DD00097E00E9474064AE959E969E17EE385E4D7
:102DE00097E00E94740687E497E00E94CD079095D3
:102DF0008095709561957F4F8F4F9F4F0E94291846
:102E000023E933EF44E755E40E94221818160CF426
:102E10005DC089E497E00E94CD07909580957095FC
:102E200061957F4F8F4F9F4F0E94291823E933EF01
:102E300044E755E40E94221818160CF447C06AE0D3
:102E400070E080E090E00E94C404CDCF89E497E078
:102E50000E94CD0790958095709561957F4F8F4F1B
:102E60009F4F0E94291823E933EF44EF54E40E9456
:102E7000911A87FD70CF40E050E060E070E885E493
:102E800097E00E9474064DEC5CEC6CEC7DE383E40F
:102E900097E00E94740687E497E00E94CD07909522
:102EA0008095709561957F4F8F4F9F4F0E94291895
:102EB00023E933EF44EF54E40E94221818165CF71C
:102EC00040E050E0BA0183E497E043CF87E497E025
:102ED0000E94CD0790958095709561957F4F8F4F9B
:102EE0009F4F0E94291823E933EF44E755E40E94DD
:102EF000911A87FD5EC040E050E0BA0183E497E09C
:102F00000E9474064DEC5CEC6CEC7DE385E497E08C
:102F10000E94740689E497E00E94CD079095809501
:102F2000709561957F4F8F4F9F4F0E94291823E91D
:102F300033EF44E755E40E94221818165CF740E08E
:102F400050E060E070E885E497E00E94740664E673
:102F500070E080E090E00E94C40487E497E00E9463
:102F6000A20789E497E00E94A20788E692E00E9407
:102F7000F90A8EE692E00E94F90A64E670E080E0C9
:102F800090E00E94C40484E792E00E94F90AC7011D
:102F9000B6010E948B098AE792E00E94F90ABE01FD
:102FA0006F5F7F4FCE0105960E944A080E94290656
:102FB00013CD89E497E00E94CD0790958095709598
:102FC00061957F4F8F4F9F4F0E94291823E933EF60
:102FD00044E755E40E94911A87FDB9CF40E050E0E4
:102FE00060E070E885E497E00E9474064DEC5CECCC
:102FF0006CEC7DE383E497E00E94740687E497E03D
:103000000E94CD0790958095709561957F4F8F4F69
:103010009F4F0E94291823E933EF44E755E40E94AB
:10302000221818165CF740E050E0BA0183E497E0FC
:103030008CCF8091620690916306009711F00C94FA
:10304000371B08950E94641808F481E00895E894FD
:1030500009C097FB3EF490958095709561957F4FE0
:103060008F4F9F4F9923A9F0F92F96E9BB2793958E
:10307000F695879577956795B795F111F8CFFAF49E
:10308000BB0F11F460FF1BC06F5F7F4F8F4F9F4FCF
:1030900016C0882311F096E911C0772321F09EE82D
:1030A000872F762F05C0662371F096E8862F70E093
:1030B00060E02AF09A95660F771F881FDAF7880F6D
:1030C0009695879597F90895990F0008550FAA0BC3
:1030D000E0E8FEEF16161706E807F907C0F012162B
:1030E0001306E407F50798F0621B730B840B950B2E
:1030F00039F40A2661F0232B242B252B21F4089583
:103100000A2609F4A140A6958FEF811D811D08951F
:103110000E949B180C940C190E94FE1838F00E9413
:10312000051920F0952311F00C94F5180C94FB1858
:1031300011240C9440190E941D1970F3959FC1F33E
:10314000950F50E0551F629FF001729FBB27F00D55
:10315000B11D639FAA27F00DB11DAA1F649F6627AA
:10316000B00DA11D661F829F2227B00DA11D621FF9
:10317000739FB00DA11D621F839FA00D611D221FB3
:10318000749F3327A00D611D231F849F600D211D97
:10319000822F762F6A2F11249F5750409AF0F1F01A
:1031A00088234AF0EE0FFF1FBB1F661F771F881F83
:1031B00091505040A9F79E3F510580F00C94F518AE
:1031C0000C9440195F3FE4F3983ED4F386957795CD
:1031D0006795B795F795E7959F5FC1F7FE2B880F29
:1031E000911D9695879597F9089597F99F6780E8BF
:1031F00070E060E008959FEF80EC089500240A9449
:103200001616170618060906089500240A941216C1
:103210001306140605060895092E0394000C11F4F4
:10322000882352F0BB0F40F4BF2B11F460FF04C0A1
:103230006F5F7F4F8F4F9F4F089557FD9058440FFA
:10324000551F59F05F3F71F04795880F97FB991F05
:1032500061F09F3F79F087950895121613061406C2
:10326000551FF2CF4695F1DF08C01616170618064F
:10327000991FF1CF86957105610508940895E8942A
:10328000BB2766277727CB0197F90895A1E21A2E6D
:10329000AA1BBB1BFD010DC0AA1FBB1FEE1FFF1FFA
:1032A000A217B307E407F50720F0A21BB30BE40B4A
:1032B000F50B661F771F881F991F1A9469F7609591
:1032C0007095809590959B01AC01BD01CF0108954B
:1032D000991B79E004C0991F961708F0961B881F68
:1032E0007A95C9F780950895EE0FFF1F881F8BBF51
:1032F0000790F691E02D19945058BB27AA270E94F9
:1033000094190C940C190E94FE1838F00E940519AB
:1033100020F039F49F3F19F426F40C94FB180EF4B6
:10332000E095E7FB0C94F518E92F0E941D1958F35E
:10333000BA17620773078407950720F079F4A6F59A
:103340000C943F190EF4E0950B2EBA2FA02D0B0113
:10335000B90190010C01CA01A0011124FF27591BDA
:1033600099F0593F50F4503E68F11A16F040A22FE0
:10337000232F342F4427585FF3CF46953795279551
:10338000A795F0405395C9F77EF41F16BA0B620B50
:10339000730B840BBAF09150A1F0FF0FBB1F661F97
:1033A000771F881FC2F70EC0BA0F621F731F841FDA
:1033B00048F4879577956795B795F7959E3F08F000
:1033C000B0CF9395880F08F09927EE0F97958795C2
:1033D00008950E94FD190C940C190E94051958F0CB
:1033E0000E94FE1840F029F45F3F29F00C94F51874
:1033F00051110C9440190C94FB180E941D1968F38C
:103400009923B1F3552391F3951B550BBB27AA279D
:1034100062177307840738F09F5F5F4F220F331FD7
:10342000441FAA1FA9F335D00E2E3AF0E0E832D09F
:1034300091505040E695001CCAF72BD0FE2F29D0A2
:10344000660F771F881FBB1F261737074807AB0774
:10345000B0E809F0BB0B802DBF01FF2793585F4FE9
:103460003AF09E3F510578F00C94F5180C944019F1
:103470005F3FE4F3983ED4F3869577956795B795CB
:10348000F7959F5FC9F7880F911D9695879597F9D6
:103490000895E1E0660F771F881FBB1F621773074F
:1034A0008407BA0720F0621B730B840BBA0BEE1F64
:1034B00088F7E09508950E94621A6894B1110C94FF
:1034C000401908950E94251988F09F5798F0B92F48
:1034D0009927B751B0F0E1F0660F771F881F991F49
:1034E0001AF0BA95C9F714C0B13091F00E943F1993
:1034F000B1E008950C943F19672F782F8827B85FA3
:1035000039F0B93FCCF3869577956795B395D9F7A0
:103510003EF490958095709561957F4F8F4F9F4FAA
:1035200008950E94641808F48FEF08950E946418AB
:10353000880B990B08950F931F93CF93DF938230DD
:10354000910510F482E090E0E0916307F091640748
:1035500030E020E0B0E0A0E0309799F4211531058B
:1035600009F44AC0281B390B24303105D8F58A816B
:103570009B816115710589F1FB0193838283FE01B3
:1035800011C0408151810281138148175907E0F031
:103590004817590799F4109761F012960C931297F7
:1035A00013961C933296CF01DF91CF911F910F910B
:1035B00008950093630710936407F4CF2115310534
:1035C00051F04217530738F0A901DB019A01BD0100
:1035D000DF01F801C1CFEF01F9CF90936407809329
:1035E0006307CDCFFE01E20FF31F81939193225029
:1035F000310939832883D7CF209161073091620741
:10360000232B41F42091030230910402309362078E
:1036100020936107209101023091020221153105AA
:1036200041F42DB73EB74091050250910602241B8C
:10363000350BE0916107F0916207E217F307A0F400
:103640002E1B3F0B2817390778F0AC014E5F5F4FF8
:103650002417350748F04E0F5F1F509362074093C1
:103660006107819391939FCFF0E0E0E09CCFCF93EF
:10367000DF930097E9F0FC01329713821282A09148
:103680006307B0916407ED0130E020E01097A1F4EA
:1036900020813181820F931F209161073091620751
:1036A0002817390709F061C0F0936207E0936107BA
:1036B000DF91CF910895EA01CE17DF07E8F54A813F
:1036C0005B819E0141155105B1F7E901FB83EA8356
:1036D00049915991C40FD51FEC17FD0761F4808102
:1036E00091810296840F951FE901998388838281D5
:1036F00093819B838A83F0E0E0E012968D919C9108
:1037000013970097B9F52D913C911197CD01029631
:10371000820F931F209161073091620728173907A4
:1037200039F6309751F51092640710926307B09301
:103730006207A0936107BCCFD383C28340815181CC
:10374000840F951FC817D90761F44E5F5F4F8881BA
:103750009981480F591F518340838A819B819383AC
:1037600082832115310509F0B0CFF0936407E0930F
:1037700063079ECFFD01DC01C0CF13821282D7CF39
:103780004F925F926F927F928F929F92AF92BF9271
:10379000CF92DF92EF92FF920F931F93CF93DF931D
:1037A0008C01009799F4CB01DF91CF911F910F917C
:1037B000FF90EF90DF90CF90BF90AF909F908F9051
:1037C0007F906F905F904F900C949B1AFC01E60FD6
:1037D000F71F9C0122503109E217F30708F4AEC02D
:1037E000D901CD91DC911197C617D70720F1C530CB
:1037F000D10578F0CE0104978617970750F0C61BC5
:10380000D70B2297C193D1936D937C93CF010E94E4
:10381000371BC801DF91CF911F910F91FF90EF905F
:10382000DF90CF90BF90AF909F908F907F906F90E0
:103830005F904F9008955B01AC1ABD0A4C018C0E4D
:103840009D1EA0916307B0916407512C412CF12C6F
:10385000E12C109731F580916107909162078815EE
:10386000990509F05CC04616570608F058C08091CB
:10387000010290910202009741F48DB79EB74091EA
:10388000050250910602841B950BE817F90708F012
:1038900055C0F0936207E0936107F901718360837B
:1038A000B8CF8D919C91119712966C9012971396A8
:1038B0007C901397A815B90559F56C0142E0C40E28
:1038C000D11CCA14DB0420F1AC014A195B09DA01EE
:1038D0001296159780F06282738251834083D901DA
:1038E0006D937C93E114F10471F0D7011396FC936E
:1038F000EE9312978ECF22968C0F9D1FF901918324
:103900008083F301EFCFF0936407E093630781CFE7
:103910004816590608F42C017D01D3019ACFCB013A
:103920000E949B1A7C01009749F0AE01B8010E94E9
:10393000A11CC8010E94371B87016BCF10E000E07B
:1039400068CFFB01DC0102C001900D924150504054
:10395000D8F70895FB01DC0101900D920020E1F7FA
:10396000089511E0C0E7D1E000E006C0802FFE011D
:103970000E9474192196011DC137D10780E0080704
:06398000A9F7F894FFCF47
:10398600FF000065078000363738391B1D1A1C00FA
:103996000000002402F7014708CD01F001DD01CE49
:1039A6000100000000B905F6043C0506066D054B4E
:1039B600055F0500000000D50AF604470846086EB4
:1039C600616E00696E66006F7666007965657400E3
:1039D6007965657431007965657432007965657459
:1039E60033007965657434007965653874007965E6
:1039F60065743500796565743600796565743700D8
:00000001FF
